:1000000000000120A1350000C9350000CB350000FB
:10001000CD350000CF350000D135000000000000D4
:10002000000000000000000000000000D3350000C8
:10003000D535000000000000D7350000D93500009C
:10004000DB350000DB350000F52900007D250000D0
:10005000DB350000DB350000BD1D0000DB35000096
:10006000DB350000DB350000DB350000DB35000050
:10007000DB350000DB350000DB350000DB35000040
:10008000DB350000E90C0000DB350000DB3500004B
:10009000890D0000DB350000DB350000DB3500009A
:1000A000DB350000DB350000DB350000DB35000010
:1000B000DB350000DB350000000000000000000020
:1000C000DB350000DB350000DB350000DB350000F0
:1000D000DB350000DB350000DB35000000000000F0
:1000E0000000000000000000000000000000000010
:1000F0000000000000000000000000000000000000
:1001000000000000000000000000000000000000EF
:1001100000000000000000000000000000000000DF
:1001200000000000000000000000000000000000CF
:1001300000000000000000000000000000000000BF
:1001400000000000000000000000000000000000AF
:10015000000000000000000000000000000000009F
:10016000000000000000000000000000000000008F
:10017000000000000000000000000000000000007F
:10018000000000000000000000000000000000006F
:10019000000000000000000000000000000000005F
:1001A000000000000000000000000000000000004F
:1001B000000000000000000000000000000000003F
:1001C000000000000000000000000000000000002F
:1001D000000000000000000000000000000000001F
:1001E000000000000000000000000000000000000F
:1001F00000000000000000000000000000000000FF
:1002000010B5054C237833B9044B13B10448AFF350
:1002100000800123237010BD2C020020000000008C
:10022000F83C000008B5034B1BB103490348AFF38A
:10023000008008BD0000000030020020F83C0000F3
:10024000154B002B08BF134B9D46A3F5803A0021A8
:100250008B460F461348144A121A03F0E4FB0F4B67
:10026000002B00D098470E4B002B00D09847002061
:10027000002104000D000D48002802D00C48AFF307
:10028000008003F081FB2000290003F041F903F016
:1002900067FB00BF00000800000001200000000014
:1002A000000000002C020020500900200000000087
:1002B00000000000F0B595B0002415460F46084632
:1002C0001E4601F0C3FC384623460895082205A9BE
:1002D0001A9D09960D950A948DF82C400C9401F006
:1002E0001BFD9DF814308DF81040DDE9061003F079
:1002F0000302012A0290ADF80C102BD0022A04D080
:10030000384601F0B3FC15B0F0BDBDF81650C3F38C
:10031000C202C3F38003AD098DF80E208DF80F30B3
:100320000826082D2C4628BF0824334622460EA94D
:10033000384601F0F1FC2D1B214608AB02AA0EA89D
:10034000264400F0D1FB002DEBD1384601F08EFCA5
:1003500015B0F0BDBDF814500598C5F38315C3F36F
:10036000C20CAA000EA9C3F38004C0F3952608238B
:1003700038468DF80EC08DF80F4001F0CDFC08AB6B
:100380002A4630460EA9009302AB00F015FB384612
:1003900001F06CFC15B0F0BD014B01221A707047E2
:1003A0008C020020704700BF70B50E4D0E4888B01B
:1003B00002F0F2F90FCD6C460FC495E80F0008ADBE
:1003C000062645F8206D84E80F00294600220648DD
:1003D00002F0FAF808B100F043FC044B00221A7056
:1003E00008B070BD7C3A00000000002048020020E8
:1003F00000B583B0044B0093044A4023FFF75AFF33
:1004000003B05DF804FB00BF110400004C020020A3
:1004100010B5094C09480023D2B2237002F040FA0B
:1004200030B9074B1B7813B12378002BFCD010BDDB
:1004300000F016FCF5E700BF8C0200200000002051
:100440004802002070B50D4D0FCD88B06C460FC42A
:1004500095E80F0008AD062645F8206D84E80F00EA
:100460002946074A074802F0AFF808B100F0F8FB48
:10047000054B01221A7008B070BD00BF7C3A000025
:1004800099030000000000204802002010B5054C30
:10049000FFF7D8FF2046042100F04CFA01236372D5
:1004A00010BD00BF080000202DE9F0477F4C00235D
:1004B00084B0C4F81834BFF34F8FD4E9017607EA4B
:1004C0000601CB1C04EB830214F8233098073D4649
:1004D0000FD1138852889B0903EB921301331D44FB
:1004E00006EA0501CB1C04EB830214F823309B07BA
:1004F000EFD004EB81016A1CCB680193324004EB1E
:10050000820203F00303D2680292022B05F1020873
:100510000FD0012B70D0032B06D02068C01B18BF52
:10052000012004B0BDE8F087D4F818040028F4D105
:10053000F7E7BDF806305E484FEA93194D46502D57
:1005400028BF502565F38F1305F10801ADF806307B
:1005500001F03AFB074600284CD026EA080A0AF1C7
:10056000010A01F073FB4FEA8A0A0023082201A95D
:10057000384601F0A3FB554540F28B80EBB2BAF14F
:10058000000F7FD006EA0801A3EB0A03033104EB56
:100590008101DDB252460823384601F08FFB2A461E
:1005A0000AF108034349384601F088FB09F10309C1
:1005B00008EB9909D4F81834002B5ED1D4F8105404
:1005C00055B16B7A28463946002B52D02B681B68F0
:1005D00098476D68002DF4D1384601F047FB0020A4
:1005E00000F00AFFD4F818340BB9C4F804900020C6
:1005F00000F00AFF676890E7BDF804302C48C3F3A9
:100600008311062928BF062161F38913023189006D
:10061000ADF8043001F0D8FA07460028EAD001F01E
:1006200015FB0023082201A9384601F047FBBDF85D
:10063000043013F4707F37D06FF0010AAAEB050A7B
:10064000082506EA080103312B46042204EB810148
:10065000384601F033FBBDF8043008F101090AEB1C
:100660000902C3F383139A42C84605F10405E8D38F
:10067000A0E76D68002DA4D1AEE7384601F0F6FA88
:1006800067684AE72A4608230A49384601F016FBFC
:100690008CE706EA0801033104EB81012A460823AE
:1006A000384601F00BFB81E7C14683E7900200204A
:1006B000A83A00009C02002008B50E4B0E4800220C
:1006C000FF21C3F818249960C3E90022C3F8142459
:1006D00083F81C2401F076FA58B90849084BC91A66
:1006E000C90806D0074A034622F80C3B0133994259
:1006F000FAD108BD90020020A83A0000243D000075
:10070000FC3C0000F001002021B9134A02EBC000BC
:100710000068704730B411490F4C091BC90816D046
:100720000F4B5A88824218BF002205D111E0DD89A3
:10073000854203F10C0305D001329142F7D100202C
:1007400030BC704704EBC200006830BC70470846FC
:10075000F6E72046F8E700BFFC3C0000243D00001F
:10076000F0010020094B013903EBC00003290BD82D
:10077000DFE801F002080604022070474079704764
:10078000007970470420704700207047FC3C00004F
:100790002DE9F04F604C89B0A368029000200193CE
:1007A000039100F029FED4E901E0D4F8008000EBC9
:1007B0000E030133A3EB0803032B61D800F1010AF8
:1007C000AAEB080A04F5836C04F2144600EA0E0949
:1007D000012500275CE8003F43EA05024CE80021C0
:1007E00091F0000FF6D156E8003F43EA050246E8D3
:1007F000002191F0000FF6D109F1030304EB83010E
:1008000014F823309B07CB46724610D10B884988D9
:100810009B0903EB911301331A4400EA020B0BF11D
:10082000030304EB830114F823309B07EED004EBA1
:100830008B0B0232DBF80C30059303F00303012B22
:1008400064D0022B05D1BDF816309B09033302EBAF
:10085000930256E8003F03EA070146E8001B9BF0BD
:10086000000FF6D143B10AEB0203032B626007D8F5
:10087000964600EA0209ADE70AEB0E03032BA9D95D
:1008800008EA0000033008F1020214F8203043F0B7
:10089000030304F820300020226000F0B5FD019A27
:1008A000029908F10103134004EB830302EA0808EC
:1008B00008F103080A0CDA6014F828300A0962F318
:1008C000820361F3C50304F8283034F82830039A12
:1008D0006FF3891324F8283054F8283062F39F23EB
:1008E0001A46012161F3010244F8283004F8282057
:1008F00094F81C341BB906E0FFF7D6FD18B1D4E913
:1009000000329A42F8D109B0BDE8F08FBDF814303A
:10091000C3F383131A449CE790020020044BD3E9ED
:1009200000239A4201D0FFF7BFBD0020704700BFEF
:100930009002002030B4154DD5F81044002154B178
:10094000237A8B4213D0234602E01A7A8A420ED0D1
:100950005B68002BF9D10172D5F810347BB15B686C
:100960004360D5F81034586030BC084670470131F8
:100970000A29E4D14FF0FF31084630BC7047C5F872
:100980001004436030BC0846704700BF900200204E
:1009900038B5084BD3F81044012583F81C543CB1FA
:1009A0002368657220465B6898476468002CF7D11D
:1009B00038BD00BF900200202DE9F04784B01D46ED
:1009C0000C9C002394F80C802373EB7981460E462F
:1009D0001746DBB1062F09D8DFE807F00430363DB3
:1009E00046515E004946204600F078FDEB792BB970
:1009F0002B7AEBB93649204600F070FD204600F016
:100A000061FD84F80C8004B0BDE8F0872B7AA888DB
:100A1000A979002B4FD12F4B53F821A00021FFF7CC
:100A200073FE524603462C49204600F057FDD1E79D
:100A30002A4A2B49204600F051FDDBE7326849463F
:100A4000204600F04BFDD1E74946D6E90023204679
:100A500000F044FDCAE7B168D6E9002320460091C2
:100A6000494600F03BFDC1E7D6E90201D6E9002383
:100A7000019100904946204600F030FDB6E7D6E9E6
:100A80000371B068D6E900230291CDE90007494619
:100A9000204600F023FDA9E7D6E90410D6E900239B
:100AA0000390D6E902070291CDE9000749462046A6
:100AB00000F014FD9AE7FFF755FE0A4B084953F87A
:100AC0002020204600F00AFDA979A888A3E700BFEE
:100AD000103B0000143B0000FC3A0000083B000003
:100AE000F83A0000C03A000008295CD82DE9F04F20
:100AF0001D46914600232A7B2B7383B099F807305B
:100B0000019207460E46002B4ED0DFF808B1DFF801
:100B10000881002405E03A5D013400F0DFFC082C78
:100B200009D0A64241462846F5D85946013400F07E
:100B3000D5FC082CF5D13049DFF8E080DFF8E0B0D3
:100B4000284600F0CBFC002411E017F804A002F0C6
:100B50003FFF50445946437813F0970F14BF524655
:100B60002E222846013400F0B9FC082C08D0A642F9
:100B700041462846E9D8013400F0B0FC082CF6D1F3
:100B800099F8073013B999F808300BBB1B49284670
:100B900000F0A4FC284600F095FC9DF804302B736F
:100BA00003B0BDE8F08F704799F80830B9F8040039
:100BB00099F8061093B9124B53F821400021FFF722
:100BC000A3FD224603460F49284600F087FC9CE718
:100BD0000D4A0E49284600F081FCD7E7FFF7C2FD19
:100BE0000B4B0A4953F82020284600F077FC99F86F
:100BF0000610B9F80400DEE7F03A0000103B0000F0
:100C0000143B0000FC3A0000083B0000F83A0000EA
:100C1000C03A0000EC3A0000E43A0000043B000057
:100C2000F43A000030B44FF0A04303224FF40035F3
:100C30004FF480244FF400204FF48011C3F8442770
:100C4000C3F84827C3F84C27C3F85027C3F8085502
:100C5000C3F80845C3F80805C3F8081530BC704749
:100C600000B585B000230390194601AA44F20100A3
:100C7000ADF80430029300F003F805B05DF804FB12
:100C800010B5FFF785FEFFF749FE0028FBD1104C99
:100C900010492088000440F00100FFF779FD0E4B59
:100CA0001B68DB0700D5FFDE20880C49000440F0FC
:100CB0000200FFF76DFDBFF34F8F0949094BCA686A
:100CC00002F4E0621343CB60BFF34F8F00BFFDE738
:100CD000F0010020883B0000F0ED00E0943B0000B4
:100CE00000ED00E00400FA05F8B5204A204B00248E
:100CF000C2F84041C2F84441C2F84841C2F84C41F0
:100D0000C2F80041C2F804411B6833B31949D2F854
:100D100004550A68AD1A1A6825F07F45AA4227468D
:100D20000DD8197CDE69AD1A144419B11F74D3E9CA
:100D3000052090471EB133461A68AA42F1D90E49E0
:100D40000E4A0B7812789A4208D00D490D4A41F8A4
:100D500023404FF48013C2F80031F8BD531CDBB2BE
:100D6000022B08BF00230B70EFE700BF001001400B
:100D7000A00800209C080020990800209808002066
:100D80009008002000E100E02DE9F04FAF48B04AA4
:100D9000B04913780978D0F80090AF4889B000685E
:100DA0000290994200F04E810133DBB2022B08BF62
:100DB00000231370A94A52F82300A44B09EB000743
:100DC00027F07F471F60029B00252A462C46AC4631
:100DD000B3B11968814200F24D81DD68C3F800C0EB
:100DE000401A0C44D9693DB109EB040626F07F4650
:100DF000C3E90165DA611A460B460125002BE8D1EB
:100E0000002D40F09B81012302990693B946944B33
:100E1000944C1B7805934FF000084B46CDF81C808E
:100E2000CDF80C804FF0010EC1468C469B4642B374
:100E3000D2E901651346D2698B48A6EB0B0121F07C
:100E40007F41814259D829441960002083F810E07D
:100E5000C3E90100D861BCF1000F72D0DCF80000DA
:100E600088425FD2664603E02868884263D22E46F5
:100E7000F569091A002DF7D11960DD61F361002AC7
:100E8000D6D1CA46CDF804B094F8019021784FF03D
:100E9000000B1646894576D0084600EB400004EB6F
:100EA000C0004A1CA378D1B2027921708B4204BFE2
:100EB00084F800B00021022A836853D0032A44D06A
:100EC000012AE7D11F7C002FE4D13246C6685E605C
:100ED00005699D604169D960816999610599DDF86D
:100EE00004B0D1460029A7D03E46A6EB0B015E48D0
:100EF0005F6021F07F418142A5D9ABEB060121F073
:100F00007F41A94202D2691A19609EE7002183F845
:100F100010E0C3E900119960D961BCF1000F10D055
:100F2000DCF80000411ACCF800104FF00108C3F8BB
:100F30001CC09C467BE7401A28601960DD61F361A4
:100F40009DE79C464FF0010871E7BCF1000FA1D06E
:100F5000624600231374D269002AFBD194464FF0F5
:100F6000010891E7BCF1000F09D06345624603D147
:100F700092E083424FD00246D0690028F9D183F82D
:100F800010B0894588D1C346DDF80490D046BBF146
:100F9000000F40F0D780079B002B40F01A82B8F179
:100FA000000F03D02E4B9DF814201A702A4B1A689C
:100FB000039B1BB9029B9A4200F0C880002A00F0F4
:100FC000CC802A48214BD0F804151B68284C1568A2
:100FD0002678CA1A22F07F420332002E00F0A68142
:100FE00095422CBF5B199B18204823F07F43C0F823
:100FF0004035D0F80425521A5B1A22F07F4223F0C4
:101000007F4303329A4200F24781154A002313704E
:1010100009B0BDE8F08F934236D0674604931D4671
:10102000E8692D68D06128B102682A4402602178FD
:1010300094F801906745A2D00122BC46039283F840
:1010400010B09EE7002206920146E0E69C080020D0
:101050009808002099080020A0080020900800208F
:101060008C08002080070020FEFF7F000010014058
:101070008D080020002D40F0B081091A196001236D
:10108000B94606930299C2E60493DCF81C7037B1A6
:101090004FF00108049DC3E7CDF810C0F5E777488D
:1010A000774DC0F808E077484FF02F08006800BF80
:1010B00000BF00BF00BF00BF00BF00BF00BFA8420D
:1010C0002FD000BF00BF00BF00BF00BF00BF00BFE8
:1010D00000BF00BF00BF00BF00BF00BF00BF00BF18
:1010E00000BF00BF00BF00BF00BF00BF00BF00BF08
:1010F00000BF00BF00BF00BF00BF00BF00BF00BFF8
:1011000000BF00BF00BF00BF00BF00BF00BF00BFE7
:1011100000BF00BF00BF00BF00BF00BF00BF00BFD7
:1011200000BFB8F10108C2D14FF0010A0197CDF814
:1011300014A0CDF81CA0D046049D71E7524902933B
:101140000B6060E6504BC3F800C024E7069B002B01
:101150003FF45BAF002A7FF434AF48494B4B494E14
:10116000474C4FF480304FF400370125C3F88070AE
:10117000C1F848032F23C1F808034D6030681E46AC
:1011800000BF00BF00BF00BF00BF00BF00BF00BF67
:10119000A0422FD000BF00BF00BF00BF00BF00BFF4
:1011A00000BF00BF00BF00BF00BF00BF00BF00BF47
:1011B00000BF00BF00BF00BF00BF00BF00BF00BF37
:1011C00000BF00BF00BF00BF00BF00BF00BF00BF27
:1011D00000BF00BF00BF00BF00BF00BF00BF00BF17
:1011E00000BF00BF00BF00BF00BF00BF00BF00BF07
:1011F00000BF00BF013EC3D18D6025490A6000BF1A
:1012000000BF00BF00BF00BF00BF00BF00BFA042C3
:101210002FD000BF00BF00BF00BF00BF00BF00BF96
:1012200000BF00BF00BF00BF00BF00BF00BF00BFC6
:1012300000BF00BF00BF00BF00BF00BF00BF00BFB6
:1012400000BF00BF00BF00BF00BF00BF00BF00BFA6
:1012500000BF00BF00BF00BF00BF00BF00BF00BF96
:1012600000BF00BF00BF00BF00BF00BF00BF00BF86
:1012700000BF013BC3D1074B1A70C6E60010014006
:101280000024F40014000020A008002000E100E089
:101290009C0800208D080020D0F80435514AC0F881
:1012A0004035126850492F2300BF00BF00BF00BF68
:1012B00000BF00BF00BF00BF8A422FD000BF00BFE9
:1012C00000BF00BF00BF00BF00BF00BF00BF00BF26
:1012D00000BF00BF00BF00BF00BF00BF00BF00BF16
:1012E00000BF00BF00BF00BF00BF00BF00BF00BF06
:1012F00000BF00BF00BF00BF00BF00BF00BF00BFF6
:1013000000BF00BF00BF00BF00BF00BF00BF00BFE5
:1013100000BF00BF00BF00BF00BF00BF013BC3D183
:10132000324B4FF40032C3F800216EE62F4EDFF847
:10133000B4E0DFF8B4C04FF48037C0F84473C0F8AD
:1013400004734FF40037C6F88071376001260660D9
:10135000DEF800702F2000BF00BF00BF00BF00BF3D
:1013600000BF00BF00BF67452FD000BF00BF00BF58
:1013700000BF00BF00BF00BF00BF00BF00BF00BF75
:1013800000BF00BF00BF00BF00BF00BF00BF00BF65
:1013900000BF00BF00BF00BF00BF00BF00BF00BF55
:1013A00000BF00BF00BF00BF00BF00BF00BF00BF45
:1013B00000BF00BF00BF00BF00BF00BF00BF00BF35
:1013C00000BF00BF00BF00BF00BF0138C3D12670FF
:1013D00006E6074BC3F80090E1E5064C0293236054
:1013E0004BE600BF140000200024F40000E100E000
:1013F0009C080020A008002072B6024A136801333E
:1014000013607047A4080020034A1368013B13606F
:1014100003B962B6704700BFA4080020B8B130B469
:10142000D0E90112521A0468D2B2531E2160DBB215
:1014300042B101680A685C1E551C0D601370E3B26E
:10144000FF2BF6D103680020187130BC70470E20C6
:10145000704700BF38B504460020FFF7CDFFD4E940
:1014600000311A688A4215D9511E19602168A36893
:101470000868258A12F8012CE4681B1A0879DBB287
:10148000984205FB024400D20B710020FFF7BCFF1D
:10149000204638BD0024F8E738B5054600200C4644
:1014A000FFF7AAFF2A681368591C1160E9682A8AA5
:1014B000641AB4FBF2F41C700020BDE83840FFF75A
:1014C000A3BF00BF826842B110B5044643690168FA
:1014D000006998470023A36010BD70470EB400B5A3
:1014E00082B0039929B102AA04AB42F8043D00F08E
:1014F0008BF802B05DF804EB03B070472DE9F84FAC
:1015000088469045174605461E46DDE90AB175D363
:1015100043464FF00109B3FBF7F39F4209F101097C
:10152000F9D9B14538BFB14611F0010AAA6802D114
:10153000BBF1000F43D1012402E0013E07FB04F49C
:10154000012EFAD8B8FBF4F18F42F7D92D4E05E001
:10155000B4FBF7F4A4B1B8FBF4F1AA68705C531CB7
:10156000AB602B689854D5E901329A4204FB11888C
:10157000EED32846FFF7A6FFB4FBF7F4002CEAD120
:10158000BAF1000F15D0BBF1000F12D0CB4510D926
:101590002024AB682A68591CA960D454D5E90132CB
:1015A0009A420BF1FF3B06D2BBF1000F01D0CB45B5
:1015B000EFD1BDE8F88F2846FFF784FFF4E78B07EB
:1015C00017D42024CB45B6D92B68511CA9609C5454
:1015D000D5E901329A420BF1FF3B05D2BBF1000F76
:1015E000A9D0CB45F0D1A6E72846FFF76BFFAA6844
:1015F000F4E7002E0CBF30242024E3E74FF001096C
:101600008FE700BFAC3B0000002900F0F4812DE91A
:10161000F04F054685B092460C460B78DFF8A0B532
:1016200001E0237893B1013483B1252B15D0AA684A
:101630002968501CA8608B54D5E901329A42F0D336
:101640002846FFF73FFF2378002BECD12B7B002BA4
:1016500040F0148105B0BDE8F08F2146002711F855
:10166000012B2D2A00F0E180302A00F0E2802B2AA5
:1016700000F0D2802A2A00F0E080A2F13006F3B216
:10168000092B03D9B8E1A3F130060146084606EB61
:10169000860310F8012BA2F13004092C02EB43035E
:1016A000F1D92E2A00F0D5800023013101E011F894
:1016B000012B02F0FB0068280C46F8D0253A532A8B
:1016C000AFD801A151F822F08918000023160000BC
:1016D0002316000023160000231600002316000026
:1016E0002316000023160000231600002316000016
:1016F0002316000023160000231600002316000006
:1017000023160000231600002316000023160000F5
:1017100023160000231600002316000023160000E5
:1017200023160000231600002316000023160000D5
:1017300023160000231600002316000023160000C5
:1017400023160000231600002316000023160000B5
:1017500023160000231600002316000023160000A5
:101760002316000023160000231600002316000095
:101770002316000023160000231600002316000085
:101780002316000023160000231600002316000075
:1017900023160000A31800002316000023160000E3
:1017A0002316000023160000231600002316000055
:1017B0002316000023160000231600002316000045
:1017C000BD180000DF1800002316000023160000DB
:1017D0002316000023160000DF1800002316000067
:1017E0002316000023160000231600002316000015
:1017F000231600002F1900002316000023160000F6
:10180000A319000023160000DD19000023160000B4
:1018100023160000A318000047F004070C462146D9
:1018200011F8012B2D2A7FF41FAF47F001070C465A
:10183000F5E747F002070C46F1E7DAF800301A1D29
:10184000CAF8002062781E682E2A04F102007FF494
:101850002BAF4A78A2F13003092B00F2508100230C
:1018600003EB830302EB430310F8012FA2F13001D5
:101870000929A3F13003F3D9014616E7284605B03C
:10188000BDE8F04FFFF71EBEAB682A68591CA9607F
:101890004FF02501D154D5E901329A42FFF4C1AE8F
:1018A000CEE6DAF80020111DCAF8001011682846AB
:1018B000CDE900671022FFF721FEB2E6DAF800203A
:1018C000131DCAF80030AB6829681278581CA8604C
:1018D000CA54D5E901329A42FFF4A3AEB0E6DAF871
:1018E0000020111DCAF80010D2F8008088EAE872C2
:1018F000A2EBE872092A4FF0010107DDAF48A0FB17
:101900000202D208092A01F10101F7DC994238BF2D
:101910001946894607F00202002E71D12AB1002B28
:1019200000F04781FA0700F18D8000268AE0DAF89E
:101930000020131DCAF80030AB6829681768581CCE
:101940003022A860CA54D5E90123934280F028814F
:101950002A68581C7821A860D154D5E90123934204
:1019600080F019810F2F03D93A4612090F2AFCD8AB
:101970004FF0805603E036093FF453AEAB68296858
:10198000B7FBF6F2581CA8601BF80200C854D5E952
:101990000131994206FB1277EDD32846FFF792FDFD
:1019A000E9E7DAF800301A1DCAF80020D3F8008001
:1019B000FB077ED54746A7EB080917F8013B002B2C
:1019C0005DD0AA682968501CA8608B54D5E9013203
:1019D0009A42F0D32846FFF775FDECE7DAF80020CD
:1019E000111DCAF8001011682846CDE900670A22C7
:1019F000FFF784FD15E6704708460026214650E6AD
:101A0000B8F1000F01DB780700D5013E02B1CBB180
:101A1000F90717D4002E88D0B14513D220220393A2
:101A2000A9682B68481CA8605A54D5E9013199422D
:101A300006F1FF365DD2002E00F0BD80B145EFD13A
:101A4000039B4E46B8F1000FC0F292807A070AD588
:101A5000A9684A1CAA602A682B205054D5E90121A4
:101A6000914280F0928007F00302022A5FD0CDE914
:101A7000006741460A222846FFF740FDD1E54E4562
:101A80007FF6CFAD202705E04E453FF4CAAD002ECE
:101A90003FF4C7ADAB682A68591CA960D754D5E993
:101AA00001329A4206F1FF36EED32846FFF70AFDCF
:101AB000EAE7B8F1000F24D0404601F0BCFF07462A
:101AC000BE4220D9FEB14FF0200902E0BE421AD03A
:101AD000CEB1AB682A68591CA96002F80390D5E919
:101AE00001329A4206F1FF36F0D32846FFF7EAFCAE
:101AF000ECE728460292FFF7E5FC029A9BE70146D5
:101B0000D2E54746DCE708F1FF3818F8013F002B23
:101B10003FF487ADAA682968501CA8608B54D5E9AA
:101B200001329A42F1D32846FFF7CCFCEDE7002BB7
:101B30009DD1002E3BD0B14599D2029323464C460D
:101B40009946AA682B68501C4FF03001A860995440
:101B5000D5E901329A4206F1FF3605D22EB3B442DE
:101B6000EFD1029B4C4682E72846FFF7ABFCF5E736
:101B7000A9684A1CAA602A682D205054D5E9012181
:101B80009142C8F10008FFF46EAF28460293FFF7B8
:101B900099FC029B67E72846FFF794FCAB68E1E6F7
:101BA0002846FFF78FFCAB68D2E6029B4C46002626
:101BB0005DE71E4646E7039BB7E600BFCDCCCCCC25
:101BC000AC3B0000FFF72ABC2DE9F041058ACE1C92
:101BD000043D2E440746B6FBF5F6FFF73BFC78B311
:101BE000F6B24FF48073013E0446C58007608380DF
:101BF00027D08046002509E06379AE4203F1010356
:101C00006371C8F80000076080461AD03846FFF7B5
:101C100021FC01350028EFD16679721E14D02346CD
:101C2000013082421B68FBD11F684EB1002523683A
:101C30002146013538461C46FFF72EFCAE42F6D150
:101C400000242046BDE8F0812768EFE710B4043097
:101C5000012350E8002F02EB030140E8001494F048
:101C6000000FF6D15DF8044B704700BF0146021D1E
:101C7000F8B5012052E8004FA4EB000342E800351C
:101C800095F0000FF6D113F0FF0300D0F8BD4E79A8
:101C9000701E11D00A46013398421268FBD11768B2
:101CA000002EF3D000240D6801343846FFF7F4FB12
:101CB000A6422946F7D1F8BD0F68F3E72DE9F843AE
:101CC0000446181DE688B0FBF6F30F46904606FB67
:101CD000130013B1013B2468FCD1351A454528BFD8
:101CE0004546B8F1000F15D04FF000090430A8EBBD
:101CF000050820442A4607EB090101F089FE464504
:101D0000A944246835464FF0000028BF4546B8F185
:101D1000000FEBD1BDE8F8832DE9F843C688043302
:101D200004460F46B3FBF6F0904606FB103110B1A7
:101D300001382468FCD1751A454528BF4546B8F1DD
:101D4000000F15D04FF0000904312144A8EB05081D
:101D50002A4607EB090001F05BFE4645A9442468CA
:101D600035464FF0000128BF4546B8F1000FEBD1D2
:101D7000BDE8F8834901002810B4C9B2C3B215DB2D
:101D800000F1604202F5614282F8001340098000D0
:101D900000F1604000F5614003F01F020123934011
:101DA000C0F8803103605DF8044B7047024A03F0CD
:101DB0000F0422441176E9E7FCEC00E02DE9F04144
:101DC00086B00023A14A01931668012E00F05481C9
:101DD0001E469F4B1A68012A00F05D819D4B1A68D0
:101DE000012A00F06A819C4B1A68012A00F0778171
:101DF0009A4B1A68012A00F08481994B1A68012ACB
:101E000000F09181974B1A68012A00F09E81964B51
:101E10001A68012A0CD0954B1B68012B00F0A58194
:101E200016F0FF0F15D1002E30DB06B0BDE8F081B3
:101E30008F4AD2F804231706EDD500221A601A68DB
:101E400004926033049A1B68012B46F0800600F070
:101E50008C81884F00240125A30003F18043354283
:101E600003F5C0434FEA45050BD0D3F8100557F8EA
:101E70002420D3F81015C0F30420C1F3014102B1AE
:101E800090470134082CE7D1002ECEDA00224FF023
:101E9000FF33CDE90223774C012602AF94F950308D
:101EA0005D1C2CD0DBB223F0C00006AA4FEAD00C98
:101EB00002EB0C0E03F007021EF80C1C06FA02F2ED
:101EC00011421CD02518990995F9303054F8233067
:101ED000002B00F09881032900F098814FEA800CD4
:101EE0000CF1A04C1EF8145CDCF800E71540CEF3B2
:101EF000014E40F05C81BEF1030F00F0DE81002551
:101F000094F95130581C2DD0DBB223F0C00006AA42
:101F10004FEAD00802EB080E03F007011EF80C2C64
:101F200006FA01FC12EA0C0F1CD02218990992F94A
:101F3000303054F82330002B00F05B81032900F08F
:101F40005B81820002F1A0421EF8148CD2F800E7F7
:101F500018EA0C0FCEF3014E40F03681BEF1030FAC
:101F600000F0A68194F95230591C2DD0DBB223F039
:101F7000C00006AA4FEAD00802EB080E03F00701E2
:101F80001EF80C2C06FA01FC12EA0C0F1CD02218C9
:101F9000990992F9303054F82330002B00F03C813D
:101FA000032900F03C81820002F1A0421EF8148C4B
:101FB000D2F800E718EA0C0FCEF3014E40F0E380B0
:101FC000BEF1030F00F06E8194F953305A1C2DD0EE
:101FD000DBB223F0C00006AA4FEAD00802EB080EDD
:101FE00003F007011EF80C2C06FA01FC12EA0C0F94
:101FF0001CD02218990992F9303054F82330002B64
:1020000000F0ED80032900F0ED80820002F1A04293
:102010001EF8148CD2F800E718EA0C0FCEF3014E2C
:1020200040F0BC80BEF1030F00F00081002D3FF4B2
:10203000FCAE4FF0A043019AD3F8103593423FF421
:10204000F4AE029A0193039228E700BF00610040BA
:1020500004610040086100400C61004010610040D4
:1020600014610040186100401C6100407C61004028
:1020700000600040A80800209A49D1F8041311F02C
:10208000010170D0136013680493049B964B1A6887
:10209000012A7FF4A3AE934AD2F8042397077FF571
:1020A0009DAE00221A601B680493049B8F4B1A6834
:1020B000012A46F002067FF496AE8A4AD2F804233B
:1020C00055077FF590AE00221A601B680493049BAD
:1020D000874B1A68012A46F004067FF489AE814ACC
:1020E000D2F8042314077FF583AE00221A601B6820
:1020F0000493049B7F4B1A68012A46F008067FF47C
:102100007CAE784AD2F80423D0067FF576AE002262
:102110001A601B680493049B774B1A68012A46F0E7
:1021200010067FF46FAE6F4AD2F8042391067FF554
:1021300069AE00221A601B680493049B6F4B1A68F7
:10214000012A46F020067FF462AE664AD2F80423E4
:1021500052067FF55CAE00221A601B680493049B54
:1021600046F0400653E60E4633E6654B00221A6001
:102170001B6805934FF0A043059AD3F810350193DF
:1021800046F000464CE6BEF1020F7FF41DAF032976
:1021900063D0002B3FF418AF984715E7BEF1020F4C
:1021A0007FF444AF032969D0002B54D13EE7BEF140
:1021B000020F7FF4A4AE032900F091800025002BCC
:1021C0003FF49EAE98479BE6BEF1020F7FF4CAAE85
:1021D000032956D0002B3FF4C5AE9847C2E6032929
:1021E0007FF424AF17F8082042EA0C0207F8082011
:1021F0000BE703297FF4B6AE17F8082042EA0C0279
:1022000007F808209DE603297FF479AE17F80C50F3
:10221000154307F80C5061E603297FF4D5AE17F893
:10222000082042EA0C0207F80820BCE60329BBD1CB
:102230004FF4003ED2F800C72CF4403CC2F800C76F
:10224000D2F800C701354CEA0E0CEDB2C2F800C757
:10225000002B3FF4EEAE9847E8E64FF4403ED2F84C
:1022600000C72CF4403CC2F800C7D2F800C70135C3
:102270004CEA0E0CEDB2C2F800C78AE74FF4403EBC
:10228000D8E74FF4403ED2F800C72CF4403CC2F8E7
:1022900000C7D2F800C701354CEA0E0CEDB2C2F807
:1022A00000C797E703297FF474AF4FF4003ED6E7E9
:1022B00003298FD14FF4003EE5E703297FF47FAF78
:1022C0004FF40035DCF8002722F44032CCF8002728
:1022D000DCF800272A43CCF8002701256FE74FF4EC
:1022E0004035EFE7006000400461004008610040B5
:1022F0000C61004010610040146100401861004012
:102300007C6100402DE9F0414479544DE6003719D5
:10231000BF0005EB070C9CF81CE0BEF1000F40F07D
:102320008F80EA51CCF804300B7B91F800C0012B70
:102330004FF0A0474FF0010303FA0CF394BFC7F826
:102340000C35C7F808350B784FF0A04E03F5E07355
:102350004FF0010C4EF823C04F78FF2F68D007F5DF
:10236000E0780CFA07F34FF0030CCEF80C354EF87A
:1023700028C08B78FF2B60D003F5E07C9E464FF0A1
:10238000A0434FF0040843F82C8091F803C0BCF13F
:10239000FF0F0FD04FF0A048012303FA0CF3C8F849
:1023A0000835CB7803F5E0734FF0030C48F823C0F1
:1023B00091F803C0437903EBC30305EB830383F870
:1023C0001EC0036891F800C0C3F808C5C3F80C75B7
:1023D000C3F810E58F68C3F824754F7B91F80CC0E3
:1023E000003718BF0127BCF1020F33D0BCF1030F37
:1023F0002DD0BCF1010F01D147F00207C3F854758D
:102400004F79C3F8C075F2B140270722C3F80473AF
:10241000C3F80025097990F90400FFF7ABFC3444B8
:1024200005EB8405012300202B776877BDE8F08158
:102430008B78FF2B4FF0FF379ED14FF0FF3EA4E784
:102440000820BDE8F0810722C3F80025E7E747F040
:102450000607D3E747F00407D0E700BF00090020D4
:102460002DE9F0434479444DE7003E19B60005EBF1
:10247000060E83B09EF81D809DF828C0B8F1000FAD
:1024800074D1AE5916B101268EF81D600C264FF09E
:10249000240E1EFB046E05EB0E083E1945F80E10C7
:1024A00005EB860688F80420C8F8083088F80CC0C8
:1024B00096F821E096F81E8006F120090EF0FC0641
:1024C0006FF38206B8F1FF0F89F8016006D001268C
:1024D0004FF0A04E06FA08F6CEF80C6521B101F0D7
:1024E0006046B6F1005F25D123B103F06046B6F136
:1024F000005F1FD106680020C6F84415C6F84825BD
:10250000C6F83435C6F838C5C6F81801D6F81831FB
:10251000019301223B190199C6F85005C6F8400500
:10252000326155F8233073B14023C6F8043303B049
:10253000BDE8F0833C4405EB840500236B77102055
:1025400003B0BDE8F083D6F81831002BFBD03C4433
:1025500005EB8405AB7FFF2B0CD001224FF0A0418F
:1025600002FA03F3C1F808350020E9E7112003B0AF
:10257000BDE8F0830020E3E7000900200F4AD2F80D
:102580001831D3B100210E4BC2F81811D2F818112E
:102590009A7F82B0FF2A0191019906D001214FF064
:1025A000A04001FA02F2C0F8082500225A771A72F8
:1025B000D3E90021034802B01047704700300040C3
:1025C0000009002008090020F0B506796F4C76015B
:1025D000A31987B0DD7E002D40F089804D7F1D77E7
:1025E0000B685D1C0CD001254FF0A04705FA03F3E2
:1025F000C7F808350B6803F5E073032547F8235047
:102600004B685F1C06D003F5E0734FF0A045002730
:1026100045F82370037905688F6904EB43131B7F2A
:10262000C5F82475002B46D00F7D4B7D05683B43D4
:10263000C5F86C35D1E900750368C3F80C75C3F8AB
:1026400014550B7D012B7FD0A31905465A600B69E9
:10265000A351EAB10379097F026804EB43131B7F9E
:10266000002B4BD1C2F81C31D2F81C012A68009013
:102670000098C2F84431D2F844212B680192444AB0
:102680000198C3F80423286840F30730FFF772FB72
:102690002B792A6804EB43131B7F5BB30823C2F832
:1026A0000035344400200123E376E0752076A075E0
:1026B000A07607B0F0BD91F814C04D7D076845EADB
:1026C0000C05C7F86C55D1E900C70568C5F8147545
:1026D000C5F80CC50D7D012DB6D18D686F1C3DD0A0
:1026E00005F5E0754FF0A04747F8253036E00820A3
:1026F00007B0F0BD0423C2F80035D2E70023C2F8CA
:102700001031D2F810012A6802900298C2F82031E4
:10271000D2F820012A6803900398C2F82431D2F835
:1027200024012A6804900498C2F84431D2F8442164
:102730002B680592174A0598C3F80423286840F3CC
:102740000730FFF717FBA3E78B685D1C06D003F586
:10275000E0734FF0A045002745F82370CB685D1C5F
:102760000DD001254FF0A04705FA03F3C7F808354F
:10277000CB6803F5E073032547F82350CB68056861
:102780008F68C5F80835C5F810755DE72409002085
:102790008000020010030200F0B404793C4B016891
:1027A00064011A19127F002A6DD00022C1F8002599
:1027B0001A19017955680268B5B103EB4111097F17
:1027C000002963D13349C2F808130268324E120B54
:1027D00051B24909203102F01F02012505FA02F227
:1027E00046F8212001790268D2F80C75D2F81465F8
:1027F00003EB41114FF0FF3C097FB1B3D2F808154C
:10280000D2F81055C2F80CC5C2F814C50268C2F857
:1028100008C5C2F810C57A1C06D007F5E0774FF05E
:10282000A042022042F82700771C06D006F5E07689
:102830004FF0A042022042F82600681C06D005F5A1
:10284000E0754FF0A042022042F825004A1C06D055
:1028500001F5E0714FF0A042022042F8210023442C
:102860000022DA765A60F0BC7047D2F80815D2F828
:102870001055C2F814C5C2F80CC50268C2F808C5E4
:10288000C2F810C5C7E7C1F8002591E703499AE7E8
:10289000240900208402020000E100E0100302008D
:1028A000F0B50379524C5B01E51887B02D7F25B157
:1028B00001F06045B5F1005F58D123449E7D002EA4
:1028C00057D19A7599609E8205796D016219137FBF
:1028D00013BB0168C1F81C31D1F81C610168049672
:1028E0000126049F8E600168D2F808C0C1F81C312F
:1028F000D1F81C310593059B968A938A5768B6B226
:1029000001331CF806609BB29382C1F81C65002F4E
:1029100032D0002007B0F0BD03689168C3F8206191
:10292000D3F8203101930368019FC3F85861D3F8AD
:10293000586103680296967D029FC3F84415C3F858
:1029400048650368012199605368002BE1D1036851
:1029500001E0002949D1D3F82021D3F85811002AE9
:10296000F7D0002914BF0F20002039E0102007B055
:10297000F0BD112007B0F0BD967D938A9E4222D90A
:10298000016804E0938A9BB2B3F5807F03D0D1F84D
:102990001C31002BF6D0938A9BB2B3F5807FECD02C
:1029A000C1F81C71D1F81C310393039BB2F814E0F9
:1029B000938A1FFA8EFE01331CF80EE09BB29382BD
:1029C000C1F81CE5D9E7938A9BB2B3F5807F0CD0A0
:1029D0000268D2F81C31002BFBD00123D360002009
:1029E0002C440023A37507B0F0BD0F20F8E700BF0B
:1029F00024090020F0B5A94C237F8FB0002B73D1A0
:102A0000A74AD2F80413890546D4A54BD3F804236A
:102A1000520704D5D3F80821002A40F0D480A04BF7
:102A2000D3F81C21BAB1A18AA27D8A4200F2B980F2
:102A30000021C3F81C11D3F81C310593059B52B13A
:102A4000A3688DF82810A1750B938DF83020D4E978
:102A500000130AA89847924BD3F84421D2B1002220
:102A6000C3F84421D3F84411A27E04910499002AAA
:102A700040F09480E37D6BB10023617EE268E375F2
:102A800001238DF830108DF828300B92D4E9001313
:102A90000AA898470FB0F0BDD2F824110029B4D08D
:102AA000C2F82431D2F82411A37E07914FF40171AA
:102AB0000798C2F808130BB901235360784A022320
:102AC0008DF82830D2F88034C2F88034E07DE26896
:102AD0000D9300238DF83000E375237621680B9267
:102AE00063680AA898479AE76D4BD3F82421002A17
:102AF00000F097800022C3F82421D3F8241102911A
:102B000002218DF828100299D3F88014C3F880149C
:102B10000D91D3F83C15E3688DF830100B93E275F6
:102B20002276216863680AA898475D4BD3F8442150
:102B3000B2B10022C3F84421D3F84401E17D0190F1
:102B4000019869B1D3F83C35E1688DF83030012344
:102B50000B918DF82830E275D4E900130AA8984744
:102B60004F4BD3F82021002A94D00022C3F8202113
:102B7000D3F82001A17D0090009800298AD0D3F8D5
:102B80004C15A3688DF830100B938DF82820A27592
:102B9000D4E900130AA898470FB0F0BD01221A60CB
:102BA00068E70022C3F81C21D3F81C210692069A7C
:102BB000A18AA28AA06889B20132415C92B2A28243
:102BC000C3F81C1547E7E27D002A54D00022C3F861
:102BD0000821D3F808210892089AE168627ED3F8A8
:102BE00018358B54637EE27D0133DBB26376637EFE
:102BF00093427FF414AF237E2168002B52D0E26809
:102C0000657E2069E3750B9200230122E060237644
:102C100063768DF830508DF8282063680AA89847AD
:102C2000FDE6D3F8101100293FF47FAFC3F810215F
:102C3000D3F8101103910399D3F83C15E07DC9B284
:102C400088427FF472AF257EE768D4E90016DDB1D3
:102C5000D3F800C2E5752CF020052276C3F80052A7
:102C6000012223698DF83000E3600B978DF828204E
:102C70000AA8B04759E7C3F80821D3F80811099109
:102C80000999D3F81835B2E701238DF83000E575BE
:102C90000B978DF828300AA8B04746E72409002092
:102CA00000200040A37E13B90A4B01225A60094A52
:102CB000E06863684FF40175C2F80853627E8DF8CE
:102CC0003020002501220B90E5758DF828200AA8F8
:102CD0009847A4E600200040014B01221A7070477B
:102CE0004509002010B584B04FF0A04304A94FF06F
:102CF00080522C4C01F8010DC3F80C2500220092E3
:102D00002270294B29480122FFF7AAFB08B145E0B0
:102D100020BF2378002BFBD0254B26491A680A23B5
:102D200000BF00BF00BF00BF00BF00BF00BF00BFAB
:102D30008A422FD000BF00BF00BF00BF00BF00BF4E
:102D400000BF00BF00BF00BF00BF00BF00BF00BF8B
:102D500000BF00BF00BF00BF00BF00BF00BF00BF7B
:102D600000BF00BF00BF00BF00BF00BF00BF00BF6B
:102D700000BF00BF00BF00BF00BF00BF00BF00BF5B
:102D800000BF00BF00BF00BF00BF00BF00BF00BF4B
:102D900000BF00BF013BC3D104B010BDFDF760FF11
:102DA000B7E700BF4509002044090020E03B0000D0
:102DB000140000200024F40010B584B04FF0A043AC
:102DC00004A94FF080522C4C01F8010DC3F80825DE
:102DD000002200922270294B29480122FFF740FB74
:102DE00008B145E020BF2378002BFBD0254B2649B6
:102DF0001A680A2300BF00BF00BF00BF00BF00BFAA
:102E000000BF00BF8A422FD000BF00BF00BF00BF7D
:102E100000BF00BF00BF00BF00BF00BF00BF00BFBA
:102E200000BF00BF00BF00BF00BF00BF00BF00BFAA
:102E300000BF00BF00BF00BF00BF00BF00BF00BF9A
:102E400000BF00BF00BF00BF00BF00BF00BF00BF8A
:102E500000BF00BF00BF00BF00BF00BF00BF00BF7A
:102E600000BF00BF00BF00BF013BC3D104B010BD15
:102E7000FDF7F6FEB7E700BF450900204409002032
:102E8000E03B0000140000200024F4002DE9F04F86
:102E90004FF0A0434FF08041DFF8AC91C3F80C1520
:102EA0004CF2503585B0D9F80020654C284600BF5B
:102EB00000BF00BF00BF00BF00BF00BF00BFA242F5
:102EC0002FD000BF00BF00BF00BF00BF00BF00BFCA
:102ED00000BF00BF00BF00BF00BF00BF00BF00BFFA
:102EE00000BF00BF00BF00BF00BF00BF00BF00BFEA
:102EF00000BF00BF00BF00BF00BF00BF00BF00BFDA
:102F000000BF00BF00BF00BF00BF00BF00BF00BFC9
:102F100000BF00BF00BF00BF00BF00BF00BF00BFB9
:102F200000BF0138C3D142F21076C3F8081533460A
:102F300000BF00BF00BF00BF00BF00BF00BF00BF99
:102F4000A2422FD000BF00BF00BF00BF00BF00BF24
:102F500000BF00BF00BF00BF00BF00BF00BF00BF79
:102F600000BF00BF00BF00BF00BF00BF00BF00BF69
:102F700000BF00BF00BF00BF00BF00BF00BF00BF59
:102F800000BF00BF00BF00BF00BF00BF00BF00BF49
:102F900000BF00BF00BF00BF00BF00BF00BF00BF39
:102FA00000BF00BF013BC3D1264B00BF00BF00BF25
:102FB00000BF00BF00BF00BF00BFA2422FD000BFB4
:102FC00000BF00BF00BF00BF00BF00BF00BF00BF09
:102FD00000BF00BF00BF00BF00BF00BF00BF00BFF9
:102FE00000BF00BF00BF00BF00BF00BF00BF00BFE9
:102FF00000BF00BF00BF00BF00BF00BF00BF00BFD9
:1030000000BF00BF00BF00BF00BF00BF00BF00BFC8
:1030100000BF00BF00BF00BF00BF00BF00BF013B3B
:10302000C3D1D720FFF75EFE9F20FFF7C5FEE0204B
:10303000FFF758FE0020FFF7BFFED9F8003005E08B
:103040000024F400C0D401001400002000BF00BF21
:1030500000BF00BF00BF00BF00BF00BFA3422FD012
:1030600000BF00BF00BF00BF00BF00BF00BF00BF68
:1030700000BF00BF00BF00BF00BF00BF00BF00BF58
:1030800000BF00BF00BF00BF00BF00BF00BF00BF48
:1030900000BF00BF00BF00BF00BF00BF00BF00BF38
:1030A00000BF00BF00BF00BF00BF00BF00BF00BF28
:1030B00000BF00BF00BF00BF00BF00BF00BF00BF18
:1030C000013EC3D1E320FFF70DFE44F62063D9F89B
:1030D000002000BF00BF00BF00BF00BF00BF00BF97
:1030E00000BFA2422FD000BF00BF00BF00BF00BF83
:1030F00000BF00BF00BF00BF00BF00BF00BF00BFD8
:1031000000BF00BF00BF00BF00BF00BF00BF00BFC7
:1031100000BF00BF00BF00BF00BF00BF00BF00BFB7
:1031200000BF00BF00BF00BF00BF00BF00BF00BFA7
:1031300000BF00BF00BF00BF00BF00BF00BF00BF97
:1031400000BF00BF00BF013BC3D1E120FFF7CAFDB4
:103150001120FFF7C7FD2820FFF7C4FDD9F8003084
:1031600000BF00BF00BF00BF00BF00BF00BF00BF67
:10317000A3422FD000BF00BF00BF00BF00BF00BFF1
:1031800000BF00BF00BF00BF00BF00BF00BF00BF47
:1031900000BF00BF00BF00BF00BF00BF00BF00BF37
:1031A00000BF00BF00BF00BF00BF00BF00BF00BF27
:1031B00000BF00BF00BF00BF00BF00BF00BF00BF17
:1031C00000BF00BF00BF00BF00BF00BF00BF00BF07
:1031D00000BF00BF013DC3D1C020FFF783FD5320D6
:1031E000FFF7EAFD0120FFF7E7FDC320FFF77AFDB7
:1031F0000220FFF7E1FDC420FFF774FD0620FFF772
:10320000DBFDD020FFF76EFD1D20FFF7D5FDB520BB
:10321000FFF768FD0020FFF7CFFD3920FFF762FDC3
:103220003A20FFF75FFD0220FFF7C6FD3620FFF7CB
:1032300059FD0020FFF7C0FDB020FFF753FD9F2090
:10324000FFF7BAFDB420FFF74DFDA020FFF7B4FD56
:103250003020FFF747FD0020FFF7AEFD0020FFF70D
:10326000ABFD0020FFF7A8FD7720FFF7A5FD20208C
:10327000FFF738FD2A20FFF735FD0020FFF79CFD02
:103280000020FFF799FD0020FFF796FD2A20FFF7A9
:1032900093FD2B20FFF726FD0020FFF78DFD00207A
:1032A000FFF78AFD0020FFF787FD9F20FFF784FDD1
:1032B0002C20FFF717FD3A4B3A4E3B4CDFF8F0B0AD
:1032C00000251D604FF0805ADFF8E88035604FF030
:1032D000A0478DF80F505B46C7F808A5012200955E
:1032E0000DF10F0140462570FFF7BAF808B154E020
:1032F00020BF2378002BFBD00A23D9F800202B49CC
:1033000000BF00BF00BF00BF00BF00BF00BF00BFC5
:103310008A422FD000BF00BF00BF00BF00BF00BF68
:1033200000BF00BF00BF00BF00BF00BF00BF00BFA5
:1033300000BF00BF00BF00BF00BF00BF00BF00BF95
:1033400000BF00BF00BF00BF00BF00BF00BF00BF85
:1033500000BF00BF00BF00BF00BF00BF00BF00BF75
:1033600000BF00BF00BF00BF00BF00BF00BF00BF65
:1033700000BF00BF013BC3D1336801332A2B336048
:10338000A7D9074A136801339F2B13609CD92920C2
:10339000FFF7A8FC05B0BDE8F08FFDF761FCA8E7DA
:1033A0004C09002048090020450900200024F400B1
:1033B00044090020E03B00002DE9F04F074685B0AE
:1033C0002A201C460D461646FFF78CFC0020FFF70E
:1033D000F3FC3846FFF7F0FC0020FFF7EDFC304629
:1033E000FFF7EAFC2B20FFF77DFC0020FFF7E4FC51
:1033F0002846FFF7E1FC0020FFF7DEFC2046FFF740
:10340000DBFC2C20FFF76EFC3A4B3B4E3B4CDFF8CD
:10341000F4B0DFF8F4A000251D604FF08059DFF80C
:10342000EC8035604FF0A047FF238DF80F3001226C
:10343000C7F80895534600950DF10F0140462570D9
:10344000FFF70EF808B151E020BF2378002BFBD026
:103450000A23DBF800202A4900BF00BF00BF00BFDD
:1034600000BF00BF00BF00BF8A422FD000BF00BF17
:1034700000BF00BF00BF00BF00BF00BF00BF00BF54
:1034800000BF00BF00BF00BF00BF00BF00BF00BF44
:1034900000BF00BF00BF00BF00BF00BF00BF00BF34
:1034A00000BF00BF00BF00BF00BF00BF00BF00BF24
:1034B00000BF00BF00BF00BF00BF00BF00BF00BF14
:1034C00000BF00BF00BF00BF00BF00BF013BC3D1B2
:1034D000336801337F2B3360A6D9064A1368013362
:1034E0009F2B13609BD905B0BDE8F08FFDF7B8FBAB
:1034F000ABE700BF4C090020480900204509002027
:103500000024F4001400002044090020E03B0000E7
:1035100030B585B0FDF786FB0020FDF7CDF808B18A
:10352000FDF79EFBFCF7B2FF1A4B0FCB6C4684E80D
:103530000F001F2241F6045021464FF0805503240E
:103540008DF80320ADF800000023134A13480295BC
:103550008DF80C40FEF7D6FE08B1FDF781FB4FF069
:10356000A04303224FF080504FF08041C3F808057C
:10357000C3F87027C3F80C15C3F87827FFF786FC4B
:103580004023282230210A20FFF716FF002005B033
:1035900030BD00BFD03B0000D92C0000E03B000054
:1035A0000649074A074B9B1A03DD043BC858D05015
:1035B000FBDC00F013F8FCF743FE00002C3D00009C
:1035C000000000202C020020FEE7FEE7FEE7FEE7F9
:1035D000FEE7FEE7FEE7FEE7FEE7FEE730B4AF4BAF
:1035E0001B78062B1BD0AE4AD2F8883043F4700308
:1035F000C2F88830BFF34F8FBFF36F8F4FF01023A7
:10360000D3F80022002AC0F27381D3F80432002BD1
:10361000C0F26E81A34BA44A1A6030BC7047A34B22
:103620001B681D07DFD1A24B1B6803F0F002302A94
:1036300000F08E8003F0E003402B00F089809C4B6B
:103640001B6803F0F003302B00F0FB80984B1B68E5
:1036500003F0F002302A46D003F0E003402B42D0C2
:10366000934B1B6803F0F003302B00F0F880904B75
:103670001B6803F0F002302A56D003F0E003402B21
:1036800052D08B4B1B6803F0F003302B00F0F78017
:10369000874B1B6803F0F003302B69D0844B1B6809
:1036A00003F0F003502B7AD0814B1B6803F0F0023B
:1036B000302A28D003F0E003402B24D07C4B1B6839
:1036C00003F0F002302A03D003F0E003402B8AD14C
:1036D0004FF08043D3F80024D20744BF6FF00102BB
:1036E000C3F800247FE7734B6C4A1B681278724959
:1036F000C3F34233062A0B6048D16C4B1B68190791
:103700007FF471AFACE76D4A644B12681B786C496B
:1037100002F04F02062B0A607FF465AF634B1B6813
:1037200019077FF460AFC9E74FF080430022C3F868
:103730000C21C3F81021C3F83825584B1B78062BF1
:103740007FF451AF594B1B681B077FF44CAF98E7D0
:103750005C4B524A1B6812785B49C3F30423062A68
:103760000B60EAD1514B1B681C077FF43CAF66E746
:10377000564C4A4A564912785648574B05252560FB
:1037800001250D6000243F2104601960062A7FF4A2
:103790002AAF464B1B681C077FF425AF7EE74FF02E
:1037A00080534E4AD3F80414C2F82015D3F80814F5
:1037B000C2F82415D3F80C14C2F82815D3F8101445
:1037C000C2F82C15D3F81414C2F83015D3F8181415
:1037D000C2F83415D3F81C14C2F84015D3F82014DD
:1037E000C2F84415D3F82414C2F84815D3F82814A5
:1037F000C2F84C15D3F82C14C2F85015D3F8301475
:10380000C2F85415D3F83414C2F86015D3F838143C
:10381000C2F86415D3F83C14C2F86815D3F8401404
:103820001E48C2F86C15D3F844140378C2F870151A
:10383000062B7FF4D8AE1D4B1B6818077FF4D3AE60
:1038400032E7164B264A1B7826491160062B7FF477
:10385000CAAE164B1B6818077FF4C5AEF6E62249C0
:103860000E4BCA681B7822F08072062BCA607FF468
:10387000BAAE0E4B1B681A077FF4B5AEF7E6074BDE
:103880001A4A1B780321062B11607FF4ACAE074B5C
:103890001B681D077FF4A7AEFAE600BFE00F00F03B
:1038A00000ED00E0140000200090D003E40F00F0D1
:1038B000E80F00F0440200103C05004058020010E0
:1038C000E40E004024030010403501401056004033
:1038D00088560040185600401456004000C0004072
:1038E00074C007400DF0ADBAF0ED00E0A005004057
:1038F000184B0122C3F80425D3F80024002AFBD07A
:103900004FF0102315221349C3F80022D1F80034D8
:10391000002BFBD04FF0102215210E4BC2F80412E1
:10392000D3F80024002AFBD000220A49C3F804255A
:10393000D1F80034002BFBD0BFF34F8F0649074B63
:10394000CA6802F4E0621343CB60BFF34F8F00BF3D
:10395000FDE700BF00E0014000ED00E00400FA05D3
:1039600008B5074B044613B10021AFF30080054BA7
:103970001868836A03B19847204600F071F800BFC9
:1039800000000000E83B000070B50D4E0D4CA41B7C
:10399000A4100025A54209D10B4E0C4C00F062F892
:1039A000A41BA4100025A54205D170BD56F82530F2
:1039B00098470135EEE756F8253098470135F2E78C
:1039C000E8010020E8010020E8010020EC010020CF
:1039D000044B054A1B681B6A002B08BF1346D3F82B
:1039E000EC007047180000207C00002082B001B974
:1039F00001A942B14BB113780B601278101C18BFAB
:103A0000012002B070471046FBE76FF00100F8E7B5
:103A100010B5431E0A44914200D110BD11F8014B6C
:103A200003F8014FF7E702440346934200D1704781
:103A300003F8011BF9E7034613F8012B002AFBD119
:103A4000181A0138704749B1FF2A85BF8A230360DD
:103A50000A704FF0FF3098BF01207047084670474A
:103A6000FEE700BFF8B500BFF8BC08BC9E46704733
:103A7000F8B500BFF8BC08BC9E467047FFFFFFFFCB
:103A8000FFFFFFFFFFFFFFFFFFFFFFFF0000000042
:103A9000000000000000D60107010000F103000053
:103AA000A9030000A5030000B0060020780700204D
:103AB00080070020B8060020180000006170700028
:103AC000083B0000283B0000303B0000383B000072
:103AD000403B0000483B0000503B0000583B0000CA
:103AE000603B0000202530327800000020202000BC
:103AF0007C00000025630000257300003C25733E18
:103B00002025733A200000001B5B306D0000000090
:103B10000D0A000000000000683B0000703B000040
:103B2000783B0000803B00001B5B313B33306D0075
:103B30001B5B313B33316D001B5B313B33326D001E
:103B40001B5B313B33336D001B5B313B33346D000A
:103B50001B5B313B33356D001B5B313B33366D00F6
:103B60001B5B313B33376D006572726F7200000072
:103B70007761726E696E6700696E666F00000000A3
:103B80006465627567000000466174616C2065724F
:103B9000726F720053797374656D2072657365740A
:103BA0000000000062616C6C6F63000030313233E2
:103BB0003435363738394142434445466770696F7A
:103BC0007465000073706900756172740000000014
:103BD000FFFFFFFF07FF00000000004000000000A3
:103BE00000300040030001001C0000204300504F43
:103BF000534958002E000020202020202020202083
:103C0000282828282820202020202020202020208C
:103C100020202020202020881010101010101010BC
:103C20001010101010101004040404040404040400
:103C30000410101010101010414141414141010188
:103C40000101010101010101010101010101010164
:103C50000101101010101010424242424242020272
:103C60000202020202020202020202020202020234
:103C700002021010101020000000000000000000E0
:103C80000000000000000000000000000000000034
:103C90000000000000000000000000000000000024
:103CA0000000000000000000000000000000000014
:103CB0000000000000000000000000000000000004
:103CC00000000000000000000000000000000000F4
:103CD00000000000000000000000000000000000E4
:103CE00000000000000000000000000000000000D4
:0C3CF000000000000000000000000000C8
:103CFC00BC3A000000000300A43B000000000000E0
:103D0C00BC3B000000000000C43B000000000000B1
:083D1C00C83B0000000000009C
:083D24001CC5FF7F0100000037
:103D2C0000200040000000009C3A00000000000051
:103D3C00000000000090D0031C00002000000000D8
:103D4C000000000000000000000000000000000067
:103D5C000000000000000000000000000000000057
:103D6C000000000000000000000000000000000047
:103D7C000000000000000000000000000000000037
:103D8C000000000000000000000000000000000027
:103D9C0000000000000000000000000043000000D4
:103DAC000000000000000000000000000000000007
:103DBC0000000000000000000000000043000000B4
:103DCC0000000000000000000000000000000000E7
:103DDC000000000000000000000000004300000094
:103DEC0000000000000000000000000000000000C7
:103DFC000000000000000000000000004300000074
:103E0C0000000000000000000000000000000000A6
:103E1C000000000000000000000000004300000053
:103E2C000000000000000000000000000000000086
:103E3C000000000000000000000000004300000033
:103E4C000000000000000000000000000000000066
:103E5C000000000000000000000000004300000013
:103E6C000000000000000000000000000000000046
:103E7C00000000000000000000000000473A0000B5
:103E8C00ED39000000000000F63B0000F43B0000A0
:103E9C00F53B0000F53B0000F53B0000F53B000056
:103EAC00F53B0000F53B0000F53B0000F53B000046
:103EBC00F53B0000FFFFFFFFFFFFFFFFFFFFFFFFD2
:103ECC00FFFF00000100415343494900000000007E
:103EDC0000000000000000000000000000000000D6
:103EEC00000000000000415343494900000000005D
:103EFC0000000000000000000000000000000000B6
:103F0C00000000000000000025020000010200007B
:103F1C000000000000000000000000000000000095
:103F2C000000000000000000000000000000000085
:103F3C000000000000000000000000000000000075
:0C3F4C0000000000000000000000000069
:04000003000035A123
:00000001FF
