:020000022000DC
:1030000000000120196C0200416C0200436C0200B8
:10301000456C0200476C0200496C02000000000091
:103020000000000000000000000000004B6C0200E7
:103030004D6C0200000000004F6C0200516C020059
:103040005D4B0200536C02006D560200C955020030
:1030500019560200536C020099500200536C020092
:10306000536C0200536C0200536C0200536C02005C
:10307000536C0200536C0200536C0200536C02004C
:10308000536C0200993C0200536C0200536C020026
:10309000393D0200536C020019700200536C0200AB
:1030A000536C0200536C0200536C0200536C02001C
:1030B000536C0200536C020000000000000000008E
:1030C000536C0200536C0200536C0200536C0200FC
:1030D000536C0200536C0200536C020000000000AD
:1030E00000000000000000000000000000000000E0
:1030F00000000000000000000000000000000000D0
:1031000000000000000000000000000000000000BF
:1031100000000000000000000000000000000000AF
:10312000000000000000000000000000000000009F
:10313000000000000000000000000000000000008F
:10314000000000000000000000000000000000007F
:10315000000000000000000000000000000000006F
:10316000000000000000000000000000000000005F
:10317000000000000000000000000000000000004F
:10318000000000000000000000000000000000003F
:10319000000000000000000000000000000000002F
:1031A000000000000000000000000000000000001F
:1031B000000000000000000000000000000000000F
:1031C00000000000000000000000000000000000FF
:1031D00000000000000000000000000000000000EF
:1031E00000000000000000000000000000000000DF
:1031F00000000000000000000000000000000000CF
:10320000044B05481B1A062B02D9044B03B118477F
:10321000704700BFF7210020F421002000000000CB
:1032200005490648091A891001EBD171491002D0ED
:10323000034B03B118477047F4210020F42100200C
:103240000000000010B5064C237843B9FFF7D8FF03
:10325000044B13B10448AFF300800123237010BD69
:1032600078220020000000008879020008B5084B91
:103270001BB108480849AFF300800848036813B938
:10328000BDE80840CCE7064B002BF9D09847F7E79C
:1032900000000000887902007C220020F02100203C
:1032A00000000000134B002B08BF114B9D46A3F5F7
:1032B000803A00218B460F461148124A121A03F039
:1032C00070FF0D4B002B00D098470C4B002B00D00B
:1032D00098470020002104000D000B4803F002FF76
:1032E00003F02EFF2000290002F040FB03F000FF56
:1032F00000000800000001200000000000000000A5
:1033000078220020282C0020197102002DE9F04FAE
:10331000874C626823689A4285B042D00023C4F883
:103320001834BFF34F8F6068A56805EA00030233C5
:1033300004EB8302111D127912F0030F024610D123
:103340000B884988C3F3891303EB911301331A44A3
:1033500002EA0503023304EB8306311D3679B60712
:10336000EED004EB8303511C5B680193294004EB0E
:10337000810103F00303C9680291022B02F10208E4
:103380006B4F12D0012B6DD0032B06D02368181A77
:1033900018BF012005B0BDE8F08FD7F81834002B16
:1033A000F4D1002005B0BDE8F08FBDF806306148CB
:1033B000C3F38919B9F1500FCA46A8BF4FF0500A9C
:1033C0006AF38F130AF10801ADF8063001F0B2F983
:1033D0000646002800F0878025EA080B0BF1010B58
:1033E00001F0EEF94FEA8B0B304601A908220023C9
:1033F00001F01CFADA4540F28E80BBF1000F74D167
:1034000007F10C0152463046082301F00FFA09F18A
:10341000030708EB9707D4F81834DFF81481D4F8C1
:103420001054002B59D14DB16B7A2846314613B157
:103430002B681B6898476D68002DF5D1304601F068
:10344000CFF904A8002300F80D3D01F0EFF8D4F8FF
:103450001834374A03B957609DF8030001F00EF99C
:10346000606893E7BDF804303248C3F38312062A3C
:1034700028BF0622911C62F389138900ADF804303D
:1034800001F058F9064670B301F09AF9002330466E
:1034900001A9082201F0CAF9BDF8043013F4707FC5
:1034A00044D04FF0000A4FF0080908EA050104EB88
:1034B00081014B460C313046042201F0B7F9BDF8CA
:1034C00004300AF1010AC3F3831308F101075345DD
:1034D00009F10409B846E8D89DE7304601F080F9C3
:1034E000D8F8040052E7786850E708EA050107EBCE
:1034F0008101CBEB0A0530465A460C31EDB2082368
:1035000001F094F930462A4607F10C010BF108034B
:1035100001F08CF97BE708EA050107EB81010C312A
:1035200052463046082301F081F970E7474672E7BA
:1035300094220020607302002DE9F04F89B008AB9F
:1035400000265B4C03F80D6D02901846A3680391AA
:10355000019301F06BF8A5686168D4F800806B18DE
:103560000133C8EB0303032B5ED805F10109B6460E
:10357000C8EB090904F5836C04F214470126A2463E
:103580005CE8003F43EA06024CE8002090F0000FA0
:10359000F6D157E8003F43EA060247E8002090F0E2
:1035A000000FF6D101EA0503023304EB8302101D7C
:1035B000127912F0030F0A4613D103884088C3F32F
:1035C000891303EB901301331A4402EA0503023313
:1035D00004EB830B0BF104009BF804B01BF0030F0A
:1035E000EBD004EB830302325B68059303F0030323
:1035F000012B57D0022B06D1BDF81630C3F3891327
:10360000033302EB930257E8003F03EA0E0047E85A
:10361000000B9BF0000FF6D113B1CAF8042011463D
:1036200009EB0103032BABD905EA0803023304EBD2
:1036300083039DF813001A7942F003021A7123687C
:103640000233236001F01AF8019B029D08F1010288
:103650001A4008EA030304EB8202023304EB8303FB
:10366000290CD1601A79C5F3001161F3820265F368
:10367000C5021A719A886FF389129A805A68039961
:1036800061F39F221146012060F301015A60197114
:1036900094F81C341BB1FFF739FE0028FBD109B0A8
:1036A000BDE8F08FBDF81430C3F383131A44AAE7C2
:1036B000942200202DE9F04F89B008AB00265F4C22
:1036C00003F80D6D01901846A368029100930392D0
:1036D00000F0ACFFA5686168D4F800806B18013376
:1036E000C8EB0303042B5ED805F10109B646C8EB0D
:1036F000090904F5836C04F214470126A2465CE82C
:10370000003F43EA06024CE8002090F0000FF6D19B
:1037100057E8003F43EA060247E8002090F0000F18
:10372000F6D101EA0503023304EB8302101D12797E
:1037300012F0030F0A4613D103884088C3F389139C
:1037400003EB901301331A4402EA0503023304EB3E
:10375000830B0BF104009BF804B01BF0030FEBD0BC
:1037600004EB830302325B68059303F00303012B30
:103770005ED0022B06D1BDF81630C3F38913033394
:1037800002EB930257E8003F03EA0E0047E8000B04
:103790009BF0000FF6D113B1CAF80420114609EBD3
:1037A0000103042BABD905EA0803023304EB8303BE
:1037B0009DF813001A7942F003021A71236803334B
:1037C000236000F05BFF009B019D039E08F1020156
:1037D00008F1010219401A4008EA030304EB8101D1
:1037E00004EB8202023304EB8303280CCE60D0602A
:1037F0001A79C5F3001161F3820265F3C5021A71EB
:103800009A88012060F389129A805A68029961F3BC
:103810009F22114660F301015A60197194F81C341B
:103820001BB1FFF773FD0028FBD109B0BDE8F08F95
:10383000BDF81430C3F383131A44A3E79422002085
:103840002DE9F04F8BB00AAD0026644C05F80D6DE4
:10385000029005932846A36803910193049200F017
:10386000E5FEA5686168D4F800806B180133C8EBE9
:103870000303052B5ED805F10109B646C8EB09091B
:1038800004F5836C04F214470126A2465CE8003F6D
:1038900043EA06024CE8002090F0000FF6D157E80A
:1038A000003F43EA060247E8002090F0000FF6D1FF
:1038B00001EA0503023304EB8302101D127912F0B2
:1038C000030F0A4613D103884088C3F3891303EB1F
:1038D000901301331A4402EA0503023304EB830B0D
:1038E0000BF104009BF804B01BF0030FEBD004EBCA
:1038F000830302325B68079303F00303012B66D056
:10390000022B06D1BDF81E30C3F38913033302EB3B
:10391000930257E8003F03EA0E0047E8000B9BF0D4
:10392000000FF6D113B1CAF80420114609EB0103C8
:10393000052BABD905EA0803023304EB83039DF89A
:103940001B001A7942F003021A71236804332360C2
:1039500000F094FE019B029E049F08F102001840B3
:1039600008F1030108F1010219401A4004EB80003C
:1039700008EA030304EB810104EB82020233C7600F
:1039800004EB83030598C860350CD5601A79C6F33B
:10399000001161F3820266F3C5021A719A8802214E
:1039A00061F389129A805A68039961F39F22114644
:1039B000012060F301015A60197194F81C341BB1A5
:1039C000FFF7A4FC0028FBD10BB0BDE8F08FBDF8D9
:1039D0001C30C3F383131A449BE700BF94220020DA
:1039E00038B5084BD3F81044012583F81C543CB17A
:1039F0002368657220465B6898476468002CF7D19D
:103A000038BD00BF9422002070B5084D2B785BB103
:103A1000074E00243368012113F8340001F0AAFA9C
:103A20002B780134A342F5D8002070BD88270020F0
:103A30008427002070B5094D2B7853B1084E00241F
:103A4000336813F8340001F0F7FA2B780134A342FD
:103A5000F6D80448BDE8704000F0ACBD88270020CF
:103A6000842700208C27002000B585B00023039018
:103A7000194644F2010001AAADF80430029300F0A7
:103A800003F805B05DF804FB10B5FFF7A9FFFFF7D9
:103A90003DFC0028FBD1104C10492088000440F068
:103AA0000100FFF749FD0E4B1B68DB0700D5FFDE69
:103AB00020880C49000440F00200FFF73DFDBFF3F1
:103AC0004F8F0949094BCA6802F4E0621343CB6087
:103AD000BFF34F8F00BFFDE7F42100207473020095
:103AE000F0ED00E08073020000ED00E00400FA0554
:103AF00012F0030301D0072070472DE9F0414C1C60
:103B00000546DFF83C800B480B4F0C4EDFF834C005
:103B1000DFF834E088F80030E400A4B21444037005
:103B20003D803180CCF80040CEF800201846BDE83A
:103B3000F08100BFB6270020B4270020B82700205E
:103B4000B7270020B0270020AC2700202DE9F04740
:103B50002C4D2B888B4282B00C4603D2092002B038
:103B6000BDE8F087064602A84FF0000800F8018D76
:103B7000174600F05BFD244B244A2548197813783A
:103B80000088DBB2834238BF0133C9B238BF5FFA65
:103B900083F841451FD092F800801378DFF87890C1
:103BA000DBB283423ABF0133DBB200235FFA88F80D
:103BB0009DF80700137000F061FDD9F800300FFA8E
:103BC00088F24FEAC20A43F83270534406B144B94E
:103BD00000209880C3E79DF8070000F04FFD042007
:103BE000BDE70C4B28881B68314600FB0830224695
:103BF00003F0CCFAD9F800309A440020AAF8044027
:103C0000ADE700BFB4270020B6270020B72700206B
:103C1000B8270020B0270020AC2700202DE9F0476E
:103C2000174F184C3A7823789A4226D0DFF85C90E8
:103C3000DFF85C80144EDFF85CA03B78D9F80020F8
:103C40003088D8F80050DBB20FFA83FC02EBCC01CD
:103C500000FB0350898852F83C3098473B78BAF80B
:103C60000020DBB29A4203F101038CBFDBB20023D8
:103C70003B703A7823789A42DFD1BDE8F08700BFE5
:103C8000B6270020B7270020B4270020AC2700204B
:103C9000B0270020B8270020F8B5204A204B002587
:103CA000C2F84051C2F84451C2F84851C2F84C51D0
:103CB000C2F80051C2F804511B6813B31949D2F875
:103CC00004250C68141B1A6824F07F44A2422F4676
:103CD00009D8197CDE69A41A154499B91EB1334676
:103CE0001A68A242F5D9104B10491A780B789A42FB
:103CF0000DD00F490F4A41F823504FF48013C2F8FA
:103D00000031F8BD1F745A6998699047E6E7531C63
:103D1000DBB2022B08BF00230B70EAE70010014062
:103D2000C0270020BC270020C4270020C527002072
:103D3000D428002000E100E02DE9F04F7D4A7E49C3
:103D4000137809787D48994287B0066800F0E881C9
:103D50000133DBB2022B08BF002379491370794A83
:103D60000291084652F82310036874488A19002506
:103D700022F07F420260AE462846A3B11A688A420A
:103D800000F2D681DC68C3F800E0891A1044DA69D1
:103D900034B1871927F07F47DD619C605F601D4665
:103DA0001346002BEAD1029A04931360049C01236A
:103DB0000593654BDFF894811B780193029BDFF834
:103DC00090C11F685D4BBB46D3F800A02F4600236F
:103DD0000093C1461E464FF0010E37B37A68B968AA
:103DE0003D46FF69CAEB020323F07F4363453CD89D
:103DF0000B442B606E60AE6085F810E0EE61002C25
:103E000067D021688B4242D9204603E0116899426D
:103E100044D21046C2695B1A002AF7D12B60EA61CE
:103E20002346C5611C46002FD8D198F8003098F879
:103E300001209A4200F08E805A1C03EB430308EBEA
:103E4000C30399F802109D68D2B2914289F800200C
:103E50001A7908BF89F80070022A48D0032A3CD09A
:103E6000012A22D023461C46DDE7C2EB0A0222F0DB
:103E70007F428A4202D28B1A2B60BBE72E606E60B3
:103E8000AE6085F810E0EE611CB321680023CB1A08
:103E900023602B46EC61AB461C46C4E7C91A11608F
:103EA0002B60EA612346C561BCE72A7C0392002AA5
:103EB000D8D1DA686A601969A9605869E860103376
:103EC0009B68AB61019B002B8CD0039B6B601A46F7
:103ED00088E72B46AB461C46A5E70CB9C2E71C4653
:103EE000E3692674002BFAD19B461C469BE754B12C
:103EF000A54200F00881234602E0954207D0134610
:103F0000DA69002AF9D123462E741C468BE7AB42AE
:103F100000F0FA80E9692868D9610029F3D02346C6
:103F20000A6802440A60009A2E749C4218BF01225B
:103F30000092EAE7C4270020C5270020BC27002004
:103F4000C0270020D4280020C6270020C827002032
:103F5000FEFF7F00029B9DF80420C3F800B0764B63
:103F6000C3F800A0754B1A70009B1BB9049BA342B9
:103F700000F0D081002C00F03C81714D6E4BD5F8E3
:103F800004051B686F4ED4F800C03178C21A22F0C5
:103F90007F420332002952D16B4FDFF8B091DFF836
:103FA000B0814FF480314FF4003E0124C5F8441332
:103FB000C5F80413C7F880E1C7F800E02C602F2192
:103FC000D9F8005000BF00BF00BF00BF00BF00BF56
:103FD00000BF00BF45452FD000BF00BF00BF00BFDE
:103FE00000BF00BF00BF00BF00BF00BF00BF00BFD9
:103FF00000BF00BF00BF00BF00BF00BF00BF00BFC9
:1040000000BF00BF00BF00BF00BF00BF00BF00BFB8
:1040100000BF00BF00BF00BF00BF00BF00BF00BFA8
:1040200000BF00BF00BF00BF00BF00BF00BF00BF98
:1040300000BF00BF00BF00BF0139C3D1347062456B
:104040002CBF9A1803EB0C023D4922F07F43C1F8C4
:104050004035D1F80425121A1B1A22F07F4223F0B2
:104060007F4303329A4248D9D1F80435374AC1F820
:104070004035126836492F2300BF00BF00BF00BF84
:1040800000BF00BF00BF00BF8A422FD000BF00BFEB
:1040900000BF00BF00BF00BF00BF00BF00BF00BF28
:1040A00000BF00BF00BF00BF00BF00BF00BF00BF18
:1040B00000BF00BF00BF00BF00BF00BF00BF00BF08
:1040C00000BF00BF00BF00BF00BF00BF00BF00BFF8
:1040D00000BF00BF00BF00BF00BF00BF00BF00BFE8
:1040E00000BF00BF00BF00BF00BF00BF013BC3D186
:1040F000154B4FF40032C3F80021104A002313700F
:1041000007B0BDE8F08F2246D4F81CB0BBF1000F19
:1041100022D0D16910685B4600297FF401AF02E725
:104120000C4B02931B680493002505951C4640E642
:10413000521A1A6037E600BFBC270020C6270020AD
:1041400000100140DC28002000E100E08421002074
:104150000024F400C02700207549764BC1F808E020
:1041600075492F20096800BF00BF00BF00BF00BF16
:1041700000BF00BF00BF99422FD000BF00BF00BFEB
:1041800000BF00BF00BF00BF00BF00BF00BF00BF37
:1041900000BF00BF00BF00BF00BF00BF00BF00BF27
:1041A00000BF00BF00BF00BF00BF00BF00BF00BF17
:1041B00000BF00BF00BF00BF00BF00BF00BF00BF07
:1041C00000BF00BF00BF00BF00BF00BF00BF00BFF7
:1041D00000BF00BF00BF00BF00BF0138C3D1D1691D
:1041E0001068002900F09B800122DA465B460192AC
:1041F00096E64F4A514B504E4E484FF480314FF4A3
:1042000000370125C3F88070C2F848132F23C2F885
:104210000813556031681E4600BF00BF00BF00BFD5
:1042200000BF00BF00BF00BF81422FD000BF00BF52
:1042300000BF00BF00BF00BF00BF00BF00BF00BF86
:1042400000BF00BF00BF00BF00BF00BF00BF00BF76
:1042500000BF00BF00BF00BF00BF00BF00BF00BF66
:1042600000BF00BF00BF00BF00BF00BF00BF00BF56
:1042700000BF00BF00BF00BF00BF00BF00BF00BF46
:1042800000BF00BF00BF00BF00BF00BF013EC3D1E1
:1042900095602B4A146000BF00BF00BF00BF00BF85
:1042A00000BF00BF00BF81422FD000BF00BF00BFD2
:1042B00000BF00BF00BF00BF00BF00BF00BF00BF06
:1042C00000BF00BF00BF00BF00BF00BF00BF00BFF6
:1042D00000BF00BF00BF00BF00BF00BF00BF00BFE6
:1042E00000BF00BF00BF00BF00BF00BF00BF00BFD6
:1042F00000BF00BF00BF00BF00BF00BF00BF00BFC6
:1043000000BF00BF00BF00BF00BF013BC3D10D4BCA
:104310001C70F2E6059B002B3FF4EFAE2AE601236A
:104320001A4601938A468B460B4600922E74ECE5A2
:10433000001001400024F4008421002000E100E08E
:10434000BC270020DC2800202DE9F041594B5A4AB7
:104350005A4D5B4E4FF480344FF400310120C2F8C7
:104360008010C3F848432F21C3F8084358602D68D4
:104370000C4600BF00BF00BF00BF00BF00BF00BFB2
:1043800000BFB5422FD000BF00BF00BF00BF00BFBD
:1043900000BF00BF00BF00BF00BF00BF00BF00BF25
:1043A00000BF00BF00BF00BF00BF00BF00BF00BF15
:1043B00000BF00BF00BF00BF00BF00BF00BF00BF05
:1043C00000BF00BF00BF00BF00BF00BF00BF00BFF5
:1043D00000BF00BF00BF00BF00BF00BF00BF00BFE5
:1043E00000BF00BF00BF013CC3D1364C9860002025
:1043F000206000BF00BF00BF00BF00BF00BF00BF04
:1044000000BFB5422FD000BF00BF00BF00BF00BF3C
:1044100000BF00BF00BF00BF00BF00BF00BF00BFA4
:1044200000BF00BF00BF00BF00BF00BF00BF00BF94
:1044300000BF00BF00BF00BF00BF00BF00BF00BF84
:1044400000BF00BF00BF00BF00BF00BF00BF00BF74
:1044500000BF00BF00BF00BF00BF00BF00BF00BF64
:1044600000BF00BF00BF0139C3D1174D1749DFF8A6
:104470006080DFF860C0DFF860E028704FF48016DD
:10448000E0250B27C8F800008CF800008EF800002B
:10449000087048708F70C2F8806182F814531660FB
:1044A000C3F8080582F81153D3F804352360BDE83A
:1044B000F08100BF0010014000E100E084210020F5
:1044C0000024F400BC270020DC280020C82700209E
:1044D000C0270020C4270020C5270020074B9B7859
:1044E0000BB9082070473AB130B10368187C002836
:1044F000F7D159745A61704707207047C8270020C8
:104500002DE9F043284CA37883B01BB9082003B0F1
:10451000BDE8F0830028F9D0042903D8072003B0B0
:10452000BDE8F0834369002BF0D0064602A8737CF7
:104530000025012B00F8015D0CBF8946A946904675
:104540000F4600F073F86378A07821785A1CD2B235
:10455000904208BF2A4691421FD003EB430304EB6D
:10456000C30319464FF0010E41F8086F0F4883F856
:1045700004E0D0F804654E608F609DF80700C3F832
:104580001490C3F81880627000F078F8084B4FF46C
:1045900080122846C3F80021B9E79DF8070000F013
:1045A0006DF80420B3E700BFC827002000100140C9
:1045B00000E100E070B51B4CA37882B013B908206D
:1045C00002B070BD0028FAD04369002BF7D0064630
:1045D00002A8002500F8015D357400F027F8627824
:1045E000A0782178531CDBB2984208BF2B46994231
:1045F00012D002EB420204EBC20202219DF8070036
:1046000096601171637000F039F8074B4FF4801217
:104610002846C3F80021D3E79DF8070000F02EF8E4
:104620000420CDE7C827002000E100E0F0B4EFF35C
:10463000108472B60E4B9A68B2B90E4901259D607E
:10464000D1F880700C4D2E463D401D60C1F8806051
:10465000D1F884505D604FF0FF33C1F884300270B0
:1046600004B962B6F0BC704701230370F8E700BFDD
:104670001C2C002000E100E0FC06FFBD094B9A68FD
:1046800072B168B910B4EFF3108272B606491C68B3
:104690000C605C684C60986002B962B65DF8044BCF
:1046A000704700BF1C2C002000E100E070B582B014
:1046B00002AB002503F8015D04461846FFF7B6FF7C
:1046C000236861681A688A4210D9511E19602168EE
:1046D000A3680E68087912F8015C228AE4689B1BC3
:1046E000DBB2984205FB024538BF0B719DF807000D
:1046F000FFF7C4FF284602B070BD00BF30B583B0DD
:1047000002AB002203F8012D054618460C46FFF7C0
:104710008DFF2A681368591C1160E9682A8A641A97
:10472000B4FBF2F41C709DF80700FFF7A7FF03B07D
:1047300030BD00BF2DE9F041B0F81080A8F10408A9
:104740004144CF1C0646FFF7B1FFB7FBF8F704461C
:1047500078B3FFB200250123013FA0F80680066070
:104760000571437128D0804609E06379AF4203F1B7
:1047700001036371C8F80000066080461CD0304613
:10478000FFF794FF01350028EFD16679721E2346AA
:1047900003D0013082421B68FBD81F684EB1002550
:1047A00023682146013538461C46FFF7A7FFAE4275
:1047B000F6D10020BDE8F0812046BDE8F08100BFC1
:1047C00010B40430012350E8002F02EB030140E84D
:1047D000001494F0000FF6D15DF8044B704700BF51
:1047E0000146021DF8B5012052E8004FA4EB00037A
:1047F00042E8003595F0000FF6D113F0FF0300D02A
:10480000F8BD4E79701E0A4603D0013398421268F3
:10481000FBD81768002EF3D000240D680134384609
:10482000FFF76CFFA6422946F7D1F8BD2DE9F0410C
:104830000446181DE688B0FBF6F30F46154606FB46
:10484000130013B1013B2468FCD1321AAA4228BFDD
:104850002A468DB14FF000082044AD1A07EB08013D
:104860000430904402F092FCB5422A46246828BFE6
:1048700032460020002DEFD1BDE8F08101600B68C9
:1048800043604A68934204BF00234360704700BFFF
:10489000426842B101688B68134443604A6893429E
:1048A00004BF00234360704710B40023012401E0DB
:1048B000202B0AD004FA03F2024299B203F1010359
:1048C000F6D008465DF8044B70474FF6FF705DF870
:1048D000044B704790B189B130B40238002402E033
:1048E0000134202C09D030F8025F9542F8D133B161
:1048F0000A680123A34013430B6030BC70470B6868
:104900000122A24023EA02030B6030BCF6E700BF9D
:1049100070B49DF80C60B8B1B1B1AAB102380024EE
:1049200002E00134202C0FD030F8025F9D42F8D114
:104930000120A04001EB820246B9C0430B6803404E
:1049400041F8043B9142F9D170BC70470B680343B6
:1049500041F8043B9142F7D00B68034341F8043B14
:104960009142F3D1F0E700BFF0B491B100252B469E
:10497000012606FA03F4144205D000EB450431F891
:104980001370A78001350133202BF2D10560F0BCF4
:1049900070470D460560F0BC704700BF00B170471E
:1049A00010B5064CA3683BB11A68A2605B68002092
:1049B0009847A368002BF7D110BD00BFE028002066
:1049C00010B5012882B02AD023D303281FD100209C
:1049D000072100F005F902A80023264C00F8013D4C
:1049E000FFF724FEE368013BE360E3685BB9224B19
:1049F00001221A604FF08042D2F81834C3F300430A
:104A0000002BF9D1A3709DF80700FFF737FE02B025
:104A100010BD1A4B0122C3F8802002B010BD02A8BD
:104A20000023144C00F8013DFFF700FE237893B9F2
:104A3000124A6360A3602361E360106810F0010014
:104A400014D002F0E3FA20B94FF080430122C3F8FA
:104A5000182501232370E3689DF807000133012224
:104A6000E360A270FFF70AFE02B010BD072100F05C
:104A7000B7F8E6E7E02800200C00004000E100E085
:104A800010B50E4C23780BB1852010BD0C4A636025
:104A9000E3601068A36010F00100236102D10721D8
:104AA00000F09EF802F0B2FA20B94FF080430122E4
:104AB000C3F8182501232370002010BDE028002032
:104AC00000E100E030B5224DAB7883B0044603F03E
:104AD000FF0293B110B143680120984702A8002358
:104AE00000F8043DFFF7A2FDEB689DF804000133D8
:104AF000EB60FFF7C3FD03B030BD02A800F8052D41
:104B0000FFF794FD64B12A6942B1944208D013467C
:104B100001E09C4204D01B68002BFAD122602C617A
:104B2000EB6863B90B4A0C491360136801934FF0AB
:104B3000804202200123019CC2F804030B60EB6851
:104B40009DF803000133EB60FFF798FD03B030BD23
:104B5000E0280020040100400800004010B51D4B73
:104B60001A6882B0F2B91C4B1A680AB902B010BDBB
:104B700000221A601B6801934FF080430222174CF9
:104B80000199C3F8082323690122A270002BEDD0FC
:104B90001A6822615B68012098472369002BF7D1CE
:104BA00002B010BD00221A601B6800934FF08043D2
:104BB00001220A4C0099C3F80823A3686270002BF5
:104BC000D1D01A68A2605B6800209847A368002BC8
:104BD000F7D1C8E70001004004010040E0280020B0
:104BE000002810B418DB00F1604303F5614349016C
:104BF000C9B283F80013C3B24009800000F16040DD
:104C000000F5614003F01F0201239340C0F880319A
:104C100003605DF8044B7047C3B2044A03F00F040D
:104C200049012244C9B21176E6E700BFFCEC00E07E
:104C300030B51D4C94F8545083B015B1082003B022
:104C400030BD4FF0FF33FF2206200721236363634B
:104C5000A363E36323646364A364E3642360636026
:104C6000A360E36023616361A361E361236284F86D
:104C700050306362A36284F85230E36284F85330A8
:104C800084F85120FFF7ACFF084B094A1D601B68F0
:104C9000019301984FF000430121284684F85410F5
:104CA000C2F8043303B030BDF42800207C6100401A
:104CB0000060004070B43A4B1A1892F93040013449
:104CC00002D0082070BC70478C78DCB11A680132C1
:104CD0005AD05A68013259D09A68013258D0DA68ED
:104CE000013257D01A69013256D05A69013255D073
:104CF0009A69013221D0DA69013208BF07241DD038
:104D00000420DFE7FE2382F830304B78012B0ED0F1
:104D100001234FF0A0428340C2F80C3500F5E0704B
:104D20004FF0A043032243F820200020CAE74FF0B1
:104D3000A0428340C2F80835F0E70624A20002F141
:104D4000804202F5C0421D18002643F8246085F811
:104D50003040D2F810650B784C7826F498161B0476
:104D6000240526F4F85603F44035C2F8106504F41F
:104D7000801304022B4304F4F854D2F81055234353
:104D80002B43C2F81035C0E70024D7E70124D5E74C
:104D90000224D3E70324D1E70424CFE70524CDE799
:104DA000F428002001234FF0A0428340C2F80835C8
:104DB000704700BF01234FF0A0428340C2F80C357A
:104DC000704700BF4FF0A0410122D1F80435824066
:104DD00022EA03001340C1F80805C1F80C357047FA
:104DE000F0B5634C251895F93030002B01DB082015
:104DF000F0BD91F803E09446BEF1000F56D0236851
:104E0000013300F0AD80082600256B1C584F54F884
:104E10002320013251D0AB1C9E4245D957F82320A4
:104E200001324AD0EB1C9E423ED957F82320013272
:104E300043D02B1D9E4237D957F8232001323CD056
:104E40006B1D9E4230D957F82370013735D0AB1D0A
:104E50009E4229D954F82320454F01322DD0EB1D15
:104E60009E4221D957F82320013226D005F10803AC
:104E70009E4219D957F8232001321ED005F10903AB
:104E80009E4211D957F82320013216D005F10A03AA
:104E90009E4209D957F8237001370ED00B35AE4228
:104EA00002D9E36A013307D00420F0BD236A01333D
:104EB0004ED00C260825A8E70B232618DDB244F8AF
:104EC00023C086F83050BEF1000F02D1234483F88E
:104ED00048008B78ABB94A784FF0A04600F5E073F4
:104EE000920046F82320CB78ABB96AB2083A144452
:104EF000097894F8502042EA811284F8502018462C
:104F0000F0BD830003F1A043D3F8002722F0020292
:104F1000C3F80027E7E76BB29B0003F1804303F57A
:104F2000C0430A78D3F8101521F4473121F44071B9
:104F3000C3F810151204000202F44031D3F81045F2
:104F400000F4F8520A432243C3F810250020F0BDB4
:104F5000082685F830603346C4F820C03546B5E7EA
:104F6000002385F83030C4F800C01D46B1E700BF0B
:104F7000F4280020F0B42E4D2E1882B096F8302080
:104F800053B2072B1CDD2B4493F848309B09032BAD
:104F900040D0012B0CBF4FF400314FF44031800062
:104FA00000F1A040D0F8002722F44032C0F80027DA
:104FB000D0F800370B43C0F8003702B0F0BC7047A0
:104FC000072AFAD8980000F1804000F5C04003F1AC
:104FD00040029200D0F8104592B202F180420027C0
:104FE00044F0010402F5C042C0F810450197019851
:104FF00017600029E1D096F9302055F82220002AC8
:10500000DBD001220B4902FA03F3C1F8043302B0EA
:10501000F0BC70474FF0A043D3F81035C34013F0F5
:10502000010F14BF4FF440314FF40031B7E700BF18
:10503000F428002000600040154B034493F8302012
:1050400053B2072B16DC072A13D810B49A0002F1CA
:10505000804202F5C0420F4CD2F81005012120F029
:10506000010001FA03F3C2F81005C4F808335DF833
:10507000044B7047800000F1A040D0F8003723F4C3
:105080004033C0F80037D0F80037C0F80037704719
:10509000F4280020006000402DE9F04786B000268B
:1050A000A24B01961A68012A00F03281A04B1A68BF
:1050B000012A00F01F819F4B1A68012A00F00C8121
:1050C0009D4B1A68012A00F0F9809C4B1A68012A4E
:1050D00000F0E6809A4B1A68012A00F0D380994BC1
:1050E0001A68012A00F0C080974B1A68012A00F064
:1050F000AD80964B1A68012A00F09B8016F0FF0FD6
:105100001AD0934F01250024A30003F180433542B8
:1051100003F5C0434FEA45050BD0D3F8100557F807
:105120002420D3F81015C0F30420C1F3014102B1CB
:1051300090470134082CE7D1002E02DB06B0BDE811
:10514000F087844D00224FF0FF33A5F15307029200
:105150000393814C4FF00008012614F8011FFF292A
:105160002BD0C9B221F0C00006AB4FEAD00E03EB42
:105170000E0201F0070312F80CCC06FA03F31CEA46
:10518000030F1AD007EB000C89099CF930C057F8BF
:105190002CC0BCF1000F3CD003293CD04FEA800E5C
:1051A0000EF1A04E12F8149CDEF8002719EA030F46
:1051B000C2F3014211D1032A36D0AC42CDD1B8F1AD
:1051C000000FBBD04FF0A043019AD3F810359342A3
:1051D000B4D0029A01930392BBE7022AEDD10329CE
:1051E00004D0BCF1000FE8D0E047E6E74FF44039C7
:1051F000DEF8002722F44032CEF80027DEF8003730
:1052000008F1010849EA03035FFA88F8CEF800378D
:10521000E7E70329D1D10DF1080A1AF80E9049EAFF
:1052200003090AF80E90B9E70329DAD14FF40039DF
:10523000DEE700221A601B6805934FF0A043059A31
:10524000D3F81035019346F0004657E7434AD2F8A9
:10525000042312067FF54DAF00221A601B680493E9
:10526000049B46F0800644E73C4AD2F804235106EA
:105270007FF53AAF00221A601B680493049B46F046
:10528000400631E7354AD2F8042390067FF527AF70
:1052900000221A601B680493049B46F020061EE758
:1052A0002E4AD2F80423D4067FF514AF00221A60E8
:1052B0001B680493049B46F010060BE7274AD2F8BC
:1052C000042315077FF501AF00221A601B680493C1
:1052D000049B46F00806F8E6204AD2F80423570754
:1052E0007FF5EEAE00221A601B680493049B46F023
:1052F0000406E5E6194AD2F8042392077FF5DBAEEF
:1053000000221A601B680493049B46F00206D2E652
:105310001249D1F8041311F0010105D01E601B6879
:105320000493049B1646C1E60E46BFE600610040AA
:1053300004610040086100400C61004010610040C1
:1053400014610040186100401C6100407C61004015
:10535000F428002047290020432900200060004055
:105360002DE9F0414479524EE7003D19AD0006EBBE
:10537000050E9EF81CC0BCF1000F02D00820BDE84D
:10538000F0817251CEF804300B7B91F800E0012BD4
:105390004FF0A0454FF0010303FA0EF394BFC5F898
:1053A0000C35C5F808350D784FF0A04E05F5E075C1
:1053B00001234EF825304D78FF2D6FD005F5E07CA8
:1053C000AB404FF00308CEF80C354EF82C8091F826
:1053D00002E0BEF1FF0F5ED00EF5E07C4FF0A0437F
:1053E0004FF0040843F82C80CB78FF2B51D04FF0BE
:1053F000010C4FF0A0480CFA03F3C8F80835CB783D
:1054000003F5E0734FF0030C48F823C091F803C094
:10541000437903EBC30306EB830383F81EC00368E1
:1054200091F800C0C3F808C5C3F80C55C3F810E5DF
:105430008D68C3F824554D7B91F80CE0003518BFFA
:105440000125BEF1020F2CD0BEF1030F1ED0BEF11C
:10545000010F01D145F00205C3F854554D79C3F849
:10546000C0550AB340250722C3F80453C3F80025EA
:1054700090F904000979FFF7B3FB3C4406EB84067E
:105480000123002033777077BDE8F08145F00605F1
:10549000E2E79C46BCE74FF0FF3EA5E74FF0FF3543
:1054A00095E745F00405D7E70722C3F80025E4E7B0
:1054B0004C2900202DE9F0434479424F4FEAC40EB5
:1054C0000EEB0405AD007E1983B096F81D809DF8A3
:1054D00028C01836B8F1000F03D0112003B0BDE882
:1054E000F0837D590DB1012575710EEB0405AD00FA
:1054F00005F108063E443D4471603272F36086F85F
:1055000010C095F8216095F81E8005F1200906F07D
:10551000FC056FF38205B8F1FF0F89F8015006D042
:1055200001254FF0A04605FA08F5C6F80C550568A8
:1055300069B101F06040B0F1005F08D0744407EB3E
:105540008407002310207B7703B0BDE8F08323B1EC
:1055500003F06040B0F1005FF0D10020C5F84415C1
:10556000C5F84825C5F83435C5F838C5C5F818015B
:10557000D5F81831019301220EEB04030199C5F807
:105580005005C5F840052A6157F823301BB1402368
:10559000C5F80433A2E7D5F81831002BFBD00EEB89
:1055A000040307EB83039B7FFF2B08D001224FF0FE
:1055B000A04102FA03F3C1F8083500208EE700206D
:1055C0008CE700BF4C290020104BD3F8182102B9FA
:1055D000704700B500210E4AC3F8181183B0917FBF
:1055E000D3F818310193FF29019B05D001234FF017
:1055F000A0408B40C0F808350023537713725168E0
:1056000013680448984703B05DF804FB003000407D
:105610004C290020542900204FF04023D3F81821B2
:1056200002B9704700B500210E4AC3F8181183B0C3
:1056300092F84210D3F818310193FF29019B05D04D
:1056400001234FF0A0408B40C0F80835002382F8BA
:10565000413082F82C30916A536A0348984703B06E
:105660005DF804FB4C29002078290020F0B59B4C04
:10567000237F8FB0002B75D1994AD2F80413890586
:1056800048D4974BD3F80423520704D5D3F8082104
:10569000002A40F0CA80924BD3F81C21C2B1A28AE2
:1056A000A07D8E4992B282424FF00002C3F81C21C5
:1056B00080F0A980D3F81C210692069A888A8A8AEB
:1056C0008D6880B20132285C92B28A82C3F81C05D0
:1056D000834BD3F84421DAB10022C3F84421D3F834
:1056E0004411A27E04910499002A40F08980E27D51
:1056F0007A4B6AB10022587ED968DA7501228DF89A
:1057000030000B918DF828200AA893E806009047F6
:105710000FB0F0BDD2F824110029B2D0C2F8243164
:10572000D2F82411A37E07914FF401710798C2F8B3
:1057300008130BB901235360694A02238DF82830FE
:10574000D2F88034C2F88034E07DE2680D93002303
:105750008DF83000E375237621680B9263680AA800
:10576000984798E75E4BD3F82421002A40F09380B5
:10577000D3F8101161B1C3F81021D3F810110391BF
:105780000399D3F83C15E07DC9B2884200F0AA80A5
:10579000534BD3F84421B2B10022C3F84421D3F8CB
:1057A0004411E07D019101994C4960B1D3F83C3539
:1057B000C8688DF830300123CA750B908DF82830F9
:1057C0000AA80AC99847464BD3F82021002A9FD03F
:1057D0000022C3F82021D3F82011A07D0091009968
:1057E0003E49002894D0D3F84C058B688DF83000E2
:1057F0008A750B938DF828200AC90AA8984787E76D
:1058000001221A6073E7D3F81C310593059B002829
:105810003FF45EAF8B688DF830008A750B938DF87E
:1058200028200AC90AA8984752E7E17D2B4A002997
:1058300070D00021C3F80811D3F808110891089915
:10584000D068517ED3F818354354537ED17D01334F
:10585000DBB25376627E214B8A427FF41CAF1A7E04
:10586000002A6DD19B7E13B91D4B01225A601C4A40
:10587000E06863684FF40171C2F80813627E8DF826
:105880003020002501220B902168E5758DF8282035
:105890000AA89847FFE60022C3F82421D3F8241170
:1058A000029102218DF828100299D3F88014C3F8D0
:1058B00080140D91D3F83C15E368E27522768DF8DB
:1058C00030100B93216863680AA89847044BD3F8FB
:1058D0004421002A3FF477AF5EE700BF94290020FF
:1058E00000200040217EF1B1D3F80072E17527F06D
:1058F0002001E6682569C3F8001201238DF8300005
:105900008DF82830227621680B96E56063680AA836
:1059100098473DE7C3F80811D3F808210992099A7E
:10592000D3F8183596E7E268E17501238DF8300069
:105930008DF828300B9294E80A000AA8984727E7C8
:10594000DE685D7E1869DA7501210022D8601A765A
:105950005A768DF828100B968DF8305093E8060093
:105960000AA8904797E600BF3EDF704708B500F0F1
:10597000ABF90A2030212822402300F0E9FD14224F
:105980007D230520502100F0E3FD0020014600F0BA
:1059900029FE254A254B1268254900BF00BF00BFDC
:1059A00000BF00BF00BF00BF00BF8A422FD000BFB2
:1059B00000BF00BF00BF00BF00BF00BF00BF00BFEF
:1059C00000BF00BF00BF00BF00BF00BF00BF00BFDF
:1059D00000BF00BF00BF00BF00BF00BF00BF00BFCF
:1059E00000BF00BF00BF00BF00BF00BF00BF00BFBF
:1059F00000BF00BF00BF00BF00BF00BF00BF00BFAF
:105A000000BF00BF00BF00BF00BF00BF00BF013B21
:105A1000C3D10020014600F025FE00F055FCFEF742
:105A2000FDF8FFF7A1FFFAE78421002020A107007D
:105A30000024F400014B01221A707047B82900209D
:105A400010B584B04FF0A04304A94FF080522C4C05
:105A500001F8010DC3F80C2500220092227029489C
:105A6000294B0122FFF726FD08B145E020BF23782E
:105A7000002BFBD0254B26491A680A2300BF00BF24
:105A800000BF00BF00BF00BF00BF00BF8A422FD0D1
:105A900000BF00BF00BF00BF00BF00BF00BF00BF0E
:105AA00000BF00BF00BF00BF00BF00BF00BF00BFFE
:105AB00000BF00BF00BF00BF00BF00BF00BF00BFEE
:105AC00000BF00BF00BF00BF00BF00BF00BF00BFDE
:105AD00000BF00BF00BF00BF00BF00BF00BF00BFCE
:105AE00000BF00BF00BF00BF00BF00BF00BF00BFBE
:105AF000013BC3D104B010BDFDF7B6FFB7E700BF4F
:105B0000B8290020D0730200B92900208421002088
:105B10000024F40010B584B04FF0A04304A94FF066
:105B200080522C4C01F8010DC3F808250022009288
:105B300022702948294B0122FFF7BCFC08B145E03F
:105B400020BF2378002BFBD0254B26491A680A2357
:105B500000BF00BF00BF00BF00BF00BF00BF00BF4D
:105B60008A422FD000BF00BF00BF00BF00BF00BFF0
:105B700000BF00BF00BF00BF00BF00BF00BF00BF2D
:105B800000BF00BF00BF00BF00BF00BF00BF00BF1D
:105B900000BF00BF00BF00BF00BF00BF00BF00BF0D
:105BA00000BF00BF00BF00BF00BF00BF00BF00BFFD
:105BB00000BF00BF00BF00BF00BF00BF00BF00BFED
:105BC00000BF00BF013BC3D104B010BDFDF74CFFC7
:105BD000B7E700BFB8290020D0730200B929002020
:105BE000842100200024F40030B585B04FF0A0439C
:105BF0008DF80F104FF08052002854D1C3F80C25B7
:105C000000252C4C2C482D4B00950DF10F01012245
:105C10002570FFF74FFC08B148E020BF2378002B28
:105C2000FBD0274B27491A680A2300BF00BF00BFDB
:105C300000BF00BF00BF00BF00BF8A422FD000BF1F
:105C400000BF00BF00BF00BF00BF00BF00BF00BF5C
:105C500000BF00BF00BF00BF00BF00BF00BF00BF4C
:105C600000BF00BF00BF00BF00BF00BF00BF00BF3C
:105C700000BF00BF00BF00BF00BF00BF00BF00BF2C
:105C800000BF00BF00BF00BF00BF00BF00BF00BF1C
:105C900000BF00BF00BF00BF00BF00BF00BF013B8F
:105CA000C3D105B030BDC3F80825A9E7FDF7DCFE78
:105CB000B4E700BFB8290020D0730200B929002042
:105CC000842100200024F400804BF0B50FCB85B078
:105CD0008DE80F001F234FF0FF0E1D2704264FF005
:105CE000805503248DF8033069467948794A8DF848
:105CF00002E000238DF801708DF8006002958DF8A8
:105D00000C40FFF72DFB002840F036824FF0A043F7
:105D100003224FF080414FF080506F4FC3F80805C9
:105D20004CF25035C3F87027C3F80C15C3F8782728
:105D3000C3F80C153A68694C284600BF00BF00BF85
:105D400000BF00BF00BF00BF00BFA2422FD000BFF6
:105D500000BF00BF00BF00BF00BF00BF00BF00BF4B
:105D600000BF00BF00BF00BF00BF00BF00BF00BF3B
:105D700000BF00BF00BF00BF00BF00BF00BF00BF2B
:105D800000BF00BF00BF00BF00BF00BF00BF00BF1B
:105D900000BF00BF00BF00BF00BF00BF00BF00BF0B
:105DA00000BF00BF00BF00BF00BF00BF00BF013881
:105DB000C3D142F21076C3F80815334600BF00BFC6
:105DC00000BF00BF00BF00BF00BF00BFA2422FD076
:105DD00000BF00BF00BF00BF00BF00BF00BF00BFCB
:105DE00000BF00BF00BF00BF00BF00BF00BF00BFBB
:105DF00000BF00BF00BF00BF00BF00BF00BF00BFAB
:105E000000BF00BF00BF00BF00BF00BF00BF00BF9A
:105E100000BF00BF00BF00BF00BF00BF00BF00BF8A
:105E200000BF00BF00BF00BF00BF00BF00BF00BF7A
:105E3000013BC3D12A4B00BF00BF00BF00BF00BF62
:105E400000BF00BF00BFA2422FD000BF00BF00BFF5
:105E500000BF00BF00BF00BF00BF00BF00BF00BF4A
:105E600000BF00BF00BF00BF00BF00BF00BF00BF3A
:105E700000BF00BF00BF00BF00BF00BF00BF00BF2A
:105E800000BF00BF00BF00BF00BF00BF00BF00BF1A
:105E900000BF00BF00BF00BF00BF00BF00BF00BF0A
:105EA00000BF00BF00BF00BF00BF013BC3D1D72070
:105EB000FFF7C6FD9F20FFF72DFEE020FFF7C0FD96
:105EC0000020FFF727FE3B680CE000BFC073020014
:105ED000D0730200355A0200842100200024F4000F
:105EE000C0D4010000BF00BF00BF00BF00BF00BFA3
:105EF00000BF00BFA3422FD000BF00BF00BF00BF44
:105F000000BF00BF00BF00BF00BF00BF00BF00BF99
:105F100000BF00BF00BF00BF00BF00BF00BF00BF89
:105F200000BF00BF00BF00BF00BF00BF00BF00BF79
:105F300000BF00BF00BF00BF00BF00BF00BF00BF69
:105F400000BF00BF00BF00BF00BF00BF00BF00BF59
:105F500000BF00BF00BF00BF013EC3D1E320FFF779
:105F60006FFD44F620633A6800BF00BF00BF00BF6A
:105F700000BF00BF00BF00BFA2422FD000BF00BFC4
:105F800000BF00BF00BF00BF00BF00BF00BF00BF19
:105F900000BF00BF00BF00BF00BF00BF00BF00BF09
:105FA00000BF00BF00BF00BF00BF00BF00BF00BFF9
:105FB00000BF00BF00BF00BF00BF00BF00BF00BFE9
:105FC00000BF00BF00BF00BF00BF00BF00BF00BFD9
:105FD00000BF00BF00BF00BF00BF00BF013BC3D177
:105FE000E120FFF72DFD1120FFF72AFD2820FFF704
:105FF00027FD3B6800BF00BF00BF00BF00BF00BF60
:1060000000BF00BFA3422FD000BF00BF00BF00BF32
:1060100000BF00BF00BF00BF00BF00BF00BF00BF88
:1060200000BF00BF00BF00BF00BF00BF00BF00BF78
:1060300000BF00BF00BF00BF00BF00BF00BF00BF68
:1060400000BF00BF00BF00BF00BF00BF00BF00BF58
:1060500000BF00BF00BF00BF00BF00BF00BF00BF48
:1060600000BF00BF00BF00BF013DC3D1C020FFF78C
:10607000E7FC5320FFF74EFD0120FFF74BFDC32047
:10608000FFF7DEFC0220FFF745FDC420FFF7D8FC38
:106090000620FFF73FFDD020FFF7D2FC1D20FFF7C1
:1060A00039FDB520FFF7CCFC0020FFF733FD392088
:1060B000FFF7C6FC3A20FFF7C3FC0220FFF72AFDDA
:1060C0003620FFF7BDFC0020FFF724FDB020FFF7CE
:1060D000B7FC9F20FFF71EFDB420FFF7B1FCA02006
:1060E000FFF718FD3020FFF7ABFC0020FFF712FD93
:1060F0000020FFF70FFD0020FFF70CFD7720FFF7D2
:1061000009FD2020FFF79CFC2A20FFF799FC0020C6
:10611000FFF700FD0020FFF7FDFC0020FFF7FAFC71
:106120002A20FFF7F7FC2B20FFF78AFC0020FFF75F
:10613000F1FC0020FFF7EEFC0020FFF7EBFC104D18
:10614000104C9F20FFF7E6FC00262C20FFF778FC80
:106150002E6026600020FFF7DDFC236801332A2B28
:106160002360F7DD2B6801339F2B2B60F1DD2920A5
:10617000FFF766FC05B0F0BDFDF776FCC6E500BF95
:10618000BC290020B429002000B583B002AB042153
:1061900043F8040D034A1846FDF7D8FC03B05DF838
:1061A00004FB00BFD161020008B51120FEF70AFE12
:1061B000EFF3058313F0FF0F4FF0130003D1BDE899
:1061C0000840FEF7F7BDBDE80840FEF7EBBD00BF95
:1061D00008B503680D2B1ED00E2B0AD0EFF30583F4
:1061E00013F0FF0F4FF0120011D1BDE80840FEF789
:1061F000E1BD3148FEF7DEF90028EFD0FDF734FCB1
:10620000EFF3058313F0FF0F4FF01200EDD0BDE860
:106210000840FEF7C7BD0020014600F0E3F9274A19
:10622000274B1268274900BF00BF00BF00BF00BF57
:1062300000BF00BF00BF8A422FD000BF00BF00BF19
:1062400000BF00BF00BF00BF00BF00BF00BF00BF56
:1062500000BF00BF00BF00BF00BF00BF00BF00BF46
:1062600000BF00BF00BF00BF00BF00BF00BF00BF36
:1062700000BF00BF00BF00BF00BF00BF00BF00BF26
:1062800000BF00BF00BF00BF00BF00BF00BF00BF16
:1062900000BF00BF00BF00BF00BF013BC3D1002053
:1062A000014600F0DFF9044841F69A110022FEF79A
:1062B00027F9002892D0A1E7C029002084210020DE
:1062C00020A107000024F40000B583B0FEF7D8FB3E
:1062D00008B1FDF7C9FB0020FEF7F4FBFEF7A8FCB0
:1062E00000285CD1002369461120ADF800308DF8FC
:1062F0000230FEF7DFFC00284ED112206946FEF77F
:10630000D9FC002845D169461320FEF7D3FC0028AC
:106310003CD11120FEF746FD1220FEF743FD13206D
:10632000FEF740FD1F4B204A18680190032301A986
:106330000D208DF80530FEF753FD20BB01A90E207E
:10634000194AFEF74DFD08B1FDF78EFB0D20012126
:10635000FEF710FE01210E20FEF70CFEFDF7F4FF04
:106360001248134A0121FEF7B9F808B1FDF77CFB8A
:1063700004200A210F4AFDF7BBFB08B1FDF774FBAF
:1063800003B05DF804FBFDF76FFBD7E7FDF76CFB8F
:10639000BFE7FDF769FBB6E7FDF766FBADE7FDF785
:1063A00063FB9FE7D873020089610200DC7302007F
:1063B000A9610200E029002073DF704776DF704793
:1063C0007FDF70478FDF7047A8DF7047A9DF704716
:1063D00066DF704710B50388013B84B00446552B37
:1063E00054D8DFE803F08B53535353535353535351
:1063F0005353535353922B53A25353535353535307
:106400005353535353535D53535353535353535352
:10641000535353535353535353535353535353534C
:10642000555353535353535353535353535353533A
:10643000535353535353698153535355404B41491D
:106440001888000440F00300FDF776F83E4B4FF645
:10645000FF721A80FDF7EEFA08B1FDF705FB002187
:106460001022684600F09DFE00234022684601216C
:106470008DF8003001938DF80830ADF80C30ADF890
:106480000A20FFF799FF08B1FDF7EEFA04B010BD3E
:1064900080881321FFF792FF0028F5D104B010BDCA
:1064A000002380888DF8003069468DF80130FFF7B1
:1064B00089FF0028EAD0E7E78279837B002AE5D0CC
:1064C000043B022BE2D8022A0CBF022201224FF425
:1064D000C17380888DF800206946ADF80430FFF75D
:1064E00073FF0028D2D0CFE7174B002118880A4647
:1064F0000B46FFF76BFF0028C8D0C5E78088002156
:10650000FFF766FF0028C1D0BEE70D4B0F49188882
:10651000000440F00300FDF70FF80B4BA2881A802F
:10652000FDF772FA0028B1D0AEE7074B00221888B9
:1065300085211346FFF744FF0028A7D0A4E700BF3A
:10654000F4210020EC73020080210020E07302009F
:10655000F8B50D4607462A21002016461C46FFF7CF
:1065600043FB01200021FFF73FFB39460120FFF7E5
:106570003BFB01200021FFF737FB31460120FFF7ED
:1065800033FB00202B21FFF72FFB01200021FFF719
:106590002BFB29460120FFF727FB01200021FFF7F5
:1065A00023FB0E4D21460120FFF71EFB0026002095
:1065B0002C210B4CFFF718FB2E6026600120FF21D9
:1065C000FFF712FB236801337F2B2360F6DD2B6876
:1065D00001339F2B2B60F0DDF8BD00BF902A002017
:1065E000942A002038B500202A21FFF7FDFA012067
:1065F0000021FFF7F9FA01200021FFF7F5FA012049
:106600000021FFF7F1FA01200521FFF7EDFA002044
:106610002B21FFF7E9FA01200021FFF7E5FA01201D
:106620000021FFF7E1FA01200021FFF7DDFA012048
:106630002721FFF7D9FA094C094D00202C21FFF73B
:10664000D3FA00232360E95C0120FFF7CDFA236829
:106650000133EF2B2360F6DD38BD00BF902A002008
:106660002474020038B500202A21FFF7BDFA01206A
:106670000021FFF7B9FA01200021FFF7B5FA012048
:106680000021FFF7B1FA01200521FFF7ADFA002044
:106690002B21FFF7A9FA01200021FFF7A5FA01201D
:1066A0000021FFF7A1FA01200021FFF79DFA012048
:1066B0002721FFF799FA094C094D00202C21FFF7FB
:1066C00093FA00232360E95C0120FFF78DFA236829
:1066D0000133EF2B2360F6DD38BD00BF902A002088
:1066E00014750200F0B50288112A83B0034654D015
:1066F00040D9122A08D0502A04D1774DC188EA899E
:1067000091425CD003B0F0BD744C828821889142E4
:10671000F8D1E589268A4089618940F2F31C6545F4
:106720004FF6FF7E05EB0C0794BF6D1BCCEB050508
:10673000764594BFB61BCEEB0606814256D8A1899A
:10674000814253D399898D4250D88F424ED3DB89F1
:106750009E424BD8604B596901200023607223721E
:106760000029CFD00123ADF806208DF8043001A810
:106770008847C7E7102AC5D1C17B82880129C1D1CA
:10678000564C26884FF6FF718E423ED0524B9B6985
:10679000002BB7D004209847B4E7504C8288238858
:1067A0009A42AFD16068FDF705FF18B14A4B9B696B
:1067B00003B198474FF6FF73238003B0F0BD028A00
:1067C000022A9FD1454C87882688BE429AD1123032
:1067D00000F010F9002862D16068FDF7EBFE002898
:1067E00090D0AB69002B8DD098478BE73A4D267A35
:1067F000AB6869686068002E18BF19460023637291
:10680000FDF77EFE0028ECD17CE7354D228003CDDC
:10681000C4F80E10C4F80A006589588AE189B4F8F2
:1068200010E00027854227722AD8A589854227D300
:1068300040F2F31081429D8A94BF481A081AA84278
:106840001ED801F2F311A9421AD3B645DB8A94BFD0
:10685000CEEB0E0EC6EB0E0E9E4511D81E4BD88900
:106860000121617200287FF44DAF5B69002B3FF47A
:1068700049AF8DF80410ADF8062001A8984741E70C
:10688000154D1648EB8900216172002B7FF43AAF59
:1068900040686968FDF734FE0028A2D132E7637AC8
:1068A00063B96968AB68277A60683246002F18BF01
:1068B0001946FDF725FE002893D123E76B690022D6
:1068C0002272002B3FF41EAF0122ADF806708DF846
:1068D000042001A8984715E7982A0020B42A002030
:1068E000C82A00200388112B024672D02DE9F043FC
:1068F0001A2B95B0804651D0102B02D015B0BDE8B0
:10690000F083DFF8EC90D9F84820D9F8443009F149
:10691000040123EA020203A8FEF726F8039E7EB1D3
:10692000002427460DF10E05304835F8023F009748
:10693000013400F140011D22FDF7EAFFB442F3D11A
:10694000D9F84400B8F80460294CC043FDF7ACFF07
:106950004FF6FF73984243D004EB400504F1480121
:10696000201D32460123AE80FDF7B4FF3246201DC4
:1069700004F144010123FDF7ADFF98F80F30B8F89A
:106980000420A3F10203201DB3FA83F304F14C01A8
:106990005B0915B0BDE8F043FDF79CBF037A1348CF
:1069A00092881F2B94BF0023012300F14C01FDF7B7
:1069B00091FF98F808300D48B8F804202F2B94BFA9
:1069C0000023012300F1500115B0BDE8F043FDF7AD
:1069D00081BF0648928800F144010023FDF77ABF89
:1069E000042015B0BDE8F043FDF73EB8D42A0020DE
:1069F000D02A0020007800F00100704790DF704737
:106A00009EDF7047ADDF7047838883BB70B5028817
:106A1000232A82B00C4600F0A3801AD93A2A00F04B
:106A20008E80552A51D0242A76D0A37AEBB100204B
:106A3000E188FFF7E5FF00286AD0112815D0714BD7
:106A400071491B881B04024643F00100FCF732FE2B
:106A50000BE0102A0CD0112AE7D117211B22A372B8
:106A6000E372E18021812273627302B070BD7047CE
:106A70000B790B73C27B012A00F09D80022A00F083
:106A80009780C98822898A42C0F0A280627B9A429C
:106A9000CBD200259BB228462A466946ADF8003085
:106AA000ADF80230ADF80450ADF80650FFF7A6FF80
:106AB0000028BAD0534B55491E88360403462A464F
:106AC00046F00100FCF7BCFEAFE7C288C988A3729C
:106AD000172A38BF17228A4228BF0A461846228141
:106AE000FFF790FF002869D1E37A002B9DD122693E
:106AF000002A9AD02189ADF8023040F67720ADF80F
:106B00000000ADF80410204669469047A37A8DE74F
:106B10000123A072E372A8E70A69017A6173002A6F
:106B200083D04DF67A200093ADF80430ADF8000024
:106B30008DF80410204669469047A37A76E7E288EC
:106B4000418925698A4228BF0A46172A38BF172279
:106B500022810DB1E17AF9B90023E372A37284E7CF
:106B6000057A0A7B0193954228BF154618461A46B6
:106B70006946ADF80050ADF80250FFF73FFF00281E
:106B80003FF453AF1F4B22491B881B04024643F0BE
:106B90000100FCF78FFD48E740F67721ADF80010C3
:106BA000ADF80230ADF8042020466946A847D3E787
:106BB0004988E18066E70988E18063E7114B154960
:106BC0001B881B04024643F00100FCF773FD8BE7B2
:106BD0000020FFF715FF18B90123E372237B55E767
:106BE000112803D10123A372237B4FE7054B0649EC
:106BF0001B881B04024643F00100FCF75BFD237B6E
:106C000044E700BF0C220020047602004876020010
:106C1000EC760200A87602000649074A074B9B1A49
:106C200003DD043BC858D050FBDC00F013F8FCF740
:106C300039FB0000347A02008021002078220020F5
:106C4000FEE7FEE7FEE7FEE7FEE7FEE7FEE7FEE71C
:106C5000FEE7FEE7F0B4AF4B1B78062B1BD0AE4A25
:106C6000D2F8883043F47003C2F88830BFF34F8FF6
:106C7000BFF36F8F4FF01023D3F80022002AC0F229
:106C80007381D3F80432002BC0F26E81A34BA44A67
:106C90001A60F0BC7047A34B1B681907DFD1A24BE9
:106CA0001B6803F0F002302A00F08E8003F0E0034E
:106CB000402B00F089809C4B1B6803F0F003302BC5
:106CC00000F09280984B1B6803F0F002302A6BD0E2
:106CD00003F0E003402B67D0934B1B6803F0F003F5
:106CE000302B00F00681904B1B6803F0F002302A35
:106CF00047D003F0E003402B43D08B4B1B6803F0DD
:106D0000F003302B00F0E780874B1B6803F0F003A3
:106D1000302B77D0844B1B6803F0F003502B00F02E
:106D20008880814B1B6803F0F002302A18D003F0F2
:106D3000E003402B14D07C4B1B6803F0F002302A98
:106D400003D003F0E003402B89D14FF08042D2F80A
:106D50000034DB0783D56FF00103C2F800347EE70F
:106D6000724B734A1B6803F04F031360694B1B7827
:106D7000062B7FF474AF6B4B1B6819077FF46FAF62
:106D8000D9E74FF080430022C3F80C21C3F810214B
:106D9000C3F838255F4B1B78062BE7D1614B1B6886
:106DA0001E077FF45CAFA8E7624B5A4A1B68127853
:106DB0006149C3F34233062A0B602FD1594B1B683C
:106DC0001B077FF44CAF87E75C4B524A1B68127875
:106DD0005B49C3F30423062A0B60DBD1514B1B68CC
:106DE0001A073FF468AF3AE74A4B564A1B785649B0
:106DF0001160062B7FF433AF4A4B1B681A077FF4F0
:106E00002EAF5FE7514E524C5249534B0527012597
:106E100000203F223760256008601A603D4B1B78D8
:106E2000062B7FF41CAF3F4B1B681C077FF417AF8A
:106E300070E74FF08052494BD2F80414C3F8201584
:106E4000D2F80814C3F82415D2F80C14C3F8281586
:106E5000D2F81014C3F82C15D2F81414C3F8301556
:106E6000D2F81814C3F83415D2F81C14C3F840151E
:106E7000D2F82014C3F84415D2F82414C3F84815E6
:106E8000D2F82814C3F84C15D2F82C14C3F85015B6
:106E9000D2F83014C3F85415D2F83414C3F860157E
:106EA000D2F83814C3F86415D2F83C14C3F8681546
:106EB000D2F84014C3F86C151649D2F84424C3F82C
:106EC00070250B78062B7FF4CAAE164B1B6818078B
:106ED0007FF4C5AE25E70F4B214A1B780321062B13
:106EE00011607FF4BCAE0F4B1B681D077FF4B7AE7B
:106EF0000AE71C49074BCA681B7822F08072062BF0
:106F0000CA607FF4ACAE074B1B681F077FF4A7AEC7
:106F1000E9E600BFE00F00F000ED00E08421002072
:106F20000090D003E40F00F0E80F00F058020010CA
:106F3000E40E0040440200103C0500402403001011
:106F40004035014074C007400DF0ADBA1056004006
:106F500088560040185600401456004000C00040BB
:106F6000A0050040F0ED00E0184B0122C3F8042515
:106F7000D3F80024002AFBD04FF010231522134928
:106F8000C3F80022D1F80034002BFBD04FF01023BF
:106F900015220E49C3F80422D1F800240B4B002A15
:106FA000FAD00022C3F80425D3F80024002AFBD02D
:106FB000BFF34F8F0649074BCA6802F4E0621343E0
:106FC000CB60BFF34F8F00BFFDE700BF00E0014083
:106FD00000ED00E00400FA050288502A034600D0C4
:106FE000704710B44A88DC88944202D05DF8044BA4
:106FF00070471A8A012AF9D14C69002CF6D098887A
:107000009A7C23465DF8044B184700BF014B187863
:10701000704700BF882B002000B583B06846084940
:10702000FDF72CFC019B43B158681A6890476846ED
:10703000FDF72EFC019B002BF6D103B05DF804FB9D
:107040004877020061DF704710B5382492B004A879
:107050000DF10601ADF80640FFF7F4FF88B902A86C
:107060000B49FDF70BFC039B002BF0D01A68596805
:1070700004A8904702A8FDF70BFC039B002BF5D159
:10708000E5E7052801D0FCF7EFFC12B010BD00BF0A
:107090005477020048DF704700B585B001A8FFF7BC
:1070A000F9FFA8B902A80E49FDF7E8FB039B002BE6
:1070B000F4D01A6859680198904702A8FDF7E8FBD8
:1070C000039B002BF5D101A8FFF7E4FF0028E9D0CE
:1070D000052801D0FCF7C8FC05B05DF804FB00BF33
:1070E00068790200014600200246034600F062B8BB
:1070F00008B5074B044613B1002100F0B7F8054B63
:107100001868836A03B19847204600F019F900BF58
:107110006D7202008479020038B5074B074CE41AFF
:10712000A4101D4624B1013C55F824309847F9E7D6
:10713000BDE8384000F00CB9EC210020F02100201F
:1071400070B50E4B0E4CE41AA41000251E46A54245
:1071500004D056F8253098470135F8E700F0F2F8EA
:10716000084C094BE41AA41000251E46A54204D081
:1071700056F8253098470135F8E770BDE821002022
:10718000E8210020EC210020E821002010B5431E5A
:107190000A44914204D011F8014B03F8014FF8E77B
:1071A00010BD02440346934202D003F8011BFAE7E4
:1071B000704700002DE9F843294D2C6806460F461C
:1071C000914698460CB9274C2C6063681F2B14DD40
:1071D000254B1BB94FF0FF30BDE8F8838C20AFF38F
:1071E000008004460028F5D000232A68026043602E
:1071F0002860C0F888303EB928E03EB3D4F8880053
:1072000078B9194B002BE5D04FF48470AFF30080B0
:107210000028DFD00023C0F80031C0F80431C4F8E2
:107220008800626840F822900123934000EB8201BD
:10723000D0F800211A43022EC0F80021C1F8808046
:1072400002BFD0F804211343C0F8043163685A1C0C
:1072500002336260002044F82370BDE8F88300BF69
:10726000182C00208C2B0020000000002DE9F74F87
:1072700080460F46304E3468002C59D06568D4F8EB
:10728000889005F1FF3AAD0009EB050B0435254464
:10729000BAF1000F38DB37B1B9F1000F2ED0DBF8AF
:1072A0007C20BA422AD161682A6801398A4516BF12
:1072B0000021C4F804A0296002B363680193B9F106
:1072C000000F06D00121D9F8000101FA0AF10142AC
:1072D00001D190470BE0D9F80401014204D14046A6
:1072E0005BF8041C904702E05BF8040C904762686E
:1072F000019B9342BED13268A242BBD10AF1FF3A50
:10730000ABF1040B043DC3E70C4B8BB162682368FF
:107310005AB953B13360B9F1000F02D04846AFF308
:1073200000802046AFF30080A5E726461C46A3E771
:1073300003B0BDE8F08F00BF182C00200000000053
:10734000FEE700BFF8B500BFF8BC08BC9E4670471A
:10735000F8B500BFF8BC08BC9E467047617070006D
:10736000B4260020BC260020C4260020C42600200D
:1073700018000000466174616C206572726F7200C3
:1073800053797374656D2072657365740000000035
:1073900062616C6C6F6300007077725F6D676D7413
:1073A00000000000636C6F636B0000006770696F22
:1073B00074650000737069007561727400000000EC
:1073C000FFFFFFFF07FF000000000040000000007B
:1073D000003000400300010002000001C02900202D
:1073E000436F6E6E65637465640000004469736387
:1073F0006F6E6E65637465640000000053656E64B3
:1074000020627574746F6E20737461746520636894
:10741000616E67652E000000436F6D65206F6E2101
:1074200000000000000003FFE0000000FFE0FF009C
:10743000001FE00003E000FC000000E003E00000AB
:1074400000FC1F000000001CFC000000001CE0000D
:107450000000001FE00000000003E0000000001F2B
:10746000FC000000001C1F000000001C03E00000E6
:1074700000FC00FC000003E0001FFFFFFF00000015
:1074800000E00000000000E00000000000E0001F3D
:10749000000003E000FF0000030000FF0000030005
:1074A000001C000003E000FC0000FFFC00E000FF07
:1074B000031FFFE003E003000000030003000000DF
:1074C0001F00030000001C0003000000FF0003E099
:1074D0000000FF0003E00000FC001FFC00000000B3
:1074E0001C1C00000000FC0300000000E003E000A2
:1074F0000003E000E000FFFF00001C00FF000000B0
:107500001C001F0000001C0003E000001F0000FC26
:1075100000001FFF000003FFE0000000FF00FF006D
:10752000001FE00003E000FC000000E003E00000BA
:1075300000FC1F000000001CFC000000001CE0001C
:107540000000001FE00000000003FC000000001F1E
:107550001C000000001C1F000000001C03E00000D5
:1075600000FC00FC000003E0001FFFFFFF00000024
:1075700000E00000000000E00000000000E000006B
:10758000000000E00000000003FC0000000003FC1D
:10759000000000001F1C000000001F1C0000000075
:1075A000E31C00000000E31C00000000E31FE000FB
:1075B0000003FF1FE0000003FF1FE0000000FFE0EA
:1075C0000000000003E0000000001CE000000000DC
:1075D0001CFC00000000E01C00000000E01C00009B
:1075E0000000E01C00000003E01C00000003001C81
:1075F00000000003001C00000003001C0000001F2E
:10760000FC1FFC0073645F626C655F676174746388
:107610005F65786368616E67655F6D74755F7265DD
:10762000717565737428292072657475726E65644E
:1076300020756E65787065637465642076616C751D
:107640006520307825782E0073645F626C655F6713
:1076500061705F646174615F6C656E6774685F75AB
:10766000706461746528292028726571756573746A
:1076700029206F6E20636F6E6E656374696F6E2074
:10768000307825782072657475726E656420756E29
:1076900065787065637465642076616C756520300B
:1076A0007825782E0000000073645F626C655F6768
:1076B000617474735F65786368616E67655F6D742C
:1076C000755F7265706C7928292072657475726EA9
:1076D000656420756E657870656374656420766195
:1076E0006C756520307825782E00000073645F6229
:1076F0006C655F6761705F646174615F6C656E6724
:1077000074685F75706461746528292028726570DB
:107710006C79292072657475726E656420756E656A
:10772000787065637465642076616C756520307867
:1077300025782E00626C655F67617474000000003C
:107740006E72665F736468001C7A02002C7A020015
:107750000800000094790200BC79020008000000D3
:1077600073645F626C655F6366675F736574282925
:107770002072657475726E65642025732077686564
:107780006E20617474656D7074696E6720746F200B
:1077900073657420424C455F434F4E4E5F434647EE
:1077A0005F4741502E00000073645F626C655F6349
:1077B00066675F73657428292072657475726E65DB
:1077C00064202573207768656E20617474656D7020
:1077D00074696E6720746F2073657420424C455F36
:1077E0004741505F4346475F524F4C455F434F55BB
:1077F0004E542E0073645F626C655F6366675F73EF
:10780000657428292072657475726E65642025730D
:10781000207768656E20617474656D7074696E6739
:1078200020746F2073657420424C455F434F4D4D6B
:107830004F4E5F4346475F56535F555549442E00B0
:1078400073645F626C655F6366675F736574282944
:107850002072657475726E65642025732077686583
:107860006E20617474656D7074696E6720746F202A
:1078700073657420424C455F47415454535F4346FF
:10788000475F415454525F5441425F53495A452E19
:107890000000000073645F626C655F6366675F731E
:1078A000657428292072657475726E65642025736D
:1078B000207768656E20617474656D7074696E6799
:1078C00020746F2073657420424C455F47415454C7
:1078D000535F4346475F534552564943455F4348CC
:1078E000414E4745442E000052414D207374617251
:1078F000747320617420307825782C2063616E20A9
:1079000062652061646A757374656420746F2030E9
:107910007825782E0000000052414D2073697A6569
:107920002063616E2062652061646A7573746564AA
:1079300020746F20307825782E00000073645F6219
:107940006C655F656E61626C65282920726574756F
:10795000726E65642025732E000000006E72665FF3
:107960007364685F626C65008C7902009479020030
:10797000080000006E72665F7364685F736F630077
:0C798000430000008821002000000000EF
:08798C009D490200000000000B
:10799400E568020000000000096A02007C2A002059
:1079A400E566020000000000D96F0200642A00208E
:0879B400D56302000000000091
:1079BC005C730200000003009073020000000000E2
:1079CC003477020000000300A473020000000000E2
:1079DC00AC730200000000004077020000000300BE
:1079EC005C790200000003007479020000000300BF
:1079FC009873020000000000B47302000000000045
:087A0C00B87302000000000045
:087A1400C1490200000000005E
:107A1C004970020000000000997002000000000094
:087A2C0078B8FF7F01000000A3
:107A3400FFFF00000090D0030000000000000000E1
:107A44000000000000000000000000000000000032
:107A54000000000000000000807902000000000027
:107A64000000000000000000000000000000000012
:107A74000000000000000000000000000000000002
:107A840000000000000000000000000000000000F2
:107A940000000000000000006D32020045320200C8
:047AA40000000000DE
:107AA80000000000000000000000000000000000CE
:107AB80000000000000000000000000000000000BE
:107AC80000000000000000000000000000000000AE
:107AD800000000000000000000000000000000009E
:107AE800000000000000000000000000000000008E
:107AF800000000000000000000000000000000007E
:107B0800000000000000000000000000000000006D
:107B1800000000000000000000000000000000005D
:047B28000000000059
:0400000320006C1954
:00000001FF
