:020000022000DC
:1030000000000120B9900200E1900200E39002006C
:10301000E5900200E7900200E99002000000000045
:10302000000000000000000000000000EB90020023
:10303000ED90020000000000EF900200F19002000D
:1030400089590200F3900200F1670200F162020068
:1030500041630200F3900200C15D0200F3900200A0
:10306000ED6A0200F3900200F3900200F390020078
:10307000F3900200F3900200F3900200F39002003C
:10308000F3900200D9430200F3900200F390020093
:1030900079440200F3900200DD970200F3900200F1
:1030A000F3900200F3900200F3900200F39002000C
:1030B000F3900200F3900200000000000000000006
:1030C000F3900200F3900200F3900200F3900200EC
:1030D000F3900200F3900200F39002000000000061
:1030E00000000000000000000000000000000000E0
:1030F00000000000000000000000000000000000D0
:1031000000000000000000000000000000000000BF
:1031100000000000000000000000000000000000AF
:10312000000000000000000000000000000000009F
:10313000000000000000000000000000000000008F
:10314000000000000000000000000000000000007F
:10315000000000000000000000000000000000006F
:10316000000000000000000000000000000000005F
:10317000000000000000000000000000000000004F
:10318000000000000000000000000000000000003F
:10319000000000000000000000000000000000002F
:1031A000000000000000000000000000000000001F
:1031B000000000000000000000000000000000000F
:1031C00000000000000000000000000000000000FF
:1031D00000000000000000000000000000000000EF
:1031E00000000000000000000000000000000000DF
:1031F00000000000000000000000000000000000CF
:10320000044B05481B1A062B02D9044B03B118477F
:10321000704700BF33220020302200200000000051
:1032200005490648091A891001EBD171491002D0ED
:10323000034B03B118477047302200203022002092
:103240000000000010B5064C237843B9FFF7D8FF03
:10325000044B13B10448AFF300800123237010BD69
:10326000C02200200000000088AD020008B5084B15
:103270001BB108480849AFF300800848036813B938
:10328000BDE80840CCE7064B002BF9D09847F7E79C
:103290000000000088AD0200C42200202C22002083
:1032A00000000000134B002B08BF114B9D46A3F5F7
:1032B000803A00218B460F461148124A121A06F036
:1032C00044FC0D4B002B00D098470C4B002B00D03A
:1032D00098470020002104000D000B4806F0D6FBA3
:1032E00006F002FC2000290003F066FC06F0D4FB87
:1032F00000000800000001200000000000000000A5
:10330000C0220020342D0020C19A0200F0B595B0F3
:10331000002415460F4608461E4602F02FF938468F
:10332000234605A9082208951A9D09960D950A9429
:103330008DF82C400C9402F07FF99DF8143007981A
:1033400006998DF8104003F00302012A0290ADF8AF
:103350000C102CD0022A04D0384602F01FF915B008
:10336000F0BDBDF81650C3F3C202C3F38003C5F32A
:1033700089158DF80E208DF80F300826082D2C4663
:1033800028BF08243346224638460EA902F054F9D5
:103390002D1B21460EA802AA08AB264400F06AFDA8
:1033A000002DEBD1384602F0F9F815B0F0BDBDF8AC
:1033B0001460059DC6F38316C3F3C20EB2000EA9B6
:1033C000C3F3800438460823C5F395258DF80EE035
:1033D0008DF80F4002F030F908AB009328463246D2
:1033E0000EA902AB00F0AEFCB6E700BF014B012214
:1033F0001A707047DC220020704700BF30B5114DB5
:10340000114889B003F0B4F80FCD6C460FC495E8AD
:103410000F00062584E80F004FF0FF334FF0EB74E8
:10342000094800956946002201930293039306948C
:1034300002F0B0FF08B100F0B7FE044B00221A7092
:1034400009B030BD149D020080210020DD22002043
:1034500000B583B0044B0093044A4023FFF756FFA6
:1034600003B05DF804FB00BF71340200E0220020CD
:1034700010B5094C09480023D2B2237003F0FEF8BE
:1034800030B9074B1B7813B12378002BFCD010BD4B
:1034900000F08AFEF5E700BFDC220020802100203A
:1034A000DD22002030B5104D0FCD89B06C460FC421
:1034B00095E80F00062584E80F004FF0FF334FF02A
:1034C000EB740A480A4A00956946019302930393F4
:1034D000069402F05FFF08B100F066FE054B012282
:1034E0001A7009B030BD00BF149D02008021002079
:1034F000ED330200DD22002010B5054CFFF7D2FFAE
:103500002046042100F0DEFB0123637210BD00BFE2
:103510008821002008B5104B10480022FF21C3F875
:10352000182499601A605A60C3F8142483F81C2484
:1035300001F0DCFF70B90A4B0A4A9A1AD20807D088
:10354000094903460B520133934200F10C00F9D1B3
:10355000002008BD08BD00BF20230020449D0200BC
:103560001CAE0200BCAD02003022002021B9124A7C
:1035700002EBC0000068704730B410490E4D491B83
:10358000C9080ED00E4B5A88824218BF002205D1BE
:103590000FE0DC89844203F10C0305D001328A423A
:1035A000F7D1002030BC704705EBC200006830BC8A
:1035B00070472846FAE700BFBCAD02001CAE02000F
:1035C00030220020094B013903EBC00003290BD83E
:1035D000DFE801F0020806040220704740797047D6
:1035E000007970470420704700207047BCAD02008E
:1035F0002DE9F04F874C626823689A4285B042D02B
:103600000023C4F81834BFF34F8F6068A56805EA3B
:103610000003023304EB8302111D127912F0030F31
:10362000024610D10B884988C3F3891303EB911329
:1036300001331A4402EA0503023304EB8306311D09
:103640003679B607EED004EB8303511C5B68019317
:10365000294004EB810103F00303C9680291022BA6
:1036600002F102086B4F12D0012B6DD0032B06D054
:103670002368181A18BF012005B0BDE8F08FD7F8ED
:103680001834002BF4D1002005B0BDE8F08FBDF850
:1036900006306148C3F38919B9F1500FCA46A8BF73
:1036A0004FF0500A6AF38F130AF10801ADF80630A3
:1036B00001F01EFF0646002800F0878025EA080B6F
:1036C0000BF1010B01F05AFF4FEA8B0B304601A9B9
:1036D0000822002301F088FFDA4540F28E80BBF11A
:1036E000000F74D107F10C0152463046082301F057
:1036F0007BFF09F1030708EB9707D4F81834DFF8CC
:103700001481D4F81054002B59D14DB16B7A28464E
:10371000314613B12B681B6898476D68002DF5D1B1
:10372000304601F03BFF04A8002300F80D3D01F0F6
:103730001DFBD4F81834374A03B957609DF80300CD
:1037400001F03CFB606893E7BDF804303248C3F3F6
:103750008312062A28BF0622911C62F3891389006E
:10376000ADF8043001F0C4FE064670B301F006FF68
:103770000023304601A9082201F036FFBDF80430CD
:1037800013F4707F44D04FF0000A4FF0080908EAA4
:10379000050104EB81014B460C313046042201F057
:1037A00023FFBDF804300AF1010AC3F3831308F1C3
:1037B0000107534509F10409B846E8D89DE73046AA
:1037C00001F0ECFED8F8040052E7786850E708EA08
:1037D000050107EB8101CBEB0A0530465A460C3157
:1037E000EDB2082301F000FF30462A4607F10C0134
:1037F0000BF1080301F0F8FE7BE708EA050107EB8F
:1038000081010C3152463046082301F0EDFE70E78D
:10381000474672E720230020449D02002DE9F04F27
:1038200089B008AB00265B4C03F80D6D029018467A
:10383000A3680391019301F099FAA5686168D4F82F
:1038400000806B180133C8EB0303032B5ED805F12E
:103850000109B646C8EB090904F5836C04F2144764
:103860000126A2465CE8003F43EA06024CE800203D
:1038700090F0000FF6D157E8003F43EA060247E810
:10388000002090F0000FF6D101EA0503023304EBAB
:103890008302101D127912F0030F0A4613D1038818
:1038A0004088C3F3891303EB901301331A4402EAEF
:1038B0000503023304EB830B0BF104009BF804B007
:1038C0001BF0030FEBD004EB830302325B6805931C
:1038D00003F00303012B57D0022B06D1BDF816309D
:1038E000C3F38913033302EB930257E8003F03EA63
:1038F0000E0047E8000B9BF0000FF6D113B1CAF899
:103900000420114609EB0103032BABD905EA080398
:10391000023304EB83039DF813001A7942F003028B
:103920001A7123680233236001F048FA019B029D5B
:1039300008F101021A4008EA030304EB8202023391
:1039400004EB8303290CD1601A79C5F3001161F3EC
:10395000820265F3C5021A719A886FF389129A8000
:103960005A68039961F39F221146012060F3010117
:103970005A60197194F81C341BB1FFF739FE002806
:10398000FBD109B0BDE8F08FBDF81430C3F3831349
:103990001A44AAE7202300202DE9F04F89B008AB94
:1039A00000265F4C03F80D6D01901846A368029144
:1039B0000093039201F0DAF9A5686168D4F80080F9
:1039C0006B180133C8EB0303042B5ED805F1010922
:1039D000B646C8EB090904F5836C04F214470126C6
:1039E000A2465CE8003F43EA06024CE8002090F063
:1039F000000FF6D157E8003F43EA060247E80020EF
:103A000090F0000FF6D101EA0503023304EB8302C4
:103A1000101D127912F0030F0A4613D10388408853
:103A2000C3F3891303EB901301331A4402EA05032D
:103A3000023304EB830B0BF104009BF804B01BF082
:103A4000030FEBD004EB830302325B68059303F0B2
:103A50000303012B5ED0022B06D1BDF81630C3F351
:103A60008913033302EB930257E8003F03EA0E0089
:103A700047E8000B9BF0000FF6D113B1CAF8042001
:103A8000114609EB0103042BABD905EA0803023305
:103A900004EB83039DF813001A7942F003021A71B4
:103AA00023680333236001F089F9009B019D039E85
:103AB00008F1020108F1010219401A4008EA030363
:103AC00004EB810104EB8202023304EB8303280C34
:103AD000CE60D0601A79C5F3001161F3820265F3FC
:103AE000C5021A719A88012060F389129A805A6877
:103AF000029961F39F22114660F301015A60197126
:103B000094F81C341BB1FFF773FD0028FBD109B0FA
:103B1000BDE8F08FBDF81430C3F383131A44A3E754
:103B2000202300202DE9F04F8BB00AAD0026644C15
:103B300005F80D6D029005932846A3680391019343
:103B4000049201F013F9A5686168D4F800806B183D
:103B50000133C8EB0303052B5ED805F10109B64616
:103B6000C8EB090904F5836C04F214470126A24648
:103B70005CE8003F43EA06024CE8002090F0000FAA
:103B8000F6D157E8003F43EA060247E8002090F0EC
:103B9000000FF6D101EA0503023304EB8302101D86
:103BA000127912F0030F0A4613D103884088C3F339
:103BB000891303EB901301331A4402EA050302331D
:103BC00004EB830B0BF104009BF804B01BF0030F14
:103BD000EBD004EB830302325B68079303F003032B
:103BE000012B66D0022B06D1BDF81E30C3F389131A
:103BF000033302EB930257E8003F03EA0E0047E865
:103C0000000B9BF0000FF6D113B1CAF80420114647
:103C100009EB0103052BABD905EA0803023304EBDA
:103C200083039DF81B001A7942F003021A7123687E
:103C30000433236001F0C2F8019B029E049F08F147
:103C40000200184008F1030108F1010219401A406E
:103C500004EB800008EA030304EB810104EB820219
:103C60000233C76004EB83030598C860350CD56048
:103C70001A79C6F3001161F3820266F3C5021A7164
:103C80009A88022161F389129A805A68039961F334
:103C90009F221146012060F301015A60197194F8C6
:103CA0001C341BB1FFF7A4FC0028FBD10BB0BDE80E
:103CB000F08FBDF81C30C3F383131A449BE700BF99
:103CC0002023002030B4144DD5F81044002154B105
:103CD000237A8B4214D0234602E01A7A8A420FD00C
:103CE0005B68002BF9D10172D5F810340A4A7BB118
:103CF0005B684360D2F810345860084630BC7047A7
:103D000001310A29E3D14FF0FF31084630BC70473A
:103D1000C2F810044360F0E72023002038B5084BB8
:103D2000D3F81044012583F81C543CB12368657214
:103D300020465B6898476468002CF7D138BD00BF07
:103D4000202300202DE9F04784B01D460C9C002361
:103D500094F80C802373EB7981460E4617460BB31B
:103D6000062F0FD8DFE807F0363B414804515E00CC
:103D7000B168F06896E80C00009101904946204631
:103D800001F0A0F8EB792BB92B7AEBB92046334937
:103D900001F098F8204601F089F884F80C8004B00E
:103DA000BDE8F0872B7A002B4BD1AA792C4BA88841
:103DB00053F822A00021FFF7D9FB524603462949B8
:103DC000204601F07FF8CBE720462749274A01F03B
:103DD00079F8DBE74946204601F074F8D2E7494616
:103DE0003268204601F06EF8CCE74946204696E856
:103DF0000C0001F067F8C5E7B16896E80C002046B2
:103E00000091494601F05EF8BCE7B1683069F76897
:103E100096E80C000091029049460197204601F077
:103E200051F8AFE796E80C00B168F0683769766939
:103E300003960091019049460297204601F042F80E
:103E4000A0E7A979A888FFF7BDFB094B064953F8FD
:103E50002020204601F036F8A7E700BFA89D020009
:103E6000589D0200949D0200909D0200A09D0200BA
:103E70006C9D0200082951D82DE9F0471D4600230A
:103E800095F80C902B73D379904607460E46002B7D
:103E900045D0002405E03A5D013401F013F8082C08
:103EA0000AD0A64228463049F5D828462F49013481
:103EB00001F008F8082CF4D128462D49DFF8D4A0E9
:103EC00001F000F800240DE03A5DDAF80030134408
:103ED00001345B7813F0970F08BF2E2200F0F2FF39
:103EE000082C0AD0A64228462249EDD82846224965
:103EF000013400F0E7FF082CF4D198F8073013B92B
:103F000098F80830F3B928461C4900F0DBFF284632
:103F100000F0CCFF85F80C90BDE8F0877047137A6D
:103F2000B3B998F80620164BB8F8040053F82240AD
:103F30000021FFF71BFB224603461249284600F0EA
:103F4000C1FFA6E728461049104A00F0BBFFDAE798
:103F500091799088FFF736FB0D4B0B4953F82020E1
:103F6000284600F0AFFFDCE7AC9D0200B49D0200E4
:103F7000B89D0200BC9D02009C9D0200A89D02000D
:103F8000589D0200949D0200909D0200A09D020099
:103F90006C9D0200C02100202DE9F84F234B1A78B8
:103FA0008AB3DFF88CB0DFF88C80DFF88C900024C7
:103FB0004FF0010A03E00134E4B2944223D226B266
:103FC000D8F80050DBF8003015F836000AFA00F196
:103FD000194205EBC607EED0154A23EA0103136028
:103FE00001F0E4FE15F83650D9F800300AFA05F170
:103FF0000B4000FA05F18B4207D00C4B01341A78C4
:10400000E4B29442DBD3BDE8F88F79787B68A1F104
:104010000101B1FA81F14909002BEED0091A2846B5
:10402000B1FA81F149099847E7E700BF1828002055
:1040300040280020142800203C28002070B50646A7
:10404000114800F057FE40B9104D01242B68B440D0
:104050001C4203D023EA04042C6070BD304601F0FA
:10406000A5FE0B4E326860B122432B6809493260CD
:104070001C432C60044809680022BDE8704000F031
:10408000DFBD22EA0402F0E71C28002040280020BF
:104090003C28002010280020F0B5042A85B01746DF
:1040A00002D8072005B0F0BD0191054601F018FDCA
:1040B0000199002830D01C4CDFF888E01B481C4ACE
:1040C0001C4B256000264C1E07608EF80010166001
:1040D0001E60E4B2032709B918E01C4623B205EBC1
:1040E000C30215F833009378134A8DF80D3003A9F5
:1040F0008DF80C708DF80E608DF80F6001F0FAFCF1
:10410000631E0028CED1DBB2002CE6D10B4A0C484E
:10411000002100F083FDC5E7019101F09FFC0199AA
:104120000028C8D0BEE700BF1428002010280020B7
:104130003C280020402800203D400200993F02001A
:10414000209E02001828002070B5084D2B785BB126
:10415000074E00243368012113F8340001F094FD68
:104160002B780134A342F5D8002070BD1828002018
:104170001428002070B5094D2B7853B1084E002447
:10418000336813F8340001F0E1FD2B780134A342C9
:10419000F6D80448BDE8704000F0ACBD18280020F7
:1041A000142800201C28002000B585B000230390AF
:1041B000194644F2010001AAADF80430029300F060
:1041C00003F805B05DF804FB10B5FFF7A7FDFFF796
:1041D0000FFA0028FBD1104C10492088000440F051
:1041E0000100FFF71BFB0E4B1B68DB0700D5FFDE52
:1041F00020880C49000440F00200FFF70FFBBFF3DA
:104200004F8F0949094BCA6802F4E0621343CB603F
:10421000BFF34F8F00BFFDE730220020249E020035
:10422000F0ED00E0309E020000ED00E00400FA0531
:1042300012F0030301D0072070472DE9F0414C1C18
:104240000546DFF83C800B480B4F0C4EDFF834C0BE
:10425000DFF834E088F80030E400A4B214440370BE
:104260003D803180CCF80040CEF800201846BDE8F3
:10427000F08100BF4E2800204C280020502800204C
:104280004F28002048280020442800202DE9F0472E
:104290002C4D2B888B4282B00C4603D2092002B0F1
:1042A000BDE8F087064602A84FF0000800F8018D2F
:1042B000174600F05BFD244B244A254819781378F3
:1042C0000088DBB2834238BF0133C9B238BF5FFA1E
:1042D00083F841451FD092F800801378DFF878907A
:1042E000DBB283423ABF0133DBB200235FFA88F8C6
:1042F0009DF80700137000F061FDD9F800300FFA47
:1043000088F24FEAC20A43F83270534406B144B906
:1043100000209880C3E79DF8070000F04FFD0420BF
:10432000BDE70C4B28881B68314600FB083022464D
:1043300005F000FCD9F800309A440020AAF80440A7
:10434000ADE700BF4C2800204E2800204F28002059
:104350005028002048280020442800202DE9F0475C
:10436000174F184C3A7823789A4226D0DFF85C90A1
:10437000DFF85C80144EDFF85CA03B78D9F80020B1
:104380003088D8F80050DBB20FFA83FC02EBCC0186
:1043900000FB0350898852F83C3098473B78BAF8C4
:1043A0000020DBB29A4203F101038CBFDBB2002391
:1043B0003B703A7823789A42DFD1BDE8F08700BF9E
:1043C0004E2800204F2800204C28002044280020A0
:1043D0004828002050280020F8B5204A204B00250E
:1043E000C2F84051C2F84451C2F84851C2F84C5189
:1043F000C2F80051C2F804511B6813B31949D2F82E
:1044000004250C68141B1A6824F07F44A2422F462E
:1044100009D8197CDE69A41A154499B91EB133462E
:104420001A68A242F5D9104B10491A780B789A42B3
:104430000DD00F490F4A41F823504FF48013C2F8B2
:104440000031F8BD1F745A6998699047E6E7531C1C
:10445000DBB2022B08BF00230B70EAE7001001401B
:1044600058280020542800205C2800205D280020C7
:104470006C29002000E100E02DE9F04F7D4A7E49E3
:10448000137809787D48994287B0066800F0E88182
:104490000133DBB2022B08BF002379491370794A3C
:1044A0000291084652F82310036874488A190025BF
:1044B00022F07F420260AE462846A3B11A688A42C3
:1044C00000F2D681DC68C3F800E0891A1044DA698A
:1044D00034B1871927F07F47DD619C605F601D461E
:1044E0001346002BEAD1029A04931360049C012323
:1044F0000593654BDFF894811B780193029BDFF8ED
:1045000090C11F685D4BBB46D3F800A02F46002327
:104510000093C1461E464FF0010E37B37A68B96862
:104520003D46FF69CAEB020323F07F4363453CD855
:104530000B442B606E60AE6085F810E0EE61002CDD
:1045400067D021688B4242D9204603E01168994226
:1045500044D21046C2695B1A002AF7D12B60EA6187
:104560002346C5611C46002FD8D198F8003098F832
:1045700001209A4200F08E805A1C03EB430308EBA3
:10458000C30399F802109D68D2B2914289F80020C5
:104590001A7908BF89F80070022A48D0032A3CD053
:1045A000012A22D023461C46DDE7C2EB0A0222F094
:1045B0007F428A4202D28B1A2B60BBE72E606E606C
:1045C000AE6085F810E0EE611CB321680023CB1AC1
:1045D00023602B46EC61AB461C46C4E7C91A116048
:1045E0002B60EA612346C561BCE72A7C0392002A5E
:1045F000D8D1DA686A601969A9605869E86010332F
:104600009B68AB61019B002B8CD0039B6B601A46AF
:1046100088E72B46AB461C46A5E70CB9C2E71C460B
:10462000E3692674002BFAD19B461C469BE754B1E4
:10463000A54200F00881234602E0954207D01346C8
:10464000DA69002AF9D123462E741C468BE7AB4267
:1046500000F0FA80E9692868D9610029F3D023467F
:104660000A6802440A60009A2E749C4218BF012214
:104670000092EAE75C2800205D28002054280020F2
:10468000582800206C2900205E2800206028002087
:10469000FEFF7F00029B9DF80420C3F800B0764B1C
:1046A000C3F800A0754B1A70009B1BB9049BA34272
:1046B00000F0D081002C00F03C81714D6E4BD5F89C
:1046C00004051B686F4ED4F800C03178C21A22F07E
:1046D0007F420332002952D16B4FDFF8B091DFF8EF
:1046E000B0814FF480314FF4003E0124C5F84413EB
:1046F000C5F80413C7F880E1C7F800E02C602F214B
:10470000D9F8005000BF00BF00BF00BF00BF00BF0E
:1047100000BF00BF45452FD000BF00BF00BF00BF96
:1047200000BF00BF00BF00BF00BF00BF00BF00BF91
:1047300000BF00BF00BF00BF00BF00BF00BF00BF81
:1047400000BF00BF00BF00BF00BF00BF00BF00BF71
:1047500000BF00BF00BF00BF00BF00BF00BF00BF61
:1047600000BF00BF00BF00BF00BF00BF00BF00BF51
:1047700000BF00BF00BF00BF0139C3D13470624524
:104780002CBF9A1803EB0C023D4922F07F43C1F87D
:104790004035D1F80425121A1B1A22F07F4223F06B
:1047A0007F4303329A4248D9D1F80435374AC1F8D9
:1047B0004035126836492F2300BF00BF00BF00BF3D
:1047C00000BF00BF00BF00BF8A422FD000BF00BFA4
:1047D00000BF00BF00BF00BF00BF00BF00BF00BFE1
:1047E00000BF00BF00BF00BF00BF00BF00BF00BFD1
:1047F00000BF00BF00BF00BF00BF00BF00BF00BFC1
:1048000000BF00BF00BF00BF00BF00BF00BF00BFB0
:1048100000BF00BF00BF00BF00BF00BF00BF00BFA0
:1048200000BF00BF00BF00BF00BF00BF013BC3D13E
:10483000154B4FF40032C3F80021104A00231370C7
:1048400007B0BDE8F08F2246D4F81CB0BBF1000FD2
:1048500022D0D16910685B4600297FF401AF02E7DE
:104860000C4B02931B680493002505951C4640E6FB
:10487000521A1A6037E600BF542800205E28002034
:10488000001001407429002000E100E0BC2100205C
:104890000024F400582800207549764BC1F808E040
:1048A00075492F20096800BF00BF00BF00BF00BFCF
:1048B00000BF00BF00BF99422FD000BF00BF00BFA4
:1048C00000BF00BF00BF00BF00BF00BF00BF00BFF0
:1048D00000BF00BF00BF00BF00BF00BF00BF00BFE0
:1048E00000BF00BF00BF00BF00BF00BF00BF00BFD0
:1048F00000BF00BF00BF00BF00BF00BF00BF00BFC0
:1049000000BF00BF00BF00BF00BF00BF00BF00BFAF
:1049100000BF00BF00BF00BF00BF0138C3D1D169D5
:104920001068002900F09B800122DA465B46019264
:1049300096E64F4A514B504E4E484FF480314FF45B
:1049400000370125C3F88070C2F848132F23C2F83E
:104950000813556031681E4600BF00BF00BF00BF8E
:1049600000BF00BF00BF00BF81422FD000BF00BF0B
:1049700000BF00BF00BF00BF00BF00BF00BF00BF3F
:1049800000BF00BF00BF00BF00BF00BF00BF00BF2F
:1049900000BF00BF00BF00BF00BF00BF00BF00BF1F
:1049A00000BF00BF00BF00BF00BF00BF00BF00BF0F
:1049B00000BF00BF00BF00BF00BF00BF00BF00BFFF
:1049C00000BF00BF00BF00BF00BF00BF013EC3D19A
:1049D00095602B4A146000BF00BF00BF00BF00BF3E
:1049E00000BF00BF00BF81422FD000BF00BF00BF8B
:1049F00000BF00BF00BF00BF00BF00BF00BF00BFBF
:104A000000BF00BF00BF00BF00BF00BF00BF00BFAE
:104A100000BF00BF00BF00BF00BF00BF00BF00BF9E
:104A200000BF00BF00BF00BF00BF00BF00BF00BF8E
:104A300000BF00BF00BF00BF00BF00BF00BF00BF7E
:104A400000BF00BF00BF00BF00BF013BC3D10D4B83
:104A50001C70F2E6059B002B3FF4EFAE2AE6012323
:104A60001A4601938A468B460B4600922E74ECE55B
:104A7000001001400024F400BC21002000E100E00F
:104A800054280020742900202DE9F041594B5A4A3E
:104A90005A4D5B4E4FF480344FF400310120C2F880
:104AA0008010C3F848432F21C3F8084358602D688D
:104AB0000C4600BF00BF00BF00BF00BF00BF00BF6B
:104AC00000BFB5422FD000BF00BF00BF00BF00BF76
:104AD00000BF00BF00BF00BF00BF00BF00BF00BFDE
:104AE00000BF00BF00BF00BF00BF00BF00BF00BFCE
:104AF00000BF00BF00BF00BF00BF00BF00BF00BFBE
:104B000000BF00BF00BF00BF00BF00BF00BF00BFAD
:104B100000BF00BF00BF00BF00BF00BF00BF00BF9D
:104B200000BF00BF00BF013CC3D1364C98600020DD
:104B3000206000BF00BF00BF00BF00BF00BF00BFBC
:104B400000BFB5422FD000BF00BF00BF00BF00BFF5
:104B500000BF00BF00BF00BF00BF00BF00BF00BF5D
:104B600000BF00BF00BF00BF00BF00BF00BF00BF4D
:104B700000BF00BF00BF00BF00BF00BF00BF00BF3D
:104B800000BF00BF00BF00BF00BF00BF00BF00BF2D
:104B900000BF00BF00BF00BF00BF00BF00BF00BF1D
:104BA00000BF00BF00BF0139C3D1174D1749DFF85F
:104BB0006080DFF860C0DFF860E028704FF4801696
:104BC000E0250B27C8F800008CF800008EF80000E4
:104BD000087048708F70C2F8806182F814531660B4
:104BE000C3F8080582F81153D3F804352360BDE8F3
:104BF000F08100BF0010014000E100E0BC21002076
:104C00000024F4005428002074290020602800208B
:104C1000582800205C2800205D280020074B9B7846
:104C20000BB9082070473AB130B10368187C0028EE
:104C3000F7D159745A6170470720704760280020E7
:104C40002DE9F043284CA37883B01BB9082003B0AA
:104C5000BDE8F0830028F9D0042903D8072003B069
:104C6000BDE8F0834369002BF0D0064602A8737CB0
:104C70000025012B00F8015D0CBF8946A94690462E
:104C80000F4600F073F86378A07821785A1CD2B2EE
:104C9000904208BF2A4691421FD003EB430304EB26
:104CA000C30319464FF0010E41F8086F0F4883F80F
:104CB00004E0D0F804654E608F609DF80700C3F8EB
:104CC0001490C3F81880627000F078F8084B4FF425
:104CD00080122846C3F80021B9E79DF8070000F0CC
:104CE0006DF80420B3E700BF6028002000100140E9
:104CF00000E100E070B51B4CA37882B013B9082026
:104D000002B070BD0028FAD04369002BF7D00646E8
:104D100002A8002500F8015D357400F027F86278DC
:104D2000A0782178531CDBB2984208BF2B469942E9
:104D300012D002EB420204EBC20202219DF80700EE
:104D400096601171637000F039F8074B4FF48012D0
:104D50002846C3F80021D3E79DF8070000F02EF89D
:104D60000420CDE76028002000E100E0F0B4EFF37C
:104D7000108472B60E4B9A68B2B90E4901259D6037
:104D8000D1F880700C4D2E463D401D60C1F880600A
:104D9000D1F884505D604FF0FF33C1F88430027069
:104DA00004B962B6F0BC704701230370F8E700BF96
:104DB000282D002000E100E0FC06FFBD094B9A68A9
:104DC00072B168B910B4EFF3108272B606491C686C
:104DD0000C605C684C60986002B962B65DF8044B88
:104DE000704700BF282D002000E100E0B8B130B4CA
:104DF000416882680468521AD2B2531E2160DBB245
:104E000042B101680A685C1E551C0D601370E3B264
:104E1000FF2BF6D103680020187130BC70470E20BC
:104E2000704700BF70B582B002AB002503F8015D8A
:104E300004461846FFF79AFF236861681A688A4299
:104E400010D9511E19602168A3680E68087912F8FC
:104E5000015C228AE4689B1BDBB2984205FB024599
:104E600038BF0B719DF80700FFF7A8FF284602B076
:104E700070BD00BF30B583B002AB002203F8012D36
:104E8000054618460C46FFF771FF2A681368591C3F
:104E90001160E9682A8A641AB4FBF2F41C709DF868
:104EA0000700FFF78BFF03B030BD00BF826802B977
:104EB000704710B50446436921680069984700238C
:104EC000A36010BD0EB400B582B0039929B102AA47
:104ED00004AB42F8043D00F089F802B05DF804EB41
:104EE00003B070472DE9F84F1746B9428A46064687
:104EF0001D46DDF828B00B9A73D30B464FF001081E
:104F0000B3FBF7F39F4208F10108F9D9A84538BF70
:104F1000A84612F0010902D1BBF1000F41D1B168DE
:104F2000012402E0013D07FB04F4012DFAD8BAFB8D
:104F3000F4F39F42F7D92C4D02E0B168BAFBF4F3C9
:104F40004A1CB2603268E85C5054B06872689042A3
:104F500004FB13AA02D33046FFF7A8FFB4FBF7F413
:104F6000002CEAD1B9F1000F15D0BBF1000F12D01F
:104F7000C34510D92024B3683268591CB160D45499
:104F8000B26873689A420BF1FF3B06D2BBF1000F87
:104F900001D0C345EFD8BDE8F88F3046FFF786FF54
:104FA000F4E7930718D42024C345B8D9B16833680F
:104FB0004A1CB2605C54B168736899420BF1FF3BC4
:104FC00005D2BBF1000FABD0C345F0D8A8E73046FF
:104FD000FFF76CFFB168F4E7002D14BF20243024E4
:104FE000E2E74FF0010891E7489E02002DE9F04FFB
:104FF0000D4685B0002900F0B2800B78DFF8E8A4F8
:10500000064691460135002B00F0A580252B40F087
:10501000A28129464FF000080D4611F8013B2D2BC7
:1050200000F09381302B00F093812B2B00F08581D1
:105030002A2B00F09E81A3F13002092A00F2BE81E2
:105040006A1C002404EB840403EB44042A2BA4F11F
:105050003004154600F08E811378A3F13001092940
:1050600005F10102EED91A462E2A00F090810027A0
:1050700001E015F8012F02F0FB03682BF9D0253A67
:10508000532A63D8DFE812F0270162006200620051
:105090006200620062006200620062006200620000
:1050A00062006200620062006200620062006200F0
:1050B00062006200620062006200620062006200E0
:1050C00062006200620062006200620062006200D0
:1050D00062006200620062006200620062006200C0
:1050E00062006200620062006200620062004A01C7
:1050F00062006200620062006200620062006200A0
:10510000620062003601CE0062006200620062004E
:10511000CE00620062006200620062006200A900CC
:10512000620062006E0062005400620062004A0188
:10513000D9F800301A1DC9F80020196800943B46C0
:10514000CDF8048030460A22FFF7CCFE01352B78DB
:10515000002B7FF457AF337B002B40F06C8105B000
:10516000BDE8F08FD9F800301A1DC9F8002018F0FA
:10517000010F1F6840F02581002F00F0A5813846FF
:1051800004F0EBFC8046444515D9A4B14FF0200B48
:1051900000E084B1B2683368511CB16003F802B01A
:1051A000B26873689A4204F1FF3402D33046FFF7C5
:1051B0007DFE4445EDD8013F17F8013F002BC5D0D7
:1051C000B2683168501CB0608B54B26873689A4200
:1051D000F2D33046FFF76AFEEEE7D9F80020131D40
:1051E000C9F80030B36831681468581C3022B060C8
:1051F000CA54B3687268934280F018813268581CB0
:105200007821B060D154B26873689A4280F00A8104
:105210000823002201922146009330461022FFF716
:1052200061FE93E7D9F800301A1DC9F80020D3F8C1
:1052300000B08BEAEB73A3EBEB73092B4FF001018A
:1052400008DD8AFB0302DB17C3EBA203092B01F184
:105250000101F6DCB94238BF394634B1BBF1000F69
:1052600002DB18F0040F00D0013C18F0020F40F0F0
:10527000D58018F0010F18D1002C00F006818C4267
:1052800013D94FF0200CB2683368501CB06003F89B
:1052900002C0B26873689A4204F1FF3480F0F7806C
:1052A000002C00F0F2808C42EDD8BBF1000FC0F270
:1052B0000D8118F0040F40F0F48008F00303022B76
:1052C00000F0BF808DE8100159463B4630460A2267
:1052D000FFF708FE3AE7B3683268581C2521B06032
:1052E000D154B26873689A42FFF430AF3046FFF78A
:1052F000DDFD2BE7D9F80020131DC9F80030B36895
:1053000031681278581CB060CA54B26873689A4207
:10531000FFF41CAF3046FFF7C9FD17E7D9F800309E
:105320001A1DC9F80020196800943B46CDF8048086
:1053300030461022FFF7D6FD08E70D4611F8013B75
:105340002D2B48F004087FF46DAE48F0010863E6A9
:1053500048F0020860E6B2683168501CB0608B54B7
:10536000B26873689A42FFF4F2AE3046FFF79EFDD2
:10537000EDE60024D9F800301A1DC9F800206A783B
:105380001B682E2A1C4405F101057FF470AE6A7873
:10539000A2F13003092B05F101054FF000073FF69C
:1053A0006AAE07EB870702EB470715F8012FA2F15A
:1053B0003003092BA7F13007F3D95CE61A46002425
:1053C00052E6B846C7EB080B18F8012B8AB1B16852
:1053D0003368481CB0605A54B26873689A42F1D37B
:1053E0003046FFF763FDC7EB080B18F8012B002AC6
:1053F000EDD15C457FF6AAAE2027B3683268591C10
:10540000B160D754B26873689A4204F1FF3402D392
:105410003046FFF74BFD5C45EFD897E6002F3FF491
:1054200044AF26E73046FFF741FDF1E63046FFF78F
:105430003DFDB368E2E6304605B0BDE8F04FFFF74A
:1054400035BD002F7FF43EAF002C3BD08C427FF661
:1054500039AF4FF0300CB2683368501CB06003F8BD
:1054600002C0B26873689A4204F1FF3403D24CB3AD
:105470008C42F0D826E73046CDF80CC00291FFF7F9
:1054800015FDDDF80CC00299F1E700240DE7304668
:10549000CDF80CC00291FFF709FDDDF80CC00299B0
:1054A000FEE6B268531CB36033682B209854B26890
:1054B00073689A42FFF401AF30460291FFF7F6FCA1
:1054C0000299FAE60024FDE6B8465CE6B268531C91
:1054D000B36033682D209854B26873689A42CBF158
:1054E000000BFFF4EAAEE7E767666666FFF77EBC8F
:1054F0002DE9F041B0F81080A8F104084144CF1C18
:105500000646FFF78FFCB7FBF8F7044678B3FFB207
:1055100000250123013FA0F8068006600571437154
:1055200028D0804609E06379AF4203F1010363713B
:10553000C8F80000066080461CD03046FFF772FCB9
:1055400001350028EFD16679721E234603D0013061
:1055500082421B68FBD81F684EB100252368214694
:10556000013538461C46FFF785FCAE42F6D10020D7
:10557000BDE8F0812046BDE8F08100BF10B40430E2
:10558000012350E8002F02EB030140E8001494F0DF
:10559000000FF6D15DF8044B704700BF0146021DB5
:1055A000F8B5012052E8004FA4EB000342E80035B3
:1055B00095F0000FF6D113F0FF0300D0F8BD4E793F
:1055C000701E0A4603D0013398421268FBD8176850
:1055D000002EF3D000240D6801343846FFF74AFC52
:1055E000A6422946F7D1F8BD2DE9F0410446181D21
:1055F000E688B0FBF6F30F46154606FB130013B121
:10560000013B2468FCD1321AAA4228BF2A468DB138
:105610004FF000082044AD1A07EB08010430904415
:1056200004F088FAB5422A46246828BF3246002092
:10563000002DEFD1BDE8F0812DE9F041C68804339B
:1056400004460F46B3FBF6F0154606FB103110B1C9
:1056500001382468FCD1721AAA4228BF2A468DB1AB
:105660004FF000082144AD1A043107EB08009044C4
:1056700004F060FAB5422A46246828BF3246002169
:10568000002DEFD1BDE8F08101600B6843604A68EE
:10569000934204BF00234360704700BF426842B199
:1056A00001688B68134443604A68934204BF002337
:1056B00043607047184A30B402F1F005AB1ADB10B2
:1056C00003EBD3735B1002EBC30152F83330984203
:1056D00028BF0C4605D311E052F8333098420CD263
:1056E00021468B1ADB1003EBD3735B10914202EB64
:1056F000C304F1D8094830BC70470D46984204D91C
:1057000004F10802AA42D9D3F4E76068034B0028E9
:1057100008BF1846EFE700BF6CA102005CA20200C0
:1057200010B40023012401E0202B0AD004FA03F274
:10573000024299B203F10103F6D008465DF8044B2A
:1057400070474FF6FF705DF8044B704790B189B118
:1057500030B40238002402E00134202C09D030F8A3
:10576000025F9542F8D133B10A680123A340134385
:105770000B6030BC70470B680122A24023EA020391
:105780000B6030BCF6E700BF70B49DF80C60B8B198
:10579000B1B1AAB10238002402E00134202C0FD0AC
:1057A00030F8025F9D42F8D10120A04001EB820257
:1057B00046B9C0430B68034041F8043B9142F9D11C
:1057C00070BC70470B68034341F8043B9142F7D02B
:1057D0000B68034341F8043B9142F3D1F0E700BF6B
:1057E000F0B491B100252B46012606FA03F41442C9
:1057F00005D000EB450431F81370A7800135013363
:10580000202BF2D10560F0BC70470D460560F0BC5E
:10581000704700BF044B195C4FF0A04201238B403E
:10582000C2F80C35704700BF70A20200044B195C2F
:105830004FF0A04201238B40C2F80835704700BFEB
:1058400070A20200074B4FF0A041185CD1F804355C
:105850000122824022EA03001340C1F80805C1F882
:105860000C35704770A2020030B44FF0A043032201
:105870004FF400354FF480244FF400204FF4801192
:10588000C3F84427C3F84827C3F84C27C3F8502768
:10589000C3F80855C3F80845C3F80805C3F8081548
:1058A00030BC704700B1704710B5064CA3683BB1DF
:1058B0001A68A2605B6800209847A368002BF7D1A4
:1058C00010BD00BF7829002010B5012882B02AD071
:1058D00023D303281FD10020072100F097F802A846
:1058E0000023264C00F8013DFFF740FAE368013B36
:1058F000E360E3685BB9224B01221A604FF08042FB
:10590000D2F81834C3F30043002BF9D1A3709DF8EB
:105910000700FFF753FA02B010BD1A4B0122C3F87B
:10592000802002B010BD02A80023144C00F8013DF5
:10593000FFF71CFA237893B9124A6360A3602361CE
:10594000E360106810F0010014D003F041FF20B9AB
:105950004FF080430122C3F8182501232370E36828
:105960009DF8070001330122E360A270FFF726FAD9
:1059700002B010BD072100F049F8E6E778290020C1
:105980000C00004000E100E010B51D4B1A6882B029
:10599000F2B91C4B1A680AB902B010BD00221A6095
:1059A0001B6801934FF080430222174C0199C3F802
:1059B000082323690122A270002BEDD01A6822610E
:1059C0005B68012098472369002BF7D102B010BD16
:1059D00000221A601B6800934FF0804301220A4C9A
:1059E0000099C3F80823A3686270002BD1D01A680D
:1059F000A2605B6800209847A368002BF7D1C8E736
:105A0000000100400401004078290020002810B463
:105A100018DB00F1604303F561434901C9B283F823
:105A20000013C3B24009800000F1604000F56140FE
:105A300003F01F0201239340C0F8803103605DF83A
:105A4000044B7047C3B2044A03F00F0449012244D7
:105A5000C9B21176E6E700BFFCEC00E030B51D4CA2
:105A600094F8545083B015B1082003B030BD4FF006
:105A7000FF33FF220620072123636363A363E363ED
:105A800023646364A364E36423606360A360E360EE
:105A900023616361A361E361236284F85030636230
:105AA000A36284F85230E36284F8533084F85120C2
:105AB000FFF7ACFF084B094A1D601B680193019872
:105AC0004FF000430121284684F85410C2F80433F3
:105AD00003B030BD8C2900207C6100400060004094
:105AE000034B93F85400003018BF0120704700BFEB
:105AF0008C290020F0B5634C251895F93030002B27
:105B000001DB0820F0BD91F803E09446BEF1000FE0
:105B100056D02368013300F0AD80082600256B1CA9
:105B2000584F54F82320013251D0AB1C9E4245D926
:105B300057F8232001324AD0EB1C9E423ED957F839
:105B40002320013243D02B1D9E4237D957F8232002
:105B500001323CD06B1D9E4230D957F8237001377B
:105B600035D0AB1D9E4229D954F82320454F013230
:105B70002DD0EB1D9E4221D957F82320013226D08B
:105B800005F108039E4219D957F8232001321ED08F
:105B900005F109039E4211D957F82320013216D08E
:105BA00005F10A039E4209D957F8237001370ED038
:105BB0000B35AE4202D9E36A013307D00420F0BDB1
:105BC000236A01334ED00C260825A8E70B2326189C
:105BD000DDB244F823C086F83050BEF1000F02D188
:105BE000234483F848008B78ABB94A784FF0A0463D
:105BF00000F5E073920046F82320CB78ABB96AB287
:105C0000083A1444097894F8502042EA811284F842
:105C100050201846F0BD830003F1A043D3F80027BD
:105C200022F00202C3F80027E7E76BB29B0003F102
:105C3000804303F5C0430A78D3F8101521F44731A7
:105C400021F44071C3F810151204000202F440312F
:105C5000D3F8104500F4F8520A432243C3F8102544
:105C60000020F0BD082685F830603346C4F820C017
:105C70003546B5E7002385F83030C4F800C01D462E
:105C8000B1E700BF8C290020F0B42E4D2E1882B051
:105C900096F8302053B2072B1CDD2B4493F8483084
:105CA0009B09032B40D0012B0CBF4FF400314FF464
:105CB0004031800000F1A040D0F8002722F44032AB
:105CC000C0F80027D0F800370B43C0F8003702B007
:105CD000F0BC7047072AFAD8980000F1804000F520
:105CE000C04003F140029200D0F8104592B202F198
:105CF0008042002744F0010402F5C042C0F810457C
:105D00000197019817600029E1D096F9302055F8E5
:105D10002220002ADBD001220B4902FA03F3C1F84A
:105D2000043302B0F0BC70474FF0A043D3F81035F5
:105D3000C34013F0010F14BF4FF440314FF4003152
:105D4000B7E700BF8C29002000600040154B0344DA
:105D500093F8302053B2072B16DC072A13D810B45F
:105D60009A0002F1804202F5C0420F4CD2F81005B1
:105D7000012120F0010001FA03F3C2F81005C4F874
:105D800008335DF8044B7047800000F1A040D0F864
:105D9000003723F44033C0F80037D0F80037C0F89C
:105DA000003770478C290020006000404FF0A0436E
:105DB000D3F8103523FA00F000F00100704700BF5F
:105DC0002DE9F04786B00026A24B01961A68012AF9
:105DD00000F03281A04B1A68012A00F01F819F4B0E
:105DE0001A68012A00F00C819D4B1A68012A00F004
:105DF000F9809C4B1A68012A00F0E6809A4B1A68D9
:105E0000012A00F0D380994B1A68012A00F0C08063
:105E1000974B1A68012A00F0AD80964B1A68012A48
:105E200000F09B8016F0FF0F1AD0934F012500243D
:105E3000A30003F18043354203F5C0434FEA450513
:105E40000BD0D3F8100557F82420D3F81015C0F361
:105E50000420C1F3014102B190470134082CE7D17D
:105E6000002E02DB06B0BDE8F087844D00224FF023
:105E7000FF33A5F1530702920393814C4FF00008C2
:105E8000012614F8011FFF292BD0C9B221F0C00050
:105E900006AB4FEAD00E03EB0E0201F0070312F837
:105EA0000CCC06FA03F31CEA030F1AD007EB000C24
:105EB00089099CF930C057F82CC0BCF1000F3CD0C8
:105EC00003293CD04FEA800E0EF1A04E12F8149C2C
:105ED000DEF8002719EA030FC2F3014211D1032AA9
:105EE00036D0AC42CDD1B8F1000FBBD04FF0A043BB
:105EF000019AD3F810359342B4D0029A01930392D9
:105F0000BBE7022AEDD1032904D0BCF1000FE8D091
:105F1000E047E6E74FF44039DEF8002722F440324C
:105F2000CEF80027DEF8003708F1010849EA03033C
:105F30005FFA88F8CEF80037E7E70329D1D10DF1F1
:105F4000080A1AF80E9049EA03090AF80E90B9E710
:105F50000329DAD14FF40039DEE700221A601B680A
:105F600005934FF0A043059AD3F81035019346F0FE
:105F7000004657E7434AD2F8042312067FF54DAF97
:105F800000221A601B680493049B46F0800644E7D5
:105F90003C4AD2F8042351067FF53AAF00221A603A
:105FA0001B680493049B46F0400631E7354AD2F85B
:105FB000042390067FF527AF00221A601B68049324
:105FC000049B46F020061EE72E4AD2F80423D4068E
:105FD0007FF514AF00221A601B680493049B46F0FF
:105FE00010060BE7274AD2F8042315077FF501AF07
:105FF00000221A601B680493049B46F00806F8E62A
:10600000204AD2F8042357077FF5EEAE00221A602B
:106010001B680493049B46F00406E5E6194AD2F88F
:10602000042392077FF5DBAE00221A601B680493FD
:10603000049B46F00206D2E61249D1F8041311F08F
:10604000010105D01E601B680493049B1646C1E63F
:106050000E46BFE600610040046100400861004058
:106060000C61004010610040146100401861004064
:106070001C6100407C6100408C290020DF29002049
:10608000DB290020006000402DE9F0414479524EA8
:10609000E7003D19AD0006EB050E9EF81CC0BCF1F3
:1060A000000F02D00820BDE8F0817251CEF8043014
:1060B0000B7B91F800E0012B4FF0A0454FF001035E
:1060C00003FA0EF394BFC5F80C35C5F808350D7802
:1060D0004FF0A04E05F5E07501234EF825304D78C0
:1060E000FF2D6FD005F5E07CAB404FF00308CEF8F4
:1060F0000C354EF82C8091F802E0BEF1FF0F5ED017
:106100000EF5E07C4FF0A0434FF0040843F82C80DC
:10611000CB78FF2B51D04FF0010C4FF0A0480CFA78
:1061200003F3C8F80835CB7803F5E0734FF0030CA0
:1061300048F823C091F803C0437903EBC30306EB8F
:10614000830383F81EC0036891F800C0C3F808C534
:10615000C3F80C55C3F810E58D68C3F824554D7B82
:1061600091F80CE0003518BF0125BEF1020F2CD0CC
:10617000BEF1030F1ED0BEF1010F01D145F00205A3
:10618000C3F854554D79C3F8C0550AB340250722CA
:10619000C3F80453C3F8002590F904000979FFF708
:1061A00035FC3C4406EB84060123002033777077EE
:1061B000BDE8F08145F00605E2E79C46BCE74FF0FC
:1061C000FF3EA5E74FF0FF3595E745F00405D7E71B
:1061D0000722C3F80025E4E7E42900202DE9F04375
:1061E0004479424F4FEAC40E0EEB0405AD007E1910
:1061F00083B096F81D809DF828C01836B8F1000FBE
:1062000003D0112003B0BDE8F0837D590DB1012505
:1062100075710EEB0405AD0005F108063E443D44E2
:1062200071603272F36086F810C095F8216095F8BD
:106230001E8005F1200906F0FC056FF38205B8F118
:10624000FF0F89F8015006D001254FF0A04605FA4E
:1062500008F5C6F80C55056869B101F06040B0F169
:10626000005F08D0744407EB8407002310207B777D
:1062700003B0BDE8F08323B103F06040B0F1005FEC
:10628000F0D10020C5F84415C5F84825C5F83435C7
:10629000C5F838C5C5F81801D5F8183101930122A1
:1062A0000EEB04030199C5F85005C5F840052A61B5
:1062B00057F823301BB14023C5F80433A2E7D5F8C3
:1062C0001831002BFBD00EEB040307EB83039B7FFD
:1062D000FF2B08D001224FF0A04102FA03F3C1F8CE
:1062E000083500208EE700208CE700BFE42900205D
:1062F000104BD3F8182102B9704700B500210E4A9F
:10630000C3F8181183B0917FD3F818310193FF2996
:10631000019B05D001234FF0A0408B40C0F8083509
:10632000002353771372516813680448984703B0E9
:106330005DF804FB00300040E4290020EC29002037
:106340004FF04023D3F8182102B9704700B500215F
:106350000E4AC3F8181183B092F84210D3F81831DE
:106360000193FF29019B05D001234FF0A0408B40F2
:10637000C0F80835002382F8413082F82C30916A49
:10638000536A0348984703B05DF804FBE4290020F2
:10639000102A0020F0B50479724E6401331987B0D9
:1063A000DD7E183315B1082007B0F0BD4D7F1D719B
:1063B0000D686B1C0BD04FF0A0470123AB40C7F812
:1063C00008350B6803F5E073032547F823504B6845
:1063D0005F1C06D003F5E0734FF0A045002745F899
:1063E0002370037906EB43131B7F002B4DD003680A
:1063F0008D69C3F824550F7D4B7D05683B43C5F877
:106400006C3503680F684D68C3F80C75C3F81455F4
:106410000B7D012B00F09B80331905465A600B69F8
:1064200050483351EAB12B79097F2A6800EB4310B9
:10643000037F002B65D1C2F81C31D2F81C712A6889
:106440000197019FC2F84431D2F844212B68464895
:106450000092009AC3F80403286840F30730FFF75E
:10646000D5FA2B792A6806EB43131B7F002B44D007
:106470000823C2F80035344400200121E075A075DE
:106480002076A076E17607B0F0BD05688F69C5F883
:10649000247591F814E04D7D07684EEA0505C7F8AC
:1064A0006C550568D1F800E04F68C5F81475C5F85B
:1064B0000CE50D7D012DAFD18D686F1C05D005F564
:1064C000E0754FF0A04747F82530CB685D1C0DD034
:1064D00001254FF0A04705FA03F3C7F80835CB684C
:1064E00003F5E073032547F82350CB6805688F68F0
:1064F000C5F80835C5F810758EE70423C2F80035D5
:10650000B9E70023C2F81031D2F810712A68059754
:10651000059FC2F82031D2F820712A680497049FA1
:10652000C2F82431D2F824712A680397039FC2F875
:106530004431D2F844212B6802920C48029AC3F8E5
:106540000403286840F30730FFF760FA89E78B6897
:106550005D1CBAD003F5E0734FF0A045002745F865
:106560002370B2E72C2A00208000020010030200F2
:10657000F0B503793D4A04685B01D118097F002911
:106580006DD00021C4F80015D118384C4968B1B15C
:10659000017904EB4114217F002963D10168344C57
:1065A000C1F808430168334E090B4CB2640920342A
:1065B00001F01F01012505FA01F146F824100179C7
:1065C000076802EB4111D7F80C65097FD7F814551D
:1065D0004FF0FF3EA9B3D7F80815D7F81045C7F814
:1065E0000CE5C7F814E50068C0F808E5C0F810E548
:1065F000771C06D006F5E0764FF0A040022740F861
:1066000026706E1C06D005F5E0754FF0A0400226FE
:1066100040F82560651C06D004F5E0744FF0A040FA
:10662000022540F82450481C06D001F5E0714FF0D7
:10663000A040022440F8214013440022DA765A6038
:10664000F0BDD7F80815D7F81045C7F814E5C7F816
:106650000CE50068C0F808E5C0F810E5C8E7C4F824
:10666000001591E70168044C9AE700BF2C2A00202E
:106670008402020000E100E0100302002DE9F04175
:1066800003795A4D5B01EC1886B0247F44B101F0C8
:106690006044B4F1005F03D0102006B0BDE8F08183
:1066A0002B44DFF848E19F7D1FB1112006B0BDE803
:1066B000F08199609A759F82067976010EEB06014A
:1066C0000B7F2BBB0268C2F81C31D2F81C41026858
:1066D00005940124059F94600468D1F808C0C4F8AB
:1066E0001C31D4F81C310493049B8F8A8B8AD1F817
:1066F00004E0BFB201331CF807709BB28B82C4F870
:106700001C75BEF1000F33D0002006B0BDE8F0814B
:1067100003688A68C3F82071D3F8204103680294A3
:10672000029CC3F85871D3F85841036801948C7DDA
:10673000019FC3F84425C3F84845036801229A60C5
:106740004B68002BE0D1026801E0002B4CD1D2F85D
:106750002011D2F85831003318BF01230029F4D09A
:10676000002B0CBF00200F20AB1900229A7594E774
:106770008F7D8B8A01F110029BB2BB4226D2046846
:1067800004E093889BB2B3F5807F05D0D4F81C3128
:1067900001F11002002BF4D001F1100293889BB29A
:1067A000B3F5807FE5D0C4F81CE1D4F81C31039325
:1067B000039BB2F8048093881FFA88F801331CF811
:1067C00008809BB29380C4F81C85D2E793889BB263
:1067D000B3F5807F08D00268D2F81C31002BFBD0C3
:1067E0000123D3600020BFE70F20BDE72C2A002043
:1067F000F0B59B4C237F8FB0002B75D1994AD2F80E
:106800000413890548D4974BD3F80423520704D5C1
:10681000D3F80821002A40F0CA80924BD3F81C21FB
:10682000C2B1A28AA07D8E4992B282424FF000028C
:10683000C3F81C2180F0A980D3F81C210692069A87
:10684000888A8A8A8D6880B20132285C92B28A82F4
:10685000C3F81C05834BD3F84421DAB10022C3F8F6
:106860004421D3F84411A27E04910499002A40F0F7
:106870008980E27D7A4B6AB10022587ED968DA7548
:1068800001228DF830000B918DF828200AA893E89A
:10689000060090470FB0F0BDD2F824110029B2D005
:1068A000C2F82431D2F82411A37E07914FF401716C
:1068B0000798C2F808130BB901235360694A0223F1
:1068C0008DF82830D2F88034C2F88034E07DE26858
:1068D0000D9300238DF83000E375237621680B9229
:1068E00063680AA8984798E75E4BD3F82421002AEA
:1068F00040F09380D3F8101161B1C3F81021D3F8A0
:10690000101103910399D3F83C15E07DC9B2884278
:1069100000F0AA80534BD3F84421B2B10022C3F84F
:106920004421D3F84411E07D019101994C4960B1B3
:10693000D3F83C35C8688DF830300123CA750B9008
:106940008DF828300AA80AC99847464BD3F8202169
:10695000002A9FD00022C3F82021D3F82011A07D67
:10696000009100993E49002894D0D3F84C058B68DB
:106970008DF830008A750B938DF828200AC90AA873
:10698000984787E701221A6073E7D3F81C31059313
:10699000059B00283FF45EAF8B688DF830008A7548
:1069A0000B938DF828200AC90AA8984752E7E17D81
:1069B0002B4A002970D00021C3F80811D3F8081120
:1069C00008910899D068517ED3F818354354537E06
:1069D000D17D0133DBB25376627E214B8A427FF454
:1069E0001CAF1A7E002A6DD19B7E13B91D4B01226C
:1069F0005A601C4AE06863684FF40171C2F80813DA
:106A0000627E8DF83020002501220B902168E5750B
:106A10008DF828200AA89847FFE60022C3F8242111
:106A2000D3F82411029102218DF828100299D3F88D
:106A30008014C3F880140D91D3F83C15E368E27517
:106A400022768DF830100B93216863680AA8984766
:106A5000044BD3F84421002A3FF477AF5EE700BF30
:106A60002C2A002000200040217EF1B1D3F80072D2
:106A7000E17527F02001E6682569C3F800120123BB
:106A80008DF830008DF82830227621680B96E5606D
:106A900063680AA898473DE7C3F80811D3F80821AE
:106AA0000992099AD3F8183596E7E268E17501234F
:106AB0008DF830008DF828300B9294E80A000AA86F
:106AC000984727E7DE685D7E1869DA7501210022A4
:106AD000D8601A765A768DF828100B968DF83050BB
:106AE00093E806000AA8904797E600BF00B52B4B35
:106AF0001A6883B022B12A4AD2F80423D20328D4D8
:106B0000284B1A6822B1264AD2F8042390032CD4C9
:106B1000254B1A6822B1224AD2F80423510330D4FB
:106B2000224B1A6822B11E4AD2F80423120302D45F
:106B300003B05DF804FB00221A601D4A1B68019334
:106B400051681368019A4FF4A670984703B05DF836
:106B500004FB00221A60164A1B68019351681368EF
:106B6000019A4FF4A0709847CAE700221A60104AB1
:106B70001B68019351681368019A4FF4A2709847FB
:106B8000C6E700221A600A4A1B680193516813681D
:106B9000019A4FF4A4709847C2E700BF40810040BB
:106BA0000080004044810040488100404C8100400A
:106BB0004C2A00203EDF704708B500F05BF901F079
:106BC0001BF93C2001F0BCF900F062FDFDF7C6FBAB
:106BD000FCF70EFD0028F9D1FFF7ECFFF6E700BF48
:106BE000014B01221A7070475C2A002010B584B056
:106BF0004FF0A04304A94FF080522C4C01F8010D36
:106C0000C3F80C250022009222702948294B01224A
:106C1000FFF7E4FA08B145E020BF2378002BFBD052
:106C2000254B26491A680A2300BF00BF00BF00BFDA
:106C300000BF00BF00BF00BF8A422FD000BF00BF0F
:106C400000BF00BF00BF00BF00BF00BF00BF00BF4C
:106C500000BF00BF00BF00BF00BF00BF00BF00BF3C
:106C600000BF00BF00BF00BF00BF00BF00BF00BF2C
:106C700000BF00BF00BF00BF00BF00BF00BF00BF1C
:106C800000BF00BF00BF00BF00BF00BF00BF00BF0C
:106C900000BF00BF00BF00BF00BF00BF013BC3D1AA
:106CA00004B010BDFDF780FAB7E700BF5C2A0020F2
:106CB000A8A202005D2A0020BC2100200024F400CC
:106CC00010B584B04FF0A04304A94FF080522C4C73
:106CD00001F8010DC3F8082500220092227029480E
:106CE000294B0122FFF77AFA08B145E020BF23784B
:106CF000002BFBD0254B26491A680A2300BF00BF92
:106D000000BF00BF00BF00BF00BF00BF8A422FD03E
:106D100000BF00BF00BF00BF00BF00BF00BF00BF7B
:106D200000BF00BF00BF00BF00BF00BF00BF00BF6B
:106D300000BF00BF00BF00BF00BF00BF00BF00BF5B
:106D400000BF00BF00BF00BF00BF00BF00BF00BF4B
:106D500000BF00BF00BF00BF00BF00BF00BF00BF3B
:106D600000BF00BF00BF00BF00BF00BF00BF00BF2B
:106D7000013BC3D104B010BDFDF716FAB7E700BF61
:106D80005C2A0020A8A202005D2A0020BC2100206D
:106D90000024F40030B585B04FF0A0438DF80F10FB
:106DA0004FF08052002854D1C3F80C2500252C4CFC
:106DB0002C482D4B00950DF10F0101222570FFF796
:106DC0000DFA08B148E020BF2378002BFBD0274BF9
:106DD00027491A680A2300BF00BF00BF00BF00BFD9
:106DE00000BF00BF00BF8A422FD000BF00BF00BF5E
:106DF00000BF00BF00BF00BF00BF00BF00BF00BF9B
:106E000000BF00BF00BF00BF00BF00BF00BF00BF8A
:106E100000BF00BF00BF00BF00BF00BF00BF00BF7A
:106E200000BF00BF00BF00BF00BF00BF00BF00BF6A
:106E300000BF00BF00BF00BF00BF00BF00BF00BF5A
:106E400000BF00BF00BF00BF00BF013BC3D105B002
:106E500030BDC3F80825A9E7FDF7A6F9B4E700BFE0
:106E60005C2A0020A8A202005D2A0020BC2100208C
:106E70000024F400804BF0B50FCB85B08DE80F00F7
:106E80001F234FF0FF0E1D2704264FF080550324CB
:106E90008DF8033069467948794A8DF802E000237D
:106EA0008DF801708DF8006002958DF80C40FFF7A9
:106EB000EBF8002840F036824FF0A04303224FF059
:106EC00080414FF080506F4FC3F808054CF25035A9
:106ED000C3F87027C3F80C15C3F87827C3F80C154E
:106EE0003A68694C284600BF00BF00BF00BF00BF22
:106EF00000BF00BF00BFA2422FD000BF00BF00BF35
:106F000000BF00BF00BF00BF00BF00BF00BF00BF89
:106F100000BF00BF00BF00BF00BF00BF00BF00BF79
:106F200000BF00BF00BF00BF00BF00BF00BF00BF69
:106F300000BF00BF00BF00BF00BF00BF00BF00BF59
:106F400000BF00BF00BF00BF00BF00BF00BF00BF49
:106F500000BF00BF00BF00BF00BF0138C3D142F275
:106F60001076C3F80815334600BF00BF00BF00BF4E
:106F700000BF00BF00BF00BFA2422FD000BF00BFB4
:106F800000BF00BF00BF00BF00BF00BF00BF00BF09
:106F900000BF00BF00BF00BF00BF00BF00BF00BFF9
:106FA00000BF00BF00BF00BF00BF00BF00BF00BFE9
:106FB00000BF00BF00BF00BF00BF00BF00BF00BFD9
:106FC00000BF00BF00BF00BF00BF00BF00BF00BFC9
:106FD00000BF00BF00BF00BF00BF00BF013BC3D167
:106FE0002A4B00BF00BF00BF00BF00BF00BF00BFF3
:106FF00000BFA2422FD000BF00BF00BF00BF00BF34
:1070000000BF00BF00BF00BF00BF00BF00BF00BF88
:1070100000BF00BF00BF00BF00BF00BF00BF00BF78
:1070200000BF00BF00BF00BF00BF00BF00BF00BF68
:1070300000BF00BF00BF00BF00BF00BF00BF00BF58
:1070400000BF00BF00BF00BF00BF00BF00BF00BF48
:1070500000BF00BF00BF013BC3D1D720FFF7C6FD73
:107060009F20FFF72DFEE020FFF7C0FD0020FFF777
:1070700027FE3B680CE000BF98A20200A8A2020015
:10708000E16B0200BC2100200024F400C0D4010008
:1070900000BF00BF00BF00BF00BF00BF00BF00BFF8
:1070A000A3422FD000BF00BF00BF00BF00BF00BF82
:1070B00000BF00BF00BF00BF00BF00BF00BF00BFD8
:1070C00000BF00BF00BF00BF00BF00BF00BF00BFC8
:1070D00000BF00BF00BF00BF00BF00BF00BF00BFB8
:1070E00000BF00BF00BF00BF00BF00BF00BF00BFA8
:1070F00000BF00BF00BF00BF00BF00BF00BF00BF98
:1071000000BF00BF013EC3D1E320FFF76FFD44F68F
:1071100020633A6800BF00BF00BF00BF00BF00BFD0
:1071200000BF00BFA2422FD000BF00BF00BF00BF02
:1071300000BF00BF00BF00BF00BF00BF00BF00BF57
:1071400000BF00BF00BF00BF00BF00BF00BF00BF47
:1071500000BF00BF00BF00BF00BF00BF00BF00BF37
:1071600000BF00BF00BF00BF00BF00BF00BF00BF27
:1071700000BF00BF00BF00BF00BF00BF00BF00BF17
:1071800000BF00BF00BF00BF013BC3D1E120FFF73C
:107190002DFD1120FFF72AFD2820FFF727FD3B6872
:1071A00000BF00BF00BF00BF00BF00BF00BF00BFE7
:1071B000A3422FD000BF00BF00BF00BF00BF00BF71
:1071C00000BF00BF00BF00BF00BF00BF00BF00BFC7
:1071D00000BF00BF00BF00BF00BF00BF00BF00BFB7
:1071E00000BF00BF00BF00BF00BF00BF00BF00BFA7
:1071F00000BF00BF00BF00BF00BF00BF00BF00BF97
:1072000000BF00BF00BF00BF00BF00BF00BF00BF86
:1072100000BF00BF013DC3D1C020FFF7E7FC5320F2
:10722000FFF74EFD0120FFF74BFDC320FFF7DEFC0B
:107230000220FFF745FDC420FFF7D8FC0620FFF72A
:107240003FFDD020FFF7D2FC1D20FFF739FDB52010
:10725000FFF7CCFC0020FFF733FD3920FFF7C6FC19
:107260003A20FFF7C3FC0220FFF72AFD3620FFF784
:10727000BDFC0020FFF724FDB020FFF7B7FC9F20E6
:10728000FFF71EFDB420FFF7B1FCA020FFF718FDAB
:107290003020FFF7ABFC0020FFF712FD0020FFF7C6
:1072A0000FFD0020FFF70CFD7720FFF709FD2020E0
:1072B000FFF79CFC2A20FFF799FC0020FFF700FD58
:1072C0000020FFF7FDFC0020FFF7FAFC2A20FFF763
:1072D000F7FC2B20FFF78AFC0020FFF7F1FC0020D1
:1072E000FFF7EEFC0020FFF7EBFC104D104C9F2049
:1072F000FFF7E6FC00262C20FFF778FC2E602660C6
:107300000020FFF7DDFC236801332A2B2360F7DD23
:107310002B6801339F2B2B60F1DD2920FFF766FCE2
:1073200005B0F0BDFCF740FFC6E500BF602A0020B5
:10733000582A002073DF704776DF70477ADF704786
:107340007CDF70477FDF70478FDF7047A8DF7047B3
:10735000A9DF704766DF7047FCF726BF0248034A83
:107360000121FCF793BF00BF642A0020CD73020007
:107370000248034A0121FCF789BF00BF652A0020AB
:10738000D57302000248034A0121FCF77FBF00BF0A
:10739000B4210020E573020000B583B08DF807002A
:1073A0000DF1070031B90121064AFCF76FFF03B068
:1073B0005DF804FB0121044AFCF768FF03B05DF8A7
:1073C00004FB00BF7D740200C97402000220FEF7B6
:1073D00039BA00BF08B500F047FE0120BDE80840FB
:1073E000FEF730BA10B50A4C207800F0A9FD2378DA
:1073F0003BB1013BDBB223700020BDE81040FEF73B
:1074000021BA0A2323700020BDE81040FEF71ABA03
:10741000B4210020072A1DD8DFE802F0070A0D106A
:10742000131619040320FEF7F5B90020FEF7FEB984
:107430000020FEF7EFB90120FEF7F8B90120FEF7B2
:10744000E9B90220FEF7F2B90220FEF7E3B9032002
:10745000FEF7ECB9704700BF08B5037803B108BD6B
:10746000054B3B211888FFF767FF0028F7D0BDE8E0
:107470000840FCF799BE00BFB621002003780D3B01
:10748000032B1BD8DFE803F0140E08020C4B0D4948
:107490001888202202F0FCB8094B0A4918881E22DD
:1074A00002F0F6B8064B074918881C2202F0F0B823
:1074B000034B044918881A2202F0EAB8704700BF4B
:1074C000B6210020602B002003780D3B032B1BD836
:1074D000DFE803F0140E08020C4B0D491888212236
:1074E00002F0D6B8094B0A4918881F2202F0D0B81A
:1074F000064B074918881D2202F0CAB8034B0449FD
:1075000018881B2202F0C4B8704700BFB6210020C3
:10751000602B002010B50388013B84B00446552B36
:1075200054D8DFE803F08B535353535353535353FF
:107530005353535353922B53A253535353535353B5
:107540005353535353535D53535353535353535301
:1075500053535353535353535353535353535353FB
:1075600055535353535353535353535353535353E9
:10757000535353535353698153535355404B4149CC
:107580001888000440F00300FCF748F93E4B4FF622
:10759000FF721A80FCF7EEFD08B1FCF705FE002132
:1075A0001022684602F0D1FA0023402268460121E9
:1075B0008DF8003001938DF80830ADF80C30ADF83F
:1075C0000A20FFF7B7FE08B1FCF7EEFD04B010BDCE
:1075D00080881321FFF7B0FE0028F5D104B010BD5C
:1075E000002380888DF8003069468DF80130FFF760
:1075F000ABFE0028EAD0E7E78279837B002AE5D05A
:10760000043B022BE2D8022A0CBF022201224FF4D3
:10761000C17380888DF800206946ADF80430FFF70B
:1076200095FE0028D2D0CFE7174B002118880A46D4
:107630000B46FFF78DFE0028C8D0C5E780880021E3
:10764000FFF788FE0028C1D0BEE70D4B0F49188810
:10765000000440F00300FCF7E1F80B4BA2881A800D
:10766000FCF772FD0028B1D0AEE7074B0022188866
:1076700085211346FFF766FE0028A7D0A4E700BFC8
:1076800030220020C0A20200B6210020B4A20200D5
:10769000F0B5A1B0FEF7E8F80020FBF73BFF08B11A
:1076A000FCF782FDFBF728FFFDF7EEF98248834ADD
:1076B0000121FDF7B3FA002840F0FA808048814AA2
:1076C0000121FDF7ABFA002840F0EF807E487F4AA9
:1076D0000121FDF7A3FA08B1FCF766FD7C484FF4E1
:1076E00000410022FDF7ACFA08B1FCF75DFD7948D6
:1076F00041F69A110022FDF7A3FA08B1FCF754FDF8
:10770000754841F69A110022FDF79AFA08B1FCF784
:107710004BFD7248042140F26662FCF7BDFC08B1E3
:10772000FCF742FD04200A216D4AFCF781FD08B1F7
:10773000FCF73AFD01F0CEFF002840F0B38020AC0A
:10774000002344F83C3D0120214602F089F800283E
:1077500040F0A580204602F037F908B1FCF724FD7F
:107760009DF808305F48012262F3030320AD62F305
:10777000071305F8783D02F0F0F95A4982B228461D
:10778000FFF7DEFD002840F0878000210822204618
:1077900002F0DBF95026A02100224FF4C8732046E6
:1077A000ADF84460ADF84610ADF84820ADF84A3069
:1077B000FFF7C4FD08B1FCF7F7FC4B48002101F0CE
:1077C0005DFB08B1FCF7F0FC484B4948119321469A
:1077D00001F074FE08B1FCF7E7FC454A927C8DF895
:1077E000062041F2235300213C222846ADF8043004
:1077F000012602F0AAF902270623002120463C2296
:107800008DF80B308DF808708DF80A6002F09DF944
:1078100001AB28462146ADF85460169300F0E4FE13
:1078200008B1FCF7C1FC00211C22204602F08DF9B2
:107830004FF4202700234FF4203603252D492E4AEC
:1078400011932046ADF852308DF8543012971396AC
:107850008DF850501691179201F03EFA08B1FCF7DE
:10786000A3FC00211022204602F06FF900234022E1
:10787000204601218DF8443012938DF84C30ADF83C
:107880005030ADF84E20FFF755FD08B1FCF78CFCE9
:1078900000F014FC21B0F0BDFCF786FC75E7FCF7A6
:1078A00083FC57E7FCF780FC49E7FCF77DFC0DE71C
:1078B000FCF77AFC02E700BFE0A202008573020039
:1078C000DCA2020071730200B0A202005D7302002C
:1078D000402B00200C2B0020EC2A002094210020BB
:1078E000682A0020D0A202002C2B00201574020070
:1078F000602B00205974020059730200F8B5214E24
:10790000214C224D0F46A6FB00362A210020FFF70E
:1079100041FA760801200021FFF73CFA31460120A8
:10792000FFF738FA01200021FFF734FA711D01201A
:10793000FFF730FA00202B21FFF72CFA012000215D
:10794000FFF728FAC7F19F01C9B20120FFF722FA19
:1079500001200021FFF71EFAC7F1C701C9B20120BB
:10796000FFF718FA00202C21FFF714FA00232360F8
:10797000E95C0120FFF70EFA23680133EF2B236047
:10798000F6DDF8BDABAAAAAA782B0020E8A7020072
:10799000F8B5214E214C224D0F46A6FB00362A2178
:1079A0000020FFF7F7F9760801200021FFF7F2F930
:1079B00031460120FFF7EEF901200021FFF7EAF937
:1079C000711D0120FFF7E6F900202B21FFF7E2F9F6
:1079D00001200021FFF7DEF9C7F19F01C9B20120A4
:1079E000FFF7D8F901200021FFF7D4F9C7F1C7014B
:1079F000C9B20120FFF7CEF900202C21FFF7CAF908
:107A000000232360E95C0120FFF7C4F923680133F8
:107A1000EF2B2360F6DDF8BDABAAAAAA782B0020D5
:107A2000E4A2020001282DE9F84304460E4664D082
:107A3000022801D0BDE8F88300202A21FFF7AAF927
:107A400001200021FFF7A6F901201A21FFF7A2F972
:107A500001200021FFF79EF901202A21FFF79AF962
:107A600000202B21FFF796F901200021FFF792F962
:107A70005C4D01200621FFF78DF901200021FFF761
:107A800089F9A5FB063501200D21FFF783F96D0863
:107A900000202C2105EB4508FFF77CF9C8EB060810
:107AA0005FFA88F8EDB2082756B92A240120002190
:107AB000FFF770F9013CF9D1013FF5D1BDE8F8833A
:107AC00001200321FFF766F9012435B101340120BB
:107AD000FF21FFF75FF9AC42F8DDB8F1020F75D076
:107AE000B8F1010F78D0102CE6DC01340120002120
:107AF000FFF750F9112CF8D1DEE700202A21FFF71B
:107B000049F920460021FFF745F920460021FFF7FB
:107B100041F920460021FFF73DF920460F21FFF7EC
:107B200039F900202B21FFF735F920460021FFF716
:107B300031F920460621FFF72DF920460021FFF7F5
:107B400029F920460D21FFF725F900202C21FFF708
:107B500021F9244BA3FB06235B08C3F10F05002D7D
:107B600003EB4303A6EB0306CCBFA8464FF0000887
:107B7000F6B208F101090827002DC8BF002406DD70
:107B8000013401200021FFF705F9AC42F8D1012EA4
:107B90000DD0022E14D0444601340120FF21FFF7FE
:107BA000F9F8102CF8D1013FE6D1BDE8F883304652
:107BB0000321FFF7EFF84C46B9F1100FECD1F2E7D3
:107BC00001201F21FFF7E6F84C46F5E70120E021F0
:107BD000FFF7E0F8013486E7404600210134FFF763
:107BE000D9F880E7ABAAAAAA70B50C46054650B1F1
:107BF00001287ED0022800F0A58003283ED05CB387
:107C0000012C64D070BD2A21FFF7C4F80120294659
:107C1000FFF7C0F801202946FFF7BCF801202946EC
:107C2000FFF7B8F801200221FFF7B4F828462B210E
:107C3000FFF7B0F801202946FFF7ACF80120142126
:107C4000FFF7A8F829460120FFF7A4F801201D211D
:107C5000FFF7A0F8002CD3D1444D454E2C212046EF
:107C6000FFF798F82C602146715C0120FFF792F82D
:107C7000296801311D292960F6DD70BD00202A2107
:107C8000FFF788F801200021FFF784F80120272161
:107C9000FFF780F801200021FFF77CF8012029215F
:107CA000FFF778F800202B21FFF774F8012000215E
:107CB000FFF770F801201421FFF76CF80120002174
:107CC000FFF768F801201D21FFF764F897E700200F
:107CD0002C21264D274CFFF75DF800232B60E15C3B
:107CE0000120FFF757F82B6801331D2B2B60F6DDC1
:107CF00070BD00202A21FFF74DF828460021FFF72C
:107D000049F828460321FFF745F828460021FFF7E8
:107D100041F828460521FFF73DF800202B21FFF709
:107D200039F828460021FFF735F828461421FFF7D7
:107D300031F828460021FFF72DF828461D21FFF7CE
:107D400029F85CE700202A21FFF724F80120002110
:107D5000FFF720F801202421FFF71CF80120002163
:107D6000FFF718F8012026219AE700BF782B0020A2
:107D7000C8A70200A8A7020038B500202A21FFF7F3
:107D800009F801200021FFF705F801200921FFF77C
:107D900001F801200021FEF7FDFF01202121FEF75F
:107DA000F9FF00202B21FEF7F5FF01200021FEF74F
:107DB000F1FF01202821FEF7EDFF01200021FEF751
:107DC000E9FF01203B21FEF7E5FF094C094D0020AA
:107DD0002C21FEF7DFFF00232360E95C0120FEF782
:107DE000D9FF23680133B3F5FA7F2360F5DB38BD93
:107DF000782B0020D4A3020070B500202A21FEF7C2
:107E0000C9FF01200021FEF7C5FF01200021FEF778
:107E1000C1FF01200021FEF7BDFF01202A21FEF74E
:107E2000B9FF00202B21FEF7B5FF01200021FEF74E
:107E3000B1FF01200021FEF7ADFF01200021FEF778
:107E4000A9FF0E4D0E4C01209F21FEF7A3FF002637
:107E500000202C21FEF79EFF2E6026600120FF21CE
:107E6000FEF798FF236801332A2B2360F6DD2B6889
:107E700001339F2B2B60F0DD70BD00BF782B0020FD
:107E80007C2B00202DE9F0412A4F2B4E0D46A7FBFD
:107E9000001400202A219846A7FB02276408FEF759
:107EA00079FF01200021FEF775FF21460120FEF732
:107EB00071FF7F0801200021FEF76CFF3946012089
:107EC000FEF768FF00202B21FEF764FF0120002150
:107ED000FEF760FFC5F19F01C9B20120FEF75AFF0E
:107EE00001200021FEF756FFC8F19F01C9B2012011
:107EF000FEF750FF00202C21FEF74CFF00233F1B14
:107F0000336015D40D4CC8EB05059846002DC4F818
:107F1000008009DB01200021FEF73CFF23680133CC
:107F20009D422360F6DA33680133BB423360EDDDF6
:107F3000BDE8F081ABAAAAAA782B00207C2B0020F8
:107F40002DE9F0412A2106460020FEF723FF0120FB
:107F50000021FEF71FFF01201221FEF71BFF012069
:107F60000021FEF717FF01201421FEF713FF002068
:107F70002B21FEF70FFF01200021FEF70BFF374FEB
:107F8000374D384C01200221FEF704FF012000216B
:107F9000FEF700FFA7FB063701201121FEF7FAFECE
:107FA000FF0800202C21FEF7F5FE07EB4707002312
:107FB0003F012B603B440120E15CDFF8A480FEF729
:107FC000E9FE2B6801332F2B2B60F3DD00202A21E3
:107FD000FEF7E0FE01200021FEF7DCFE0120162165
:107FE000FEF7D8FE01200021FEF7D4FE0120182163
:107FF000FEF7D0FE00202B21FEF7CCFE0120002151
:10800000FEF7C8FE01200221FEF7C4FE0120002178
:10801000FEF7C0FE01201121FEF7BCFE00202C213E
:10802000FEF7B8FE0D4BA3FB0623DB0803EB83032F
:10803000A6EB4306F6B206EB460600233601C8F867
:10804000003033440120E15CFEF7A4FE2B680133CD
:108050002F2B2B60F5DDBDE8F08100BFCDCCCCCC63
:10806000782B0020C8A5020010B5124C207800F132
:10807000120227210023D2B2FFF704FF2068053047
:108080008028CABF0020206020600B4C2378D8BF16
:10809000C0B2272133B9FFF77BFC237883F00103BB
:1080A000237010BDFFF72AFC237883F001032370AF
:1080B00010BD00BF802B0020B8210020002008B593
:1080C0007F2203469F21FFF7DDFE01203021FFF7CD
:1080D000A9FC02203021FFF7A5FC00200121FFF7B9
:1080E00083FD01200021FFF77FFD02200021FFF723
:1080F0007BFD03200121FFF777FDFFF73DFE3C20CC
:10810000BDE80840FFF71CBF6DDF704772DF7047A6
:1081100079DF70477DDF704764DF7047F0B5048812
:10812000012C83B007D0148804F1020E9E4505D9B6
:108130000C2003B0F0BD072003B0F0BD0578012D81
:1081400004D1457802352544AB42F1D3023B0F46BA
:108150001C1B02A9A4B2054621F8024D07EB0E0034
:108160001646FFF7D7FF0028E3D12B78022B17D054
:10817000012B11D023460821FE2BD9D83288581C58
:10818000B8543288013292B23280B9543288013206
:10819000134433800020CCE76B789C42EBD2E9E7B4
:1081A000BDF806309C42E5D30921E5E72DE9F04F03
:1081B00085B083460E9D00882C880194BDF83C90C4
:1081C00000284ED000278A46164698463C4604E0D2
:1081D000BBF800300134A34226DDDBF8043053F84D
:1081E000240003900DF10B0103A80022FFF794FF78
:1081F00018BB9DF80B30B342EAD10FB32A8893190C
:108200004B4519DC424403A80DF10B010127FFF790
:1082100083FF90B92B889DF80B2013442B80BBF86B
:1082200000300134A342D8DCDFB12B88019A013B36
:108230009B1A9BB2FF2B12D90C2005B0BDE8F08F22
:108240002B885A1C334402334B4592B2F4DC2A800B
:1082500008F802A02A88013292B22A80D2E708F8F0
:108260000230002005B0BDE8F08F00BF2DE9F047D7
:1082700000231788138090F82D3086B014460546E9
:108280000E46002B40F0C880AA78002A40F0F0800B
:10829000EA78002A2CD1696899B1DA1CBA420978C7
:1082A00022D80222F254238801339BB20A2223806F
:1082B000F254238801339BB22380F1542388013385
:1082C00023802B89002B40F0F7802B8A002B40F075
:1082D0000C812B8B002B40F021812B6A002B5CD072
:1082E0002288911DB94218D90C2006B0BDE8F0874C
:1082F000D91CB942F8D80221F154238801339BB22A
:1083000001212380F15423880B449BB22380F25433
:1083100023880B449BB22380BDE71988052940F2CE
:10832000C9806FF4486801EB080080B24FF27D3ECF
:10833000704540F2BF805888052840F2BB806FF43A
:10834000486C84441FFA8CFCF44540F2B3804FF62D
:10835000FF7E714504D0704502D0814200F2AA80B0
:108360000521B1542288013292B212212280B154E7
:108370002288013292B222801988B1543244090A0B
:1083800051702288023292B222805B88B354324408
:108390001B0A53702388023323806B6A002B2BD077
:1083A000998820880A1D0244BA429DD88A1CFE2A58
:1083B0009AD8033131542288013292B2FF212280AF
:1083C000B1542288013292B222801988B1543244C9
:1083D000090A51702088023080B220809A885AB1F0
:1083E00099680393002965D0304401F0A3FB039BF7
:1083F00022889B881344238095F82C30002B40F072
:10840000A680287800283FF470AF284631462246DF
:108410003B46FFF783FE68E7082F7FF665AF04A8A9
:10842000FFF772FE00287FF460AF23880822F25421
:10843000238801339BB21B222380F2542088013011
:1084400080B22080062230440DF1110101F072FB50
:1084500023889DF8102006339BB212F0FE0218BF4D
:1084600001222380F254238801339BB223800BE73F
:108470000433BB423FF638AF04A8FFF749FE00289B
:108480007FF433AF2388BDF810200321F1542388F3
:1084900001339BB219212380F154238801339BB20D
:1084A000F1182380100AF2544870238802339BB2DB
:1084B0002380EDE6072018E705F1080802218DE882
:1084C000900040460A463346FFF770FE00287FF4CE
:1084D0000CAF8DE890004046062110223346FFF78E
:1084E00065FE00287FF401AFEFE605F110088DE886
:1084F00090004046032102223346FFF757FE002832
:108500007FF4F3AE8DE890004046072110223346F9
:10851000FFF74CFE00287FF4E8AEDAE605F1180814
:108520008DE890004046142102223346FFF73EFEBC
:1085300000287FF4DAAE8DE8900040461521102225
:108540003346FFF733FE00287FF4CFAEC5E6D5F8FB
:108550002880B8F1000FADD0B8F804200232FE2A0E
:108560003FF6C2AE23884FF000094FF0160A0132E1
:10857000F254238801339BB2238006F803A023889A
:1085800001339BB22380B8F80020F2543344120A1E
:108590005A70238802339BB22380B8F80410F01875
:1085A0000A4661B1D8F808301946002B82D001F094
:1085B000C1FAB8F80430228813449BB2238009F131
:1085C000010995F82C205FFA89F94A4509EB490819
:1085D0007FF617AFAA6A02EB8808B8F804200232C7
:1085E000FE2AC4D980E600BF2DE9F04794B01F23CE
:1085F0000D46ADF80E30044600285AD0C278530715
:1086000053D590F82D300021ADF80C10002B6BD114
:108610008378002B40F0AB801846032114AE5F1C1A
:108620000233304416FA87F716FA83F64FF0020E3B
:108630008BB2012100F840ECADF80C3007F8401C7B
:1086400006F8402C6268B2B1D91C1F29167828D8C8
:1086500014AF581C9A1C17FA80F03B4417FA82F2A8
:108660004FF0020E0A2703F840ECADF80C1000F8AA
:10867000407C02F8406C2389002B40F08581238ADE
:10868000002B40F09F81238B002B40F0B981236A9F
:10869000002B00F0D880BDF80C20911D1F2940F25E
:1086A0008F800C2014B0BDE8F087072014B0BDE81F
:1086B000F087ADF80C00002D00F00481EB78002B62
:1086C000F3D128460CA90DF10E02FFF7CFFD0028CB
:1086D000ECD19DF80E300CAA20469DF80C10FFF747
:1086E00015FD14B0BDE8F0870CAF3846FFF70CFD60
:1086F0000028DBD1BDF80C3014AA03F1010C12FAEA
:108700008CFC03F1020E13441FFA8EFE04AE4FF0F0
:1087100008094FF01B0803F8409C0DF131010622B7
:1087200006EB0E000CF8408CADF80CE001F002FAFC
:10873000BDF80C209DF83010931D11F0FE019BB286
:1087400040F07C8114A8034403F8401CD31DA27898
:108750009BB2ADF80C30002A40F01181E278002A7B
:108760003FF470AFD91C1F2918469AD856E70CAFB2
:108770003846FFF7CDFC002898D1BDF80C30BDF885
:108780003070E278991C0DF1500E581C89B204AE7D
:108790000EEB03091EFA80F0043306EB010E4FF0D6
:1087A000030A4FF019089BB24FEA172C09F840ACA6
:1087B000ADF80C3000F8408C77548EF801C0CEE74D
:1087C000188805287FF671AF6FF4486C00EB0C0633
:1087D000B6B24FF27D37BE427FF667AF5E88052E98
:1087E0007FF663AF6FF4486EB6441FFA8EFEBE4547
:1087F0007FF65BAF4FF6FF77B84204D0BE4202D09F
:10880000B0423FF652AF14A8561C10FA86F600EBA1
:10881000020E901C80B212274FF0050C0EF840CCCF
:10882000ADF80C0006F8407C1F88ADF80C1004AEC3
:108830003118375404323F0A4F7092B25B88B354F8
:1088400032441B0A5370676A9FB3B888BDF80C3076
:10885000811C9A1C56181F2E3FF623AFFE293FF6A7
:1088600020AF14AE591C06EB030E16FA81F192B23A
:108870000330FF260EF8400CADF80C2001F8406CD8
:10888000398804AEB018B154090A41700433BA886B
:1088900098B2ADF80C0062B1B96800293FF405AF99
:1088A000304401F047F9BDF80C30BA881344ADF8F4
:1088B0000C3094F82C3053B904AE2378002B53D1EC
:1088C0003446F8E62B46ADF80E502A4604E7A76A70
:1088D000002F3FF4EAAEB9880231FE293FF6E1AE3F
:1088E0009E46BDF80C304FF0000804AE4FF016095C
:1088F00014AA581C02EB030C12FA80F09A1C92B2D4
:1089000001310CF8401CADF80C2000F8409C39886F
:10891000B1543244090A51700433B9889BB20A46F3
:10892000F018ADF80C3079B1BB681946002B3FF454
:10893000BCAE01F0FFF8BDF80C30BA8894F82CE01A
:1089400013449BB2ADF80C3008F101085FFA88F8C7
:10895000F04508EB4802B0D2A76A07EB8207B98856
:108960000231FE29C4D99CE62046314603AA1F23C2
:10897000FFF7D4FB00287FF499AE34469BE604331E
:108980001F2B3FF68EAEF3E603AA04F1080704AEF0
:108990004FF01F0802218DE80401384633460A468D
:1089A000FFF704FC00287FF481AE03AB8DE80801DB
:1089B0003846334606211022FFF7F8FB00287FF4E3
:1089C00075AE5CE603AA04F1100704AE4FF01F0871
:1089D0008DE804013846334603210222FFF7E6FB07
:1089E00000287FF463AE03AB8DE8080138463346B8
:1089F00007211022FFF7DAFB00287FF457AE42E68A
:108A000003AA04F1180704AE4FF01F088DE8040113
:108A10003846334614210222FFF7C8FB00287FF4B2
:108A200045AE03AB8DE808013846334615211022C8
:108A3000FFF7BCFB00287FF439AE28E614A90B44ED
:108A4000012103F8401C81E675DF704776DF70472F
:108A50007ADF70477BDF704770B51D4C238885B285
:108A6000AB4282B001D002B070BD1A4E217A327B87
:108A700091420FD3337C00222272BBB97369002B61
:108A8000F1D00022ADF806508DF8042001A89847D7
:108A900002B070BD184604F10A01FFF7D5FF88B196
:108AA0001128E0D0B369002BF1D1DCE728463B2147
:108AB000FFF7CCFF30F00803E0D0B369002BDDD026
:108AC0009847DBE7237A0133237202B070BD00BF01
:108AD000A02B0020842B0020F0B50288112A83B03F
