:1000000000000120FD23000025240000272400001B
:10001000292400002B2400002D24000000000000F3
:100020000000000000000000000000002F2400007D
:1000300031240000000000003324000035240000BB
:100040003724000037240000611800001518000054
:10005000372400003724000055100000372400002A
:100060003724000037240000372400003724000024
:100070003724000037240000372400003724000014
:10008000372400001907000037240000372400003F
:10009000B90700003724000037240000372400008F
:1000A00037240000372400003724000037240000E4
:1000B000372400003724000000000000000000008A
:1000C00037240000372400003724000037240000C4
:1000D000372400003724000037240000000000000F
:1000E0000000000000000000000000000000000010
:1000F0000000000000000000000000000000000000
:1001000000000000000000000000000000000000EF
:1001100000000000000000000000000000000000DF
:1001200000000000000000000000000000000000CF
:1001300000000000000000000000000000000000BF
:1001400000000000000000000000000000000000AF
:10015000000000000000000000000000000000009F
:10016000000000000000000000000000000000008F
:10017000000000000000000000000000000000007F
:10018000000000000000000000000000000000006F
:10019000000000000000000000000000000000005F
:1001A000000000000000000000000000000000004F
:1001B000000000000000000000000000000000003F
:1001C000000000000000000000000000000000002F
:1001D000000000000000000000000000000000001F
:1001E000000000000000000000000000000000000F
:1001F00000000000000000000000000000000000FF
:1002000010B5054C237833B9044B13B10448AFF350
:1002100000800123237010BDA80000200000000012
:10022000DC28000008B5034B1BB103490348AFF3BA
:10023000008008BD00000000AC000020DC280000A9
:10024000154B002B08BF134B9D46A3F5803A0021A8
:100250008B460F461348144A121A02F0F2FA0F4B5B
:10026000002B00D098470E4B002B00D09847002061
:10027000002104000D000D48002802D00C48AFF307
:10028000008002F0AFFA2000290001F05BFC02F0D0
:1002900095FA00BF000008000000012000000000E7
:1002A00000000000A80000208407002000000000DB
:1002B000000000002DE9F0477F4C002384B0C4F813
:1002C0001834BFF34F8FD4E9017607EA0601CB1C3F
:1002D00004EB830214F8233098073D460FD11388AE
:1002E00052889B0903EB921301331D4406EA050172
:1002F000CB1C04EB830214F823309B07EFD004EBF4
:1003000081016A1CCB680193324004EB820203F046
:100310000303D2680292022B05F102080FD0012BD1
:1003200070D0032B06D02068C01B18BF012004B07A
:10033000BDE8F087D4F818040028F4D1F7E7BDF839
:1003400006305E484FEA93194D46502D28BF502580
:1003500065F38F1305F10801ADF8063000F0AEFD2E
:10036000074600284CD026EA080A0AF1010A00F0E4
:10037000E7FD4FEA8A0A0023082201A9384600F067
:1003800017FE554540F28B80EBB2BAF1000F7FD0DB
:1003900006EA0801A3EB0A03033104EB8101DDB295
:1003A00052460823384600F003FE2A460AF10803A5
:1003B0004349384600F0FCFD09F1030908EB9909AF
:1003C000D4F81834002B5ED1D4F8105455B16B7AA0
:1003D00028463946002B52D02B681B6898476D6819
:1003E000002DF4D1384600F0BBFD002000F01CFDCC
:1003F000D4F818340BB9C4F80490002000F01CFDA8
:10040000676890E7BDF804302C48C3F383110629D0
:1004100028BF062161F3891302318900ADF8043049
:1004200000F04CFD07460028EAD000F089FD0023CB
:10043000082201A9384600F0BBFDBDF8043013F4D2
:10044000707F37D06FF0010AAAEB050A082506EA8B
:10045000080103312B46042204EB8101384600F0E9
:10046000A7FDBDF8043008F101090AEB0902C3F346
:1004700083139A42C84605F10405E8D3A0E76D68E6
:10048000002DA4D1AEE7384600F06AFD67684AE760
:100490002A4608230A49384600F08AFD8CE706EA16
:1004A0000801033104EB81012A460823384600F095
:1004B0007FFD81E7C14683E7C4000020702800006B
:1004C000D00000202DE9F04F604C89B0A368029065
:1004D00000200193039100F0A7FCD4E901E0D4F8D7
:1004E000008000EB0E030133A3EB0803032B61D85C
:1004F00000F1010AAAEB080A04F5836C04F2144621
:1005000000EA0E09012500275CE8003F43EA0502E6
:100510004CE8002191F0000FF6D156E8003F43EA85
:10052000050246E8002191F0000FF6D109F103031E
:1005300004EB830114F823309B07CB46724610D19D
:100540000B8849889B0903EB911301331A4400EA95
:10055000020B0BF1030304EB830114F823309B0718
:10056000EED004EB8B0B0232DBF80C30059303F07A
:100570000303012B64D0022B05D1BDF816309B0973
:10058000033302EB930256E8003F03EA070146E813
:10059000001B9BF0000FF6D143B10AEB0203032BC3
:1005A000626007D8964600EA0209ADE70AEB0E033F
:1005B000032BA9D908EA0000033008F1020214F85D
:1005C000203043F0030304F820300020226000F0C4
:1005D00033FC019A029908F10103134004EB8303F1
:1005E00002EA080808F103080A0CDA6014F8283057
:1005F0000A0962F3820361F3C50304F8283034F872
:100600002830039A6FF3891324F8283054F82830DF
:1006100062F39F231A46012161F3010244F8283056
:1006200004F8282094F81C341BB906E0FFF742FEBA
:1006300018B1D4E900329A42F8D109B0BDE8F08F80
:10064000BDF81430C3F383131A449CE7C4000020A0
:10065000044BD3E900239A4201D0FFF72BBE0020C0
:10066000704700BFC400002038B5084BD3F81044D1
:10067000012583F81C543CB12368657220465B68F1
:1006800098476468002CF7D138BD00BFC400002033
:1006900000B585B000230390194601AA44F2010079
:1006A000ADF80430029300F003F805B05DF804FBE8
:1006B00010B5FFF7D9FFFFF7CBFF0028FBD1104C97
:1006C00010492088000440F00100FFF7FBFE0E4BAC
:1006D0001B68DB0700D5FFDE20880C49000440F0D2
:1006E0000200FFF7EFFEBFF34F8F0949094BCA68BD
:1006F00002F4E0621343CB60BFF34F8F00BFFDE70E
:100700006C00002088280000F0ED00E09428000034
:1007100000ED00E00400FA05F8B5204A204B002463
:10072000C2F84041C2F84441C2F84841C2F84C41C5
:10073000C2F80041C2F804411B6833B31949D2F82A
:1007400004550A68AD1A1A6825F07F45AA42274663
:100750000DD8197CDE69AD1A144419B11F74D3E9A0
:10076000052090471EB133461A68AA42F1D90E49B6
:100770000E4A0B7812789A4208D00D490D4A41F87A
:1007800023404FF48013C2F80031F8BD531CDBB294
:10079000022B08BF00230B70EFE700BF00100140E1
:1007A000D4060020D0060020CD060020CC06002074
:1007B000C406002000E100E02DE9F04FAF48B04A48
:1007C000B04913780978D0F80090AF4889B0006834
:1007D0000290994200F04E810133DBB2022B08BF38
:1007E00000231370A94A52F82300A44B09EB000719
:1007F00027F07F471F60029B00252A462C46AC4607
:10080000B3B11968814200F24D81DD68C3F800C0C0
:10081000401A0C44D9693DB109EB040626F07F4625
:10082000C3E90165DA611A460B460125002BE8D1C0
:10083000002D40F09B81012302990693B946944B09
:10084000944C1B7805934FF000084B46CDF81C8064
:10085000CDF80C804FF0010EC1468C469B4642B34A
:10086000D2E901651346D2698B48A6EB0B0121F052
:100870007F41814259D829441960002083F810E053
:10088000C3E90100D861BCF1000F72D0DCF80000B0
:1008900088425FD2664603E02868884263D22E46CB
:1008A000F569091A002DF7D11960DD61F361002A9D
:1008B000D6D1CA46CDF804B094F8019021784FF013
:1008C000000B1646894576D0084600EB400004EB45
:1008D000C0004A1CA378D1B2027921708B4204BFB8
:1008E00084F800B00021022A836853D0032A44D040
:1008F000012AE7D11F7C002FE4D13246C6685E6032
:1009000005699D604169D960816999610599DDF842
:1009100004B0D1460029A7D03E46A6EB0B015E48A5
:100920005F6021F07F418142A5D9ABEB060121F048
:100930007F41A94202D2691A19609EE7002183F81B
:1009400010E0C3E900119960D961BCF1000F10D02B
:10095000DCF80000411ACCF800104FF00108C3F891
:100960001CC09C467BE7401A28601960DD61F3617A
:100970009DE79C464FF0010871E7BCF1000FA1D044
:10098000624600231374D269002AFBD194464FF0CB
:10099000010891E7BCF1000F09D06345624603D11D
:1009A00092E083424FD00246D0690028F9D183F803
:1009B00010B0894588D1C346DDF80490D046BBF11C
:1009C000000F40F0D780079B002B40F01A82B8F14F
:1009D000000F03D02E4B9DF814201A702A4B1A6872
:1009E000039B1BB9029B9A4200F0C880002A00F0CA
:1009F000CC802A48214BD0F804151B68284C156878
:100A00002678CA1A22F07F420332002E00F0A68117
:100A100095422CBF5B199B18204823F07F43C0F8F8
:100A20004035D0F80425521A5B1A22F07F4223F099
:100A30007F4303329A4200F24781154A0023137024
:100A400009B0BDE8F08F934236D0674604931D4647
:100A5000E8692D68D06128B102682A4402602178D3
:100A600094F801906745A2D00122BC46039283F816
:100A700010B09EE7002206920146E0E6D006002074
:100A8000CC060020CD060020D4060020C40600209D
:100A9000C0060020B4050020FEFF7F0000100140CA
:100AA000C1060020002D40F0B081091A1960012311
:100AB000B94606930299C2E60493DCF81C7037B17C
:100AC0004FF00108049DC3E7CDF810C0F5E7774863
:100AD000774DC0F808E077484FF02F08006800BF56
:100AE00000BF00BF00BF00BF00BF00BF00BFA842E3
:100AF0002FD000BF00BF00BF00BF00BF00BF00BFBE
:100B000000BF00BF00BF00BF00BF00BF00BF00BFED
:100B100000BF00BF00BF00BF00BF00BF00BF00BFDD
:100B200000BF00BF00BF00BF00BF00BF00BF00BFCD
:100B300000BF00BF00BF00BF00BF00BF00BF00BFBD
:100B400000BF00BF00BF00BF00BF00BF00BF00BFAD
:100B500000BFB8F10108C2D14FF0010A0197CDF8EA
:100B600014A0CDF81CA0D046049D71E75249029311
:100B70000B6060E6504BC3F800C024E7069B002BD7
:100B80003FF45BAF002A7FF434AF48494B4B494EEA
:100B9000474C4FF480304FF400370125C3F8807084
:100BA000C1F848032F23C1F808034D6030681E4682
:100BB00000BF00BF00BF00BF00BF00BF00BF00BF3D
:100BC000A0422FD000BF00BF00BF00BF00BF00BFCA
:100BD00000BF00BF00BF00BF00BF00BF00BF00BF1D
:100BE00000BF00BF00BF00BF00BF00BF00BF00BF0D
:100BF00000BF00BF00BF00BF00BF00BF00BF00BFFD
:100C000000BF00BF00BF00BF00BF00BF00BF00BFEC
:100C100000BF00BF00BF00BF00BF00BF00BF00BFDC
:100C200000BF00BF013EC3D18D6025490A6000BFEF
:100C300000BF00BF00BF00BF00BF00BF00BFA04299
:100C40002FD000BF00BF00BF00BF00BF00BF00BF6C
:100C500000BF00BF00BF00BF00BF00BF00BF00BF9C
:100C600000BF00BF00BF00BF00BF00BF00BF00BF8C
:100C700000BF00BF00BF00BF00BF00BF00BF00BF7C
:100C800000BF00BF00BF00BF00BF00BF00BF00BF6C
:100C900000BF00BF00BF00BF00BF00BF00BF00BF5C
:100CA00000BF013BC3D1074B1A70C6E600100140DC
:100CB0000024F40000000020D406002000E100E041
:100CC000D0060020C1060020D0F80435514AC0F8F3
:100CD0004035126850492F2300BF00BF00BF00BF3E
:100CE00000BF00BF00BF00BF8A422FD000BF00BFBF
:100CF00000BF00BF00BF00BF00BF00BF00BF00BFFC
:100D000000BF00BF00BF00BF00BF00BF00BF00BFEB
:100D100000BF00BF00BF00BF00BF00BF00BF00BFDB
:100D200000BF00BF00BF00BF00BF00BF00BF00BFCB
:100D300000BF00BF00BF00BF00BF00BF00BF00BFBB
:100D400000BF00BF00BF00BF00BF00BF013BC3D159
:100D5000324B4FF40032C3F800216EE62F4EDFF81D
:100D6000B4E0DFF8B4C04FF48037C0F84473C0F883
:100D700004734FF40037C6F88071376001260660AF
:100D8000DEF800702F2000BF00BF00BF00BF00BF13
:100D900000BF00BF00BF67452FD000BF00BF00BF2E
:100DA00000BF00BF00BF00BF00BF00BF00BF00BF4B
:100DB00000BF00BF00BF00BF00BF00BF00BF00BF3B
:100DC00000BF00BF00BF00BF00BF00BF00BF00BF2B
:100DD00000BF00BF00BF00BF00BF00BF00BF00BF1B
:100DE00000BF00BF00BF00BF00BF00BF00BF00BF0B
:100DF00000BF00BF00BF00BF00BF0138C3D12670D5
:100E000006E6074BC3F80090E1E5064C0293236029
:100E10004BE600BF000000200024F40000E100E0E9
:100E2000D0060020D406002072B6024A13680133AF
:100E300013607047D8060020034A1368013B136013
:100E400003B962B6704700BFD806002038B5044623
:100E50000020FFF7E9FFD4E900311A688A4215D96A
:100E6000511E19602168A3680868258A12F8012CB0
:100E7000E4681B1A0879DBB2984205FB024400D2F1
:100E80000B710020FFF7D8FF204638BD0024F8E79B
:100E900038B5054600200C46FFF7C6FF2A681368E0
:100EA000591C1160E9682A8A641AB4FBF2F41C70B8
:100EB0000020BDE83840FFF7BFBF00BF2DE9F0417B
:100EC000058ACE1C043D2E440746B6FBF5F6FFF717
:100ED000BDFF78B3F6B24FF48073013E0446C5807F
:100EE0000760838027D08046002509E06379AE4201
:100EF00003F101036371C8F80000076080461AD04F
:100F00003846FFF7A3FF01350028EFD16679721E3E
:100F100014D02346013082421B68FBD11F684EB1BA
:100F2000002523682146013538461C46FFF7B0FFEF
:100F3000AE42F6D100242046BDE8F0812768EFE7F5
:100F400010B40430012350E8002F02EB030140E805
:100F5000001494F0000FF6D15DF8044B704700BF09
:100F60000146021DF8B5012052E8004FA4EB000332
:100F700042E8003595F0000FF6D113F0FF0300D0E2
:100F8000F8BD4E79701E11D00A460133984212689E
:100F9000FBD11768002EF3D000240D6801343846C9
:100FA000FFF776FFA6422946F7D1F8BD0F68F3E7B1
:100FB0002DE9F8430446181DE688B0FBF6F30F460A
:100FC000904606FB130013B1013B2468FCD1351A8F
:100FD000454528BF4546B8F1000F15D04FF0000930
:100FE0000430A8EB050820442A4607EB090101F06C
:100FF0001DFC4645A944246835464FF0000028BF33
:101000004546B8F1000FEBD1BDE8F883490100284F
:1010100010B4C9B2C3B215DB00F1604202F56142FF
:1010200082F800134009800000F1604000F5614043
:1010300003F01F0201239340C0F8803103605DF884
:10104000044B7047024A03F00F0422441176E9E78B
:10105000FCEC00E02DE9F04186B00023A14A0193A9
:101060001668012E00F054811E469F4B1A68012A13
:1010700000F05D819D4B1A68012A00F06A819C4B4B
:101080001A68012A00F077819A4B1A68012A00F049
:101090008481994B1A68012A00F09181974B1A6854
:1010A000012A00F09E81964B1A68012A0CD0954BBC
:1010B0001B68012B00F0A58116F0FF0F15D1002E43
:1010C00030DB06B0BDE8F0818F4AD2F80423170662
:1010D000EDD500221A601A6804926033049A1B68E6
:1010E000012B46F0800600F08C81884F00240125FA
:1010F000A30003F18043354203F5C0434FEA4505A1
:101100000BD0D3F8100557F82420D3F81015C0F3EE
:101110000420C1F3014102B190470134082CE7D10A
:10112000002ECEDA00224FF0FF33CDE90223774CB8
:10113000012602AF94F950305D1C2CD0DBB223F0B5
:10114000C00006AA4FEAD00C02EB0C0E03F0070217
:101150001EF80C1C06FA02F211421CD0251899093F
:1011600095F9303054F82330002B00F09881032992
:1011700000F098814FEA800C0CF1A04C1EF8145C32
:10118000DCF800E71540CEF3014E40F05C81BEF183
:10119000030F00F0DE81002594F95130581C2DD04A
:1011A000DBB223F0C00006AA4FEAD00802EB080E1B
:1011B00003F007011EF80C2C06FA01FC12EA0C0FD2
:1011C0001CD02218990992F9303054F82330002BA2
:1011D00000F05B81032900F05B81820002F1A042F4
:1011E0001EF8148CD2F800E718EA0C0FCEF3014E6B
:1011F00040F03681BEF1030F00F0A68194F9523021
:10120000591C2DD0DBB223F0C00006AA4FEAD0084B
:1012100002EB080E03F007011EF80C2C06FA01FC85
:1012200012EA0C0F1CD02218990992F9303054F8A8
:101230002330002B00F03C81032900F03C81820028
:1012400002F1A0421EF8148CD2F800E718EA0C0F45
:10125000CEF3014E40F0E380BEF1030F00F06E814B
:1012600094F953305A1C2DD0DBB223F0C00006AAEB
:101270004FEAD00802EB080E03F007011EF80C2C11
:1012800006FA01FC12EA0C0F1CD02218990992F9F7
:10129000303054F82330002B00F0ED80032900F0AB
:1012A000ED80820002F1A0421EF8148CD2F800E713
:1012B00018EA0C0FCEF3014E40F0BC80BEF1030FD4
:1012C00000F00081002D3FF4FCAE4FF0A043019AE6
:1012D000D3F8103593423FF4F4AE029A019303928F
:1012E00028E700BF00610040046100400861004041
:1012F0000C61004010610040146100401861004022
:101300001C6100407C61004000600040DC06002061
:101310009A49D1F8041311F0010170D013601368D9
:101320000493049B964B1A68012A7FF4A3AE934A58
:10133000D2F8042397077FF59DAE00221A601B6840
:101340000493049B8F4B1A68012A46F002067FF42F
:1013500096AE8A4AD2F8042355077FF590AE002254
:101360001A601B680493049B874B1A68012A46F095
:1013700004067FF489AE814AD2F8042314077FF56E
:1013800083AE00221A601B680493049B7F4B1A688B
:10139000012A46F008067FF47CAE784AD2F804238E
:1013A000D0067FF576AE00221A601B680493049B7A
:1013B000774B1A68012A46F010067FF46FAE6F4A29
:1013C000D2F8042391067FF569AE00221A601B68EB
:1013D0000493049B6F4B1A68012A46F020067FF4A1
:1013E00062AE664AD2F8042352067FF55CAE002254
:1013F0001A601B680493049B46F0400653E60E46B1
:1014000033E6654B00221A601B6805934FF0A0433A
:10141000059AD3F81035019346F000464CE6BEF12C
:10142000020F7FF41DAF032963D0002B3FF418AFE8
:10143000984715E7BEF1020F7FF444AF032969D046
:10144000002B54D13EE7BEF1020F7FF4A4AE032976
:1014500000F091800025002B3FF49EAE98479BE65C
:10146000BEF1020F7FF4CAAE032956D0002B3FF421
:10147000C5AE9847C2E603297FF424AF17F80820C9
:1014800042EA0C0207F808200BE703297FF4B6AE06
:1014900017F8082042EA0C0207F808209DE6032905
:1014A0007FF479AE17F80C50154307F80C5061E63D
:1014B00003297FF4D5AE17F8082042EA0C0207F89A
:1014C0000820BCE60329BBD14FF4003ED2F800C788
:1014D0002CF4403CC2F800C7D2F800C701354CEAF2
:1014E0000E0CEDB2C2F800C7002B3FF4EEAE9847E9
:1014F000E8E64FF4403ED2F800C72CF4403CC2F876
:1015000000C7D2F800C701354CEA0E0CEDB2C2F8A4
:1015100000C78AE74FF4403ED8E74FF4403ED2F888
:1015200000C72CF4403CC2F800C7D2F800C7013510
:101530004CEA0E0CEDB2C2F800C797E703297FF41E
:1015400074AF4FF4003ED6E703298FD14FF4003E2D
:10155000E5E703297FF47FAF4FF40035DCF800277F
:1015600022F44032CCF80027DCF800272A43CCF8DC
:10157000002701256FE74FF44035EFE7006000409A
:1015800004610040086100400C61004010610040AF
:1015900014610040186100407C6100402DE9F04179
:1015A0004479544DE6003719BF0005EB070C9CF851
:1015B0001CE0BEF1000F40F08F80EA51CCF80430FF
:1015C0000B7B91F800C0012B4FF0A0474FF00103B7
:1015D00003FA0CF394BFC7F80C35C7F808350B783D
:1015E0004FF0A04E03F5E0734FF0010C4EF823C00E
:1015F0004F78FF2F68D007F5E0780CFA07F34FF02B
:10160000030CCEF80C354EF828C08B78FF2B60D039
:1016100003F5E07C9E464FF0A0434FF0040843F8EA
:101620002C8091F803C0BCF1FF0F0FD04FF0A04801
:10163000012303FA0CF3C8F80835CB7803F5E073FF
:101640004FF0030C48F823C091F803C0437903EB33
:10165000C30305EB830383F81EC0036891F800C041
:10166000C3F808C5C3F80C75C3F810E58F68C3F854
:1016700024754F7B91F80CC0003718BF0127BCF1CF
:10168000020F33D0BCF1030F2DD0BCF1010F01D1FB
:1016900047F00207C3F854754F79C3F8C075F2B12B
:1016A00040270722C3F80473C3F80025097990F98D
:1016B0000400FFF7ABFC344405EB84050123002054
:1016C0002B776877BDE8F0818B78FF2B4FF0FF37E1
:1016D0009ED14FF0FF3EA4E70820BDE8F08107222D
:1016E000C3F80025E7E747F00607D3E747F004070C
:1016F000D0E700BF340700202DE9F0434479444D82
:10170000E7003E19B60005EB060E83B09EF81D807B
:101710009DF828C0B8F1000F74D1AE5916B101265A
:101720008EF81D600C264FF0240E1EFB046E05EB98
:101730000E083E1945F80E1005EB860688F80420C1
:10174000C8F8083088F80CC096F821E096F81E809A
:1017500006F120090EF0FC066FF38206B8F1FF0FC8
:1017600089F8016006D001264FF0A04E06FA08F66F
:10177000CEF80C6521B101F06046B6F1005F25D1CD
:1017800023B103F06046B6F1005F1FD10668002068
:10179000C6F84415C6F84825C6F83435C6F838C525
:1017A000C6F81801D6F81831019301223B190199A6
:1017B000C6F85005C6F84005326155F8233073B1BC
:1017C0004023C6F8043303B0BDE8F0833C4405EB86
:1017D000840500236B77102003B0BDE8F083D6F8B2
:1017E0001831002BFBD03C4405EB8405AB7FFF2B6D
:1017F0000CD001224FF0A04102FA03F3C1F80835E2
:101800000020E9E7112003B0BDE8F0830020E3E702
:10181000340700200F4AD2F81831D3B100210E4B03
:10182000C2F81811D2F818119A7F82B0FF2A0191DC
:10183000019906D001214FF0A04001FA02F2C0F850
:10184000082500225A771A72D3E90021034802B012
:101850001047704700300040340700203C0700204C
:10186000F0B5A94C237F8FB0002B73D1A74AD2F8D3
:101870000413890546D4A54BD3F80423520704D595
:10188000D3F80821002A40F0D480A04BD3F81C21C3
:10189000BAB1A18AA27D8A4200F2B9800021C3F8C0
:1018A0001C11D3F81C310593059B52B1A3688DF828
:1018B0002810A1750B938DF83020D4E900130AA8E5
:1018C0009847924BD3F84421D2B10022C3F8442167
:1018D000D3F84411A27E04910499002A40F0948028
:1018E000E37D6BB10023617EE268E37501238DF82F
:1018F00030108DF828300B92D4E900130AA89847CD
:101900000FB0F0BDD2F824110029B4D0C2F82431B0
:10191000D2F82411A37E07914FF401710798C2F801
:1019200008130BB901235360784A02238DF828303D
:10193000D2F88034C2F88034E07DE2680D93002351
:101940008DF83000E375237621680B9263680AA84E
:1019500098479AE76D4BD3F82421002A00F097802E
:101960000022C3F82421D3F82411029102218DF81A
:1019700028100299D3F88014C3F880140D91D3F87D
:101980003C15E3688DF830100B93E27522762168E0
:1019900063680AA898475D4BD3F84421B2B100228E
:1019A000C3F84421D3F84401E17D0190019869B165
:1019B000D3F83C35E1688DF8303001230B918DF878
:1019C0002830E275D4E900130AA898474F4BD3F8A2
:1019D0002021002A94D00022C3F82021D3F820012E
:1019E000A17D0090009800298AD0D3F84C15A368F7
:1019F0008DF830100B938DF82820A275D4E90013D0
:101A00000AA898470FB0F0BD01221A6068E70022CB
:101A1000C3F81C21D3F81C210692069AA18AA28A37
:101A2000A06889B20132415C92B2A282C3F81C154F
:101A300047E7E27D002A54D00022C3F80821D3F8FA
:101A400008210892089AE168627ED3F818358B5411
:101A5000637EE27D0133DBB26376637E93427FF483
:101A600014AF237E2168002B52D0E268657E206986
:101A7000E3750B9200230122E060237663768DF8F4
:101A800030508DF8282063680AA89847FDE6D3F8FF
:101A9000101100293FF47FAFC3F81021D3F81011C3
:101AA00003910399D3F83C15E07DC9B288427FF4D5
:101AB00072AF257EE768D4E90016DDB1D3F800C225
:101AC000E5752CF020052276C3F800520122236927
:101AD0008DF83000E3600B978DF828200AA8B047F6
:101AE00059E7C3F80821D3F8081109910999D3F8E7
:101AF0001835B2E701238DF83000E5750B978DF8A6
:101B000028300AA8B04746E75807002000200040C8
:101B1000A37E13B90A4B01225A60094AE068636840
:101B20004FF40175C2F80853627E8DF8302000250D
:101B300001220B90E5758DF828200AA89847A4E6A5
:101B40000020004008B500F0E9F8402328223021A9
:101B50000A2000F0A7FB7D2314225021052000F06D
:101B6000A1FB002008BD00BF014B01221A70704785
:101B70008107002010B584B04FF0A04304A94FF0B6
:101B800080522C4C01F8010DC3F808250022009268
:101B90002270294B29480122FFF7AEFD08B145E02C
:101BA00020BF2378002BFBD0254B26491A680A2337
:101BB00000BF00BF00BF00BF00BF00BF00BF00BF2D
:101BC0008A422FD000BF00BF00BF00BF00BF00BFD0
:101BD00000BF00BF00BF00BF00BF00BF00BF00BF0D
:101BE00000BF00BF00BF00BF00BF00BF00BF00BFFD
:101BF00000BF00BF00BF00BF00BF00BF00BF00BFED
:101C000000BF00BF00BF00BF00BF00BF00BF00BFDC
:101C100000BF00BF00BF00BF00BF00BF00BF00BFCC
:101C200000BF00BF013BC3D104B010BDFEF730FDC3
:101C3000B7E700BF8107002080070020D028000000
:101C4000000000200024F40010B584B04FF0A04341
:101C500004A94FF080522C4C01F8010DC3F80C255B
:101C6000002200922270294B29480122FFF744FDEF
:101C700008B145E020BF2378002BFBD0254B264937
:101C80001A680A2300BF00BF00BF00BF00BF00BF2B
:101C900000BF00BF8A422FD000BF00BF00BF00BFFF
:101CA00000BF00BF00BF00BF00BF00BF00BF00BF3C
:101CB00000BF00BF00BF00BF00BF00BF00BF00BF2C
:101CC00000BF00BF00BF00BF00BF00BF00BF00BF1C
:101CD00000BF00BF00BF00BF00BF00BF00BF00BF0C
:101CE00000BF00BF00BF00BF00BF00BF00BF00BFFC
:101CF00000BF00BF00BF00BF013BC3D104B010BD97
:101D0000FEF7C6FCB7E700BF810700208007002070
:101D1000D0280000000000200024F4002DE9F04F3E
:101D20007E4B0FCB89B004AC84E80F001F2241F634
:101D3000045021464FF0805503248DF81320ADF850
:101D400010000023764A774806958DF81C40FFF76F
:101D500025FC002840F097824FF0A04303224FF06B
:101D600080414FF08057DFF8C891C3F808754CF2F6
:101D70005035C3F87027C3F80C15C3F87827C3F89B
:101D80000C15D9F80020684C284600BF00BF00BFE2
:101D900000BF00BF00BF00BF00BFA2422FD000BFE6
:101DA00000BF00BF00BF00BF00BF00BF00BF00BF3B
:101DB00000BF00BF00BF00BF00BF00BF00BF00BF2B
:101DC00000BF00BF00BF00BF00BF00BF00BF00BF1B
:101DD00000BF00BF00BF00BF00BF00BF00BF00BF0B
:101DE00000BF00BF00BF00BF00BF00BF00BF00BFFB
:101DF00000BF00BF00BF00BF00BF00BF00BF013871
:101E0000C3D142F21076C3F80815334600BF00BFB5
:101E100000BF00BF00BF00BF00BF00BFA2422FD065
:101E200000BF00BF00BF00BF00BF00BF00BF00BFBA
:101E300000BF00BF00BF00BF00BF00BF00BF00BFAA
:101E400000BF00BF00BF00BF00BF00BF00BF00BF9A
:101E500000BF00BF00BF00BF00BF00BF00BF00BF8A
:101E600000BF00BF00BF00BF00BF00BF00BF00BF7A
:101E700000BF00BF00BF00BF00BF00BF00BF00BF6A
:101E8000013BC3D1294B00BF00BF00BF00BF00BF53
:101E900000BF00BF00BFA2422FD000BF00BF00BFE5
:101EA00000BF00BF00BF00BF00BF00BF00BF00BF3A
:101EB00000BF00BF00BF00BF00BF00BF00BF00BF2A
:101EC00000BF00BF00BF00BF00BF00BF00BF00BF1A
:101ED00000BF00BF00BF00BF00BF00BF00BF00BF0A
:101EE00000BF00BF00BF00BF00BF00BF00BF00BFFA
:101EF00000BF00BF00BF00BF00BF013BC3D1D72060
:101F0000FFF7A2FE9F20FFF735FEE020FFF79CFEC3
:101F10000020FFF72FFED9F800300BE0C0280000AA
:101F2000691B0000D02800000024F400C0D4010088
:101F30000000002000BF00BF00BF00BF00BF00BF07
:101F400000BF00BFA3422FD000BF00BF00BF00BF33
:101F500000BF00BF00BF00BF00BF00BF00BF00BF89
:101F600000BF00BF00BF00BF00BF00BF00BF00BF79
:101F700000BF00BF00BF00BF00BF00BF00BF00BF69
:101F800000BF00BF00BF00BF00BF00BF00BF00BF59
:101F900000BF00BF00BF00BF00BF00BF00BF00BF49
:101FA00000BF00BF00BF00BF013EC3D1E320FFF769
:101FB0004BFE44F62063D9F8002000BF00BF00BFED
:101FC00000BF00BF00BF00BF00BFA2422FD000BFB4
:101FD00000BF00BF00BF00BF00BF00BF00BF00BF09
:101FE00000BF00BF00BF00BF00BF00BF00BF00BFF9
:101FF00000BF00BF00BF00BF00BF00BF00BF00BFE9
:1020000000BF00BF00BF00BF00BF00BF00BF00BFD8
:1020100000BF00BF00BF00BF00BF00BF00BF00BFC8
:1020200000BF00BF00BF00BF00BF00BF00BF013B3B
:10203000C3D1E120FFF708FE1120FFF705FE28209D
:10204000FFF702FED9F8003000BF00BF00BF00BF9D
:1020500000BF00BF00BF00BFA3422FD000BF00BF22
:1020600000BF00BF00BF00BF00BF00BF00BF00BF78
:1020700000BF00BF00BF00BF00BF00BF00BF00BF68
:1020800000BF00BF00BF00BF00BF00BF00BF00BF58
:1020900000BF00BF00BF00BF00BF00BF00BF00BF48
:1020A00000BF00BF00BF00BF00BF00BF00BF00BF38
:1020B00000BF00BF00BF00BF00BF00BF013DC3D1D4
:1020C000C020FFF7C1FD5320FFF754FD0120FFF7AB
:1020D00051FDC320FFF7B8FD0220FFF74BFDC420E0
:1020E000FFF7B2FD0620FFF745FDD020FFF7ACFD5E
:1020F0001D20FFF73FFDB520FFF7A6FD0020FFF7ED
:1021000039FD3920FFF7A0FD3A20FFF79DFD0220A1
:10211000FFF730FD3620FFF797FD0020FFF72AFD7F
:10212000B020FFF791FD9F20FFF724FDB420FFF7BB
:102130008BFDA020FFF71EFD3020FFF785FD00205E
:10214000FFF718FD0020FFF715FD0020FFF712FD37
:102150007720FFF70FFD2020FFF776FD2A20FFF7FD
:1021600073FD0020FFF706FD0020FFF703FD0020B0
:10217000FFF700FD2A20FFF7FDFC2B20FFF764FD91
:102180000020FFF7F7FC0020FFF7F4FC0020FFF72A
:10219000F1FC9F20FFF7EEFC2C20FFF755FD3B4B99
:1021A0003B4E3C4CDFF8F4B00025BA461D60DFF82A
:1021B000F08035604FF0A0478DF80F505B46C7F8B0
:1021C00008A5012200950DF10F0140462570FFF78B
:1021D00093FA08B154E020BF2378002BFBD00A23E8
:1021E000D9F800202C4900BF00BF00BF00BF00BFCE
:1021F00000BF00BF00BF8A422FD000BF00BF00BF9A
:1022000000BF00BF00BF00BF00BF00BF00BF00BFD6
:1022100000BF00BF00BF00BF00BF00BF00BF00BFC6
:1022200000BF00BF00BF00BF00BF00BF00BF00BFB6
:1022300000BF00BF00BF00BF00BF00BF00BF00BFA6
:1022400000BF00BF00BF00BF00BF00BF00BF00BF96
:1022500000BF00BF00BF00BF00BF013BC3D1336858
:1022600001332A2B3360A7DD084A136801339F2B03
:1022700013609CDD2920FFF7E7FC09B0BDE8F08F73
:10228000FEF706FAA8E7FEF703FA65E578070020EF
:102290007C070020810700200024F4008007002034
:1022A000D02800002DE9F04F074685B02A201C46B3
:1022B0000D461646FFF7C8FC0020FFF75BFC3846CA
:1022C000FFF758FC0020FFF755FC3046FFF752FCA3
:1022D0002B20FFF7B9FC0020FFF74CFC2846FFF746
:1022E00049FC0020FFF746FC2046FFF743FC2C206A
:1022F000FFF7AAFC3A4B3B4E3B4CDFF8F4B0DFF85B
:10230000F4A000251D604FF08059DFF8EC803560A7
:102310004FF0A047FF238DF80F300122C7F8089532
:10232000534600950DF10F0140462570FFF7E4F983
:1023300008B151E020BF2378002BFBD00A23DBF843
:1023400000202A4900BF00BF00BF00BF00BF00BF80
:1023500000BF00BF8A422FD000BF00BF00BF00BF38
:1023600000BF00BF00BF00BF00BF00BF00BF00BF75
:1023700000BF00BF00BF00BF00BF00BF00BF00BF65
:1023800000BF00BF00BF00BF00BF00BF00BF00BF55
:1023900000BF00BF00BF00BF00BF00BF00BF00BF45
:1023A00000BF00BF00BF00BF00BF00BF00BF00BF35
:1023B00000BF00BF00BF00BF013BC3D13368013382
:1023C0007F2B3360A6DD064A136801339F2B136011
:1023D0009BDD05B0BDE8F08FFEF75AF9ABE700BF13
:1023E000780700207C070020810700200024F400EB
:1023F0000000002080070020D02800000649074A7E
:10240000074B9B1A03DD043BC858D050FBDC00F09F
:1024100013F8FDF715FF0000102900000000002050
:10242000A8000020FEE7FEE7FEE7FEE7FEE7FEE786
:10243000FEE7FEE7FEE7FEE730B4AF4B1B78062B66
:102440001BD0AE4AD2F8883043F47003C2F888300B
:10245000BFF34F8FBFF36F8F4FF01023D3F80022DD
:10246000002AC0F27381D3F80432002BC0F26E81CF
:10247000A34BA44A1A6030BC7047A34B1B681D07CE
:10248000DFD1A24B1B6803F0F002302A00F08E80EF
:1024900003F0E003402B00F089809C4B1B6803F0A5
:1024A000F003302B00F0FB80984B1B6803F0F00228
:1024B000302A46D003F0E003402B42D0934B1B68F8
:1024C00003F0F003302B00F0F880904B1B6803F012
:1024D000F002302A56D003F0E003402B52D08B4B51
:1024E0001B6803F0F003302B00F0F780874B1B686C
:1024F00003F0F003302B69D0844B1B6803F0F0032A
:10250000502B7AD0814B1B6803F0F002302A28D080
:1025100003F0E003402B24D07C4B1B6803F0F00257
:10252000302A03D003F0E003402B8AD14FF08043E0
:10253000D3F80024D20744BF6FF00102C3F800248F
:102540007FE7734B6C4A1B6812787249C3F34233BE
:10255000062A0B6048D16C4B1B6819077FF471AFDA
:10256000ACE76D4A644B12681B786C4902F04F026D
:10257000062B0A607FF465AF634B1B6819077FF475
:1025800060AFC9E74FF080430022C3F80C21C3F8C5
:102590001021C3F83825584B1B78062B7FF451AF18
:1025A000594B1B681B077FF44CAF98E75C4B524AB2
:1025B0001B6812785B49C3F30423062A0B60EAD137
:1025C000514B1B681C077FF43CAF66E7564C4A4AE8
:1025D000564912785648574B0525256001250D6050
:1025E00000243F2104601960062A7FF42AAF464B7D
:1025F0001B681C077FF425AF7EE74FF080534E4ADF
:10260000D3F80414C2F82015D3F80814C2F824151E
:10261000D3F80C14C2F82815D3F81014C2F82C15EE
:10262000D3F81414C2F83015D3F81814C2F83415BE
:10263000D3F81C14C2F84015D3F82014C2F844157E
:10264000D3F82414C2F84815D3F82814C2F84C154E
:10265000D3F82C14C2F85015D3F83014C2F854151E
:10266000D3F83414C2F86015D3F83814C2F86415DE
:10267000D3F83C14C2F86815D3F840141E48C2F8C9
:102680006C15D3F844140378C2F87015062B7FF448
:10269000D8AE1D4B1B6818077FF4D3AE32E7164B3C
:1026A000264A1B7826491160062B7FF4CAAE164BCA
:1026B0001B6818077FF4C5AEF6E622490E4BCA68C0
:1026C0001B7822F08072062BCA607FF4BAAE0E4BE4
:1026D0001B681A077FF4B5AEF7E6074B1A4A1B785A
:1026E0000321062B11607FF4ACAE074B1B681D075E
:1026F0007FF4A7AEFAE600BFE00F00F000ED00E0C7
:10270000000000200090D003E40F00F0E80F00F07C
:10271000440200103C05004058020010E40E004046
:1027200024030010403501401056004088560040F8
:10273000185600401456004000C0004074C00740C6
:102740000DF0ADBAF0ED00E0A0050040184B0122FD
:10275000C3F80425D3F80024002AFBD04FF010233F
:1027600015221349C3F80022D1F80034002BFBD006
:102770004FF0102215210E4BC2F80412D3F800249A
:10278000002AFBD000220A49C3F80425D1F80034FE
:10279000002BFBD0BFF34F8F0649074BCA6802F4EA
:1027A000E0621343CB60BFF34F8F00BFFDE700BF74
:1027B00000E0014000ED00E00400FA0508B5074B19
:1027C000044613B10021AFF30080054B1868836AFB
:1027D00003B19847204600F03DF800BF000000001C
:1027E000D828000070B50D4E0D4CA41BA410002578
:1027F000A54209D10B4E0C4C00F02EF8A41BA410DE
:102800000025A54205D170BD56F825309847013501
:10281000EEE756F8253098470135F2E764000020CE
:1028200064000020640000206800002010B5431EF2
:102830000A44914200D110BD11F8014B03F8014F39
:10284000F7E702440346934200D1704703F8011BA7
:10285000F9E70000FEE700BFF8B500BFF8BC08BC10
:102860009E467047F8B500BFF8BC08BC9E4670474E
:10287000E4040020AC050020B4050020EC04002096
:102880001800000061707000466174616C20657210
:10289000726F720053797374656D2072657365741D
:1028A0000000000062616C6C6F6300006770696F0C
:1028B0007465000073706900756172740000000037
:1028C000FFFFFFFF07FF00000000004000000000C6
:1028D0000030004003000100040000200000000060
:1028E0008428000000000300A4280000000000006D
:1028F000AC28000000000000B42800000000000028
:08290000B828000000000000EF
:0829080038D9FF7F0100000037
:102910000090D00300000000000000000000000054
:1029200000000000000000000000000000000000A7
:102930000000000000000000000000000000000097
:102940000000000000000000000000000000000087
:102950000000000000000000000000000000000077
:102960000000000000000000000000000000000067
:0C29700000000000250200000102000031
:10297C00000000000000000000000000000000004B
:10298C00000000000000000000000000000000003B
:10299C00000000000000000000000000000000002B
:0C29AC000000000000000000000000001F
:04000003000023FDD9
:00000001FF
