:020000022000DC
:10300000000001206985020091850200938502007D
:103010009585020097850200998502000000000056
:103020000000000000000000000000009B8502007E
:103030009D850200000000009F850200A18502001E
:10304000E1570200A38502004966020049610200BF
:1030500099610200A3850200195C0200A3850200A9
:10306000A3850200A3850200A3850200A3850200B8
:10307000A3850200A3850200A3850200A3850200A8
:10308000A385020031420200A3850200A38502004D
:10309000D1420200A38502008D8C0200A3850200AC
:1030A000A3850200A3850200A3850200A385020078
:1030B000A3850200A38502000000000000000000BC
:1030C000A3850200A3850200A3850200A385020058
:1030D000A3850200A3850200A38502000000000072
:1030E00000000000000000000000000000000000E0
:1030F00000000000000000000000000000000000D0
:1031000000000000000000000000000000000000BF
:1031100000000000000000000000000000000000AF
:10312000000000000000000000000000000000009F
:10313000000000000000000000000000000000008F
:10314000000000000000000000000000000000007F
:10315000000000000000000000000000000000006F
:10316000000000000000000000000000000000005F
:10317000000000000000000000000000000000004F
:10318000000000000000000000000000000000003F
:10319000000000000000000000000000000000002F
:1031A000000000000000000000000000000000001F
:1031B000000000000000000000000000000000000F
:1031C00000000000000000000000000000000000FF
:1031D00000000000000000000000000000000000EF
:1031E00000000000000000000000000000000000DF
:1031F00000000000000000000000000000000000CF
:10320000044B05481B1A062B02D9044B03B118477F
:10321000704700BF17220020142200200000000089
:1032200005490648091A891001EBD171491002D0ED
:10323000034B03B1184770471422002014220020CA
:103240000000000010B5064C237843B9FFF7D8FF03
:10325000044B13B10448AFF300800123237010BD69
:1032600098220020000000004C9C020008B5084B8A
:103270001BB108480849AFF300800848036813B938
:10328000BDE80840CCE7064B002BF9D09847F7E79C
:10329000000000004C9C02009C2200201022002014
:1032A00000000000134B002B08BF114B9D46A3F5F7
:1032B000803A00218B460F461148124A121A05F037
:1032C0009CFE0D4B002B00D098470C4B002B00D0E0
:1032D00098470020002104000D000B4805F02EFE49
:1032E00005F05AFE2000290003F02CFB05F02CFE0F
:1032F00000000800000001200000000000000000A5
:1033000098220020FC2B0020718F0200F0B595B0B0
:10331000002415460F4608461E4602F05BF8384664
:10332000234605A9082208951A9D09960D950A9429
:103330008DF82C400C9402F0ABF89DF814300798EF
:1033400006998DF8104003F00302012A0290ADF8AF
:103350000C102CD0022A04D0384602F04BF815B0DD
:10336000F0BDBDF81650C3F3C202C3F38003C5F32A
:1033700089158DF80E208DF80F300826082D2C4663
:1033800028BF08243346224638460EA902F080F8AA
:103390002D1B21460EA802AA08AB264400F06AFDA8
:1033A000002DEBD1384602F025F815B0F0BDBDF880
:1033B0001460059DC6F38316C3F3C20EB2000EA9B6
:1033C000C3F3800438460823C5F395258DF80EE035
:1033D0008DF80F4002F05CF808AB009328463246A7
:1033E0000EA902AB00F0AEFCB6E700BF014B012214
:1033F0001A707047B4220020704700BF30B5114DDD
:10340000114889B002F0E0FF0FCD6C460FC495E87B
:103410000F00062584E80F004FF0FF334FF0EB74E8
:10342000094800956946002201930293039306948C
:1034300002F0DCFE08B100F0B7FE044B00221A7067
:1034400009B030BDC491020080210020B5220020C7
:1034500000B583B0044B0093044A4023FFF756FFA6
:1034600003B05DF804FB00BF71340200B8220020F5
:1034700010B5094C09480023D2B2237003F02AF892
:1034800030B9074B1B7813B12378002BFCD010BD4B
:1034900000F08AFEF5E700BFB42200208021002062
:1034A000B522002030B5104D0FCD89B06C460FC449
:1034B00095E80F00062584E80F004FF0FF334FF02A
:1034C000EB740A480A4A00956946019302930393F4
:1034D000069402F08BFE08B100F066FE054B012257
:1034E0001A7009B030BD00BFC491020080210020D5
:1034F000ED330200B522002010B5054CFFF7D2FFD6
:103500002046042100F0DEFB0123637210BD00BFE2
:103510008821002008B5104B10480022FF21C3F875
:10352000182499601A605A60C3F8142483F81C2484
:1035300001F008FF70B90A4B0A4A9A1AD20807D05C
:10354000094903460B520133934200F10C00F9D1B3
:10355000002008BD08BD00BFF8220020F491020041
:10356000D89C0200809C02001422002021B9124A3B
:1035700002EBC0000068704730B410490E4D491B83
:10358000C9080ED00E4B5A88824218BF002205D1BE
:103590000FE0DC89844203F10C0305D001328A423A
:1035A000F7D1002030BC704705EBC200006830BC8A
:1035B00070472846FAE700BF809C0200D89C0200B2
:1035C00014220020094B013903EBC00003290BD85A
:1035D000DFE801F0020806040220704740797047D6
:1035E000007970470420704700207047809C0200DB
:1035F0002DE9F04F874C626823689A4285B042D02B
:103600000023C4F81834BFF34F8F6068A56805EA3B
:103610000003023304EB8302111D127912F0030F31
:10362000024610D10B884988C3F3891303EB911329
:1036300001331A4402EA0503023304EB8306311D09
:103640003679B607EED004EB8303511C5B68019317
:10365000294004EB810103F00303C9680291022BA6
:1036600002F102086B4F12D0012B6DD0032B06D054
:103670002368181A18BF012005B0BDE8F08FD7F8ED
:103680001834002BF4D1002005B0BDE8F08FBDF850
:1036900006306148C3F38919B9F1500FCA46A8BF73
:1036A0004FF0500A6AF38F130AF10801ADF80630A3
:1036B00001F04AFE0646002800F0878025EA080B44
:1036C0000BF1010B01F086FE4FEA8B0B304601A98E
:1036D0000822002301F0B4FEDA4540F28E80BBF1EF
:1036E000000F74D107F10C0152463046082301F057
:1036F000A7FE09F1030708EB9707D4F81834DFF8A1
:103700001481D4F81054002B59D14DB16B7A28464E
:10371000314613B12B681B6898476D68002DF5D1B1
:10372000304601F067FE04A8002300F80D3D01F0CB
:1037300049FAD4F81834374A03B957609DF80300A2
:1037400001F068FA606893E7BDF804303248C3F3CB
:103750008312062A28BF0622911C62F3891389006E
:10376000ADF8043001F0F0FD064670B301F032FE12
:103770000023304601A9082201F062FEBDF80430A2
:1037800013F4707F44D04FF0000A4FF0080908EAA4
:10379000050104EB81014B460C313046042201F057
:1037A0004FFEBDF804300AF1010AC3F3831308F198
:1037B0000107534509F10409B846E8D89DE73046AA
:1037C00001F018FED8F8040052E7786850E708EADC
:1037D000050107EB8101CBEB0A0530465A460C3157
:1037E000EDB2082301F02CFE30462A4607F10C0109
:1037F0000BF1080301F024FE7BE708EA050107EB63
:1038000081010C3152463046082301F019FE70E761
:10381000474672E7F8220020F49102002DE9F04FAC
:1038200089B008AB00265B4C03F80D6D029018467A
:10383000A3680391019301F0C5F9A5686168D4F804
:1038400000806B180133C8EB0303032B5ED805F12E
:103850000109B646C8EB090904F5836C04F2144764
:103860000126A2465CE8003F43EA06024CE800203D
:1038700090F0000FF6D157E8003F43EA060247E810
:10388000002090F0000FF6D101EA0503023304EBAB
:103890008302101D127912F0030F0A4613D1038818
:1038A0004088C3F3891303EB901301331A4402EAEF
:1038B0000503023304EB830B0BF104009BF804B007
:1038C0001BF0030FEBD004EB830302325B6805931C
:1038D00003F00303012B57D0022B06D1BDF816309D
:1038E000C3F38913033302EB930257E8003F03EA63
:1038F0000E0047E8000B9BF0000FF6D113B1CAF899
:103900000420114609EB0103032BABD905EA080398
:10391000023304EB83039DF813001A7942F003028B
:103920001A7123680233236001F074F9019B029D30
:1039300008F101021A4008EA030304EB8202023391
:1039400004EB8303290CD1601A79C5F3001161F3EC
:10395000820265F3C5021A719A886FF389129A8000
:103960005A68039961F39F221146012060F3010117
:103970005A60197194F81C341BB1FFF739FE002806
:10398000FBD109B0BDE8F08FBDF81430C3F3831349
:103990001A44AAE7F82200202DE9F04F89B008ABBD
:1039A00000265F4C03F80D6D01901846A368029144
:1039B0000093039201F006F9A5686168D4F80080CD
:1039C0006B180133C8EB0303042B5ED805F1010922
:1039D000B646C8EB090904F5836C04F214470126C6
:1039E000A2465CE8003F43EA06024CE8002090F063
:1039F000000FF6D157E8003F43EA060247E80020EF
:103A000090F0000FF6D101EA0503023304EB8302C4
:103A1000101D127912F0030F0A4613D10388408853
:103A2000C3F3891303EB901301331A4402EA05032D
:103A3000023304EB830B0BF104009BF804B01BF082
:103A4000030FEBD004EB830302325B68059303F0B2
:103A50000303012B5ED0022B06D1BDF81630C3F351
:103A60008913033302EB930257E8003F03EA0E0089
:103A700047E8000B9BF0000FF6D113B1CAF8042001
:103A8000114609EB0103042BABD905EA0803023305
:103A900004EB83039DF813001A7942F003021A71B4
:103AA00023680333236001F0B5F8009B019D039E5A
:103AB00008F1020108F1010219401A4008EA030363
:103AC00004EB810104EB8202023304EB8303280C34
:103AD000CE60D0601A79C5F3001161F3820265F3FC
:103AE000C5021A719A88012060F389129A805A6877
:103AF000029961F39F22114660F301015A60197126
:103B000094F81C341BB1FFF773FD0028FBD109B0FA
:103B1000BDE8F08FBDF81430C3F383131A44A3E754
:103B2000F82200202DE9F04F8BB00AAD0026644C3E
:103B300005F80D6D029005932846A3680391019343
:103B4000049201F03FF8A5686168D4F800806B1812
:103B50000133C8EB0303052B5ED805F10109B64616
:103B6000C8EB090904F5836C04F214470126A24648
:103B70005CE8003F43EA06024CE8002090F0000FAA
:103B8000F6D157E8003F43EA060247E8002090F0EC
:103B9000000FF6D101EA0503023304EB8302101D86
:103BA000127912F0030F0A4613D103884088C3F339
:103BB000891303EB901301331A4402EA050302331D
:103BC00004EB830B0BF104009BF804B01BF0030F14
:103BD000EBD004EB830302325B68079303F003032B
:103BE000012B66D0022B06D1BDF81E30C3F389131A
:103BF000033302EB930257E8003F03EA0E0047E865
:103C0000000B9BF0000FF6D113B1CAF80420114647
:103C100009EB0103052BABD905EA0803023304EBDA
:103C200083039DF81B001A7942F003021A7123687E
:103C30000433236000F0EEFF019B029E049F08F115
:103C40000200184008F1030108F1010219401A406E
:103C500004EB800008EA030304EB810104EB820219
:103C60000233C76004EB83030598C860350CD56048
:103C70001A79C6F3001161F3820266F3C5021A7164
:103C80009A88022161F389129A805A68039961F334
:103C90009F221146012060F301015A60197194F8C6
:103CA0001C341BB1FFF7A4FC0028FBD10BB0BDE80E
:103CB000F08FBDF81C30C3F383131A449BE700BF99
:103CC000F822002030B4144DD5F81044002154B12E
:103CD000237A8B4214D0234602E01A7A8A420FD00C
:103CE0005B68002BF9D10172D5F810340A4A7BB118
:103CF0005B684360D2F810345860084630BC7047A7
:103D000001310A29E3D14FF0FF31084630BC70473A
:103D1000C2F810044360F0E7F822002038B5084BE1
:103D2000D3F81044012583F81C543CB12368657214
:103D300020465B6898476468002CF7D138BD00BF07
:103D4000F82200202DE9F04784B01D460C9C00238A
:103D500094F80C802373EB7981460E4617460BB31B
:103D6000062F0FD8DFE807F0363B414804515E00CC
:103D7000B168F06896E80C00009101904946204631
:103D800000F0CCFFEB792BB92B7AEBB92046334905
:103D900000F0C4FF204600F0B5FF84F80C8004B0AA
:103DA000BDE8F0872B7A002B4BD1AA792C4BA88841
:103DB00053F822A00021FFF7D9FB524603462949B8
:103DC000204600F0ABFFCBE720462749274A00F00A
:103DD000A5FFDBE74946204600F0A0FFD2E74946B1
:103DE0003268204600F09AFFCCE74946204696E824
:103DF0000C0000F093FFC5E7B16896E80C00204680
:103E00000091494600F08AFFBCE7B1683069F76865
:103E100096E80C000091029049460197204600F078
:103E20007DFFAFE796E80C00B168F0683769766906
:103E300003960091019049460297204600F06EFFDC
:103E4000A0E7A979A888FFF7BDFB094B064953F8FD
:103E50002020204600F062FFA7E700BF5892020032
:103E60000892020044920200409202005092020026
:103E70001C920200082951D82DE9F0471D46002365
:103E800095F80C902B73D379904607460E46002B7D
:103E900045D0002405E03A5D013400F03FFF082CD6
:103EA0000AD0A64228463049F5D828462F49013481
:103EB00000F034FF082CF4D128462D49DFF8D4A0B7
:103EC00000F02CFF00240DE03A5DDAF800301344D6
:103ED00001345B7813F0970F08BF2E2200F01EFF0D
:103EE000082C0AD0A64228462249EDD82846224965
:103EF000013400F013FF082CF4D198F8073013B9FF
:103F000098F80830F3B928461C4900F007FF284606
:103F100000F0F8FE85F80C90BDE8F0877047137A42
:103F2000B3B998F80620164BB8F8040053F82240AD
:103F30000021FFF71BFB224603461249284600F0EA
:103F4000EDFEA6E728461049104A00F0E7FEDAE742
:103F500091799088FFF736FB0D4B0B4953F82020E1
:103F6000284600F0DBFEDCE75C920200649202006F
:103F7000689202006C9202004C9202005892020079
:103F80000892020044920200409202005092020005
:103F90001C920200A42100202DE9F84F234B1A782F
:103FA0008AB3DFF88CB0DFF88C80DFF88C900024C7
:103FB0004FF0010A03E00134E4B2944223D226B266
:103FC000D8F80050DBF8003015F836000AFA00F196
:103FD000194205EBC607EED0154A23EA0103136028
:103FE00001F010FE15F83650D9F800300AFA05F144
:103FF0000B4000FA05F18B4207D00C4B01341A78C4
:10400000E4B29442DBD3BDE8F88F79787B68A1F104
:104010000101B1FA81F14909002BEED0091A2846B5
:10402000B1FA81F149099847E7E700BFF02700207E
:1040300018280020EC2700201428002070B5064620
:10404000114800F083FD40B9104D01242B68B440A5
:104050001C4203D023EA04042C6070BD304601F0FA
:10406000D1FD0B4E326860B122432B6809493260A2
:104070001C432C60044809680022BDE8704000F031
:104080000BBD22EA0402F0E7F427002018280020E4
:1040900014280020E8270020F0B5042A85B0174630
:1040A00002D8072005B0F0BD0191054601F044FC9F
:1040B0000199002830D01C4CDFF888E01B481C4ACE
:1040C0001C4B256000264C1E07608EF80010166001
:1040D0001E60E4B2032709B918E01C4623B205EBC1
:1040E000C30215F833009378134A8DF80D3003A9F5
:1040F0008DF80C708DF80E608DF80F6001F026FCC5
:10410000631E0028CED1DBB2002CE6D10B4A0C484E
:10411000002100F0AFFCC5E7019101F0CBFB019954
:104120000028C8D0BEE700BFEC270020E827002009
:1041300014280020182800203D400200993F02006A
:10414000D0920200F027002070B5084D2B785BB1AB
:10415000074E00243368012113F8340001F0C0FC3D
:104160002B780134A342F5D8002070BDF027002041
:10417000EC27002070B5094D2B7853B1084E002470
:10418000336813F8340001F00DFD2B780134A3429D
:10419000F6D80448BDE8704000F0D8BCF0270020F5
:1041A000EC270020F427002000B585B00023039001
:1041B000194644F2010001AAADF80430029300F060
:1041C00003F805B05DF804FB10B5FFF7A7FDFFF796
:1041D0000FFA0028FBD1104C10492088000440F051
:1041E0000100FFF71BFB0E4B1B68DB0700D5FFDE52
:1041F00020880C49000440F00200FFF70FFBBFF3DA
:104200004F8F0949094BCA6802F4E0621343CB603F
:10421000BFF34F8F00BFFDE714220020D4920200AD
:10422000F0ED00E0E092020000ED00E00400FA058D
:10423000F8B5204A204B0025C2F84051C2F844513D
:10424000C2F84851C2F84C51C2F80051C2F80451AA
:104250001B6813B31949D2F804250C68141B1A689B
:1042600024F07F44A2422F4609D8197CDE69A41AA3
:10427000154499B91EB133461A68A242F5D9104BBC
:1042800010491A780B789A420DD00F490F4A41F81D
:1042900023504FF48013C2F80031F8BD1F745A69DF
:1042A00098699047E6E7531CDBB2022B08BF002356
:1042B0000B70EAE700100140202800201C28002095
:1042C00024280020252800203429002000E100E0D7
:1042D0002DE9F04F7D4A7E49137809787D4899424F
:1042E00087B0066800F0E8810133DBB2022B08BF1B
:1042F000002379491370794A0291084652F8231035
:10430000036874488A19002522F07F420260AE4695
:104310002846A3B11A688A4200F2D681DC68C3F845
:1043200000E0891A1044DA6934B1871927F07F4711
:10433000DD619C605F601D461346002BEAD1029A46
:1043400004931360049C01230593654BDFF894816B
:104350001B780193029BDFF890C11F685D4BBB4641
:10436000D3F800A02F4600230093C1461E464FF00D
:10437000010E37B37A68B9683D46FF69CAEB02039C
:1043800023F07F4363453CD80B442B606E60AE60E6
:1043900085F810E0EE61002C67D021688B4242D98D
:1043A000204603E01168994244D21046C2695B1A64
:1043B000002AF7D12B60EA612346C5611C46002F15
:1043C000D8D198F8003098F801209A4200F08E80F9
:1043D0005A1C03EB430308EBC30399F802109D68D2
:1043E000D2B2914289F800201A7908BF89F800708A
:1043F000022A48D0032A3CD0012A22D023461C4658
:10440000DDE7C2EB0A0222F07F428A4202D28B1A17
:104410002B60BBE72E606E60AE6085F810E0EE6149
:104420001CB321680023CB1A23602B46EC61AB46FA
:104430001C46C4E7C91A11602B60EA612346C561B6
:10444000BCE72A7C0392002AD8D1DA686A6019692D
:10445000A9605869E86010339B68AB61019B002B31
:104460008CD0039B6B601A4688E72B46AB461C46F4
:10447000A5E70CB9C2E71C46E3692674002BFAD104
:104480009B461C469BE754B1A54200F00881234699
:1044900002E0954207D01346DA69002AF9D1234693
:1044A0002E741C468BE7AB4200F0FA80E96928685D
:1044B000D9610029F3D023460A6802440A60009AB1
:1044C0002E749C4218BF01220092EAE724280020A3
:1044D000252800201C280020202800203429002026
:1044E0002628002028280020FEFF7F00029B9DF840
:1044F0000420C3F800B0764BC3F800A0754B1A70C7
:10450000009B1BB9049BA34200F0D081002C00F05B
:104510003C81714D6E4BD5F804051B686F4ED4F885
:1045200000C03178C21A22F07F420332002952D1F2
:104530006B4FDFF8B091DFF8B0814FF480314FF46A
:10454000003E0124C5F84413C5F80413C7F880E100
:10455000C7F800E02C602F21D9F8005000BF00BF41
:1045600000BF00BF00BF00BF00BF00BF45452FD048
:1045700000BF00BF00BF00BF00BF00BF00BF00BF43
:1045800000BF00BF00BF00BF00BF00BF00BF00BF33
:1045900000BF00BF00BF00BF00BF00BF00BF00BF23
:1045A00000BF00BF00BF00BF00BF00BF00BF00BF13
:1045B00000BF00BF00BF00BF00BF00BF00BF00BF03
:1045C00000BF00BF00BF00BF00BF00BF00BF00BFF3
:1045D0000139C3D1347062452CBF9A1803EB0C0229
:1045E0003D4922F07F43C1F84035D1F80425121A25
:1045F0001B1A22F07F4223F07F4303329A4248D9AC
:10460000D1F80435374AC1F84035126836492F23AE
:1046100000BF00BF00BF00BF00BF00BF00BF00BFA2
:104620008A422FD000BF00BF00BF00BF00BF00BF45
:1046300000BF00BF00BF00BF00BF00BF00BF00BF82
:1046400000BF00BF00BF00BF00BF00BF00BF00BF72
:1046500000BF00BF00BF00BF00BF00BF00BF00BF62
:1046600000BF00BF00BF00BF00BF00BF00BF00BF52
:1046700000BF00BF00BF00BF00BF00BF00BF00BF42
:1046800000BF00BF013BC3D1154B4FF40032C3F84C
:104690000021104A0023137007B0BDE8F08F2246B6
:1046A000D4F81CB0BBF1000F22D0D16910685B4672
:1046B00000297FF401AF02E70C4B02931B680493BF
:1046C000002505951C4640E6521A1A6037E600BFE1
:1046D0001C28002026280020001001403C29002032
:1046E00000E100E0A02100200024F40020280020A8
:1046F0007549764BC1F808E075492F20096800BF5D
:1047000000BF00BF00BF00BF00BF00BF00BF994295
:104710002FD000BF00BF00BF00BF00BF00BF00BF61
:1047200000BF00BF00BF00BF00BF00BF00BF00BF91
:1047300000BF00BF00BF00BF00BF00BF00BF00BF81
:1047400000BF00BF00BF00BF00BF00BF00BF00BF71
:1047500000BF00BF00BF00BF00BF00BF00BF00BF61
:1047600000BF00BF00BF00BF00BF00BF00BF00BF51
:1047700000BF0138C3D1D1691068002900F09B80C7
:104780000122DA465B46019296E64F4A514B504E63
:104790004E484FF480314FF400370125C3F8807044
:1047A000C2F848132F23C2F80813556031681E461B
:1047B00000BF00BF00BF00BF00BF00BF00BF00BF01
:1047C00081422FD000BF00BF00BF00BF00BF00BFAD
:1047D00000BF00BF00BF00BF00BF00BF00BF00BFE1
:1047E00000BF00BF00BF00BF00BF00BF00BF00BFD1
:1047F00000BF00BF00BF00BF00BF00BF00BF00BFC1
:1048000000BF00BF00BF00BF00BF00BF00BF00BFB0
:1048100000BF00BF00BF00BF00BF00BF00BF00BFA0
:1048200000BF00BF013EC3D195602B4A146000BF9A
:1048300000BF00BF00BF00BF00BF00BF00BF81427C
:104840002FD000BF00BF00BF00BF00BF00BF00BF30
:1048500000BF00BF00BF00BF00BF00BF00BF00BF60
:1048600000BF00BF00BF00BF00BF00BF00BF00BF50
:1048700000BF00BF00BF00BF00BF00BF00BF00BF40
:1048800000BF00BF00BF00BF00BF00BF00BF00BF30
:1048900000BF00BF00BF00BF00BF00BF00BF00BF20
:1048A00000BF013BC3D10D4B1C70F2E6059B002BF2
:1048B0003FF4EFAE2AE601231A4601938A468B465F
:1048C0000B4600922E74ECE5001001400024F40029
:1048D000A021002000E100E01C2800203C2900204D
:1048E0002DE9F041594B5A4A5A4D5B4E4FF48034F2
:1048F0004FF400310120C2F88010C3F848432F2143
:10490000C3F8084358602D680C4600BF00BF00BFC5
:1049100000BF00BF00BF00BF00BFB5422FD000BF27
:1049200000BF00BF00BF00BF00BF00BF00BF00BF8F
:1049300000BF00BF00BF00BF00BF00BF00BF00BF7F
:1049400000BF00BF00BF00BF00BF00BF00BF00BF6F
:1049500000BF00BF00BF00BF00BF00BF00BF00BF5F
:1049600000BF00BF00BF00BF00BF00BF00BF00BF4F
:1049700000BF00BF00BF00BF00BF00BF00BF013CC1
:10498000C3D1364C98600020206000BF00BF00BF3C
:1049900000BF00BF00BF00BF00BFB5422FD000BFA7
:1049A00000BF00BF00BF00BF00BF00BF00BF00BF0F
:1049B00000BF00BF00BF00BF00BF00BF00BF00BFFF
:1049C00000BF00BF00BF00BF00BF00BF00BF00BFEF
:1049D00000BF00BF00BF00BF00BF00BF00BF00BFDF
:1049E00000BF00BF00BF00BF00BF00BF00BF00BFCF
:1049F00000BF00BF00BF00BF00BF00BF00BF013944
:104A0000C3D1174D1749DFF86080DFF860C0DFF8C9
:104A100060E028704FF48016E0250B27C8F80000EE
:104A20008CF800008EF80000087048708F70C2F893
:104A3000806182F814531660C3F8080582F8115398
:104A4000D3F804352360BDE8F08100BF00100140B9
:104A500000E100E0A02100200024F4001C28002038
:104A60003C2900202828002020280020242800207D
:104A700025280020074B9B780BB9082070473AB1D6
:104A800030B10368187C0028F7D159745A61704717
:104A900007207047282800202DE9F043284CA378F0
:104AA00083B01BB9082003B0BDE8F0830028F9D01B
:104AB000042903D8072003B0BDE8F0834369002B25
:104AC000F0D0064602A8737C0025012B00F8015D9A
:104AD0000CBF8946A94690460F4600F073F86378EC
:104AE000A07821785A1CD2B2904208BF2A4691423F
:104AF0001FD003EB430304EBC30319464FF0010E31
:104B000041F8086F0F4883F804E0D0F804654E6060
:104B10008F609DF80700C3F81490C3F81880627086
:104B200000F078F8084B4FF480122846C3F80021B3
:104B3000B9E79DF8070000F06DF80420B3E700BF67
:104B4000282800200010014000E100E070B51B4C57
:104B5000A37882B013B9082002B070BD0028FAD043
:104B60004369002BF7D0064602A8002500F8015D36
:104B7000357400F027F86278A0782178531CDBB2F6
:104B8000984208BF2B46994212D002EB420204EB36
:104B9000C20202219DF8070096601171637000F057
:104BA00039F8074B4FF480122846C3F80021D3E7A9
:104BB0009DF8070000F02EF80420CDE728280020FB
:104BC00000E100E0F0B4EFF3108472B60E4B9A6887
:104BD000B2B90E4901259D60D1F880700C4D2E466A
:104BE0003D401D60C1F88060D1F884505D604FF099
:104BF000FF33C1F88430027004B962B6F0BC70476C
:104C000001230370F8E700BFF02B002000E100E073
:104C1000FC06FFBD094B9A6872B168B910B4EFF396
:104C2000108272B606491C680C605C684C60986023
:104C300002B962B65DF8044B704700BFF02B00204C
:104C400000E100E0B8B130B4416882680468521AEB
:104C5000D2B2531E2160DBB242B101680A685C1E09
:104C6000551C0D601370E3B2FF2BF6D103680020D2
:104C7000187130BC70470E20704700BF70B582B00D
:104C800002AB002503F8015D04461846FFF79AFFC2
:104C9000236861681A688A4210D9511E1960216818
:104CA000A3680E68087912F8015C228AE4689B1BED
:104CB000DBB2984205FB024538BF0B719DF8070037
:104CC000FFF7A8FF284602B070BD00BF30B583B023
:104CD00002AB002203F8012D054618460C46FFF7EB
:104CE00071FF2A681368591C1160E9682A8A641ADE
:104CF000B4FBF2F41C709DF80700FFF78BFF03B0C4
:104D000030BD00BF826802B9704710B504464369E0
:104D10002168006998470023A36010BD0EB400B558
:104D200082B0039929B102AA04AB42F8043D00F015
:104D300089F802B05DF804EB03B070472DE9F84F35
:104D40001746B9428A4606461D46DDF828B00B9A3A
:104D500073D30B464FF00108B3FBF7F39F4208F102
:104D60000108F9D9A84538BFA84612F0010902D1B7
:104D7000BBF1000F41D1B168012402E0013D07FB06
:104D800004F4012DFAD8BAFBF4F39F42F7D92C4D65
:104D900002E0B168BAFBF4F34A1CB2603268E85C26
:104DA0005054B0687268904204FB13AA02D3304694
:104DB000FFF7A8FFB4FBF7F4002CEAD1B9F1000F1C
:104DC00015D0BBF1000F12D0C34510D92024B36811
:104DD0003268591CB160D454B26873689A420BF1BE
:104DE000FF3B06D2BBF1000F01D0C345EFD8BDE8B1
:104DF000F88F3046FFF786FFF4E7930718D4202496
:104E0000C345B8D9B16833684A1CB2605C54B16814
:104E1000736899420BF1FF3B05D2BBF1000FABD099
:104E2000C345F0D8A8E73046FFF76CFFB168F4E758
:104E3000002D14BF20243024E2E74FF0010891E751
:104E4000F89202002DE9F04F0D4685B0002900F0E0
:104E5000B2800B78DFF8E8A4064691460135002BB6
:104E600000F0A580252B40F0A28129464FF00008D4
:104E70000D4611F8013B2D2B00F09381302B00F0F3
:104E800093812B2B00F085812A2B00F09E81A3F1CA
:104E90003002092A00F2BE816A1C002404EB84045B
:104EA00003EB44042A2BA4F13004154600F08E8154
:104EB0001378A3F13001092905F10102EED91A4650
:104EC0002E2A00F09081002701E015F8012F02F052
:104ED000FB03682BF9D0253A532A63D8DFE812F098
:104EE00027016200620062006200620062006200EC
:104EF00062006200620062006200620062006200A2
:104F00006200620062006200620062006200620091
:104F10006200620062006200620062006200620081
:104F20006200620062006200620062006200620071
:104F30006200620062006200620062006200620061
:104F40006200620062004A01620062006200620068
:104F50006200620062006200620062003601CE0000
:104F60006200620062006200CE00620062006200C5
:104F7000620062006200A900620062006E006200CE
:104F80005400620062004A01D9F800301A1DC9F8C5
:104F90000020196800943B46CDF8048030460A2270
:104FA000FFF7CCFE01352B78002B7FF457AF337B16
:104FB000002B40F06C8105B0BDE8F08FD9F80030CF
:104FC0001A1DC9F8002018F0010F1F6840F0258154
:104FD000002F00F0A581384604F017F880464445BC
:104FE00015D9A4B14FF0200B00E084B1B26833684A
:104FF000511CB16003F802B0B26873689A4204F1C0
:10500000FF3402D33046FFF77DFE4445EDD8013F23
:1050100017F8013F002BC5D0B2683168501CB06052
:105020008B54B26873689A42F2D33046FFF76AFE37
:10503000EEE7D9F80020131DC9F80030B3683168D5
:105040001468581C3022B060CA54B3687268934226
:1050500080F018813268581C7821B060D154B26851
:1050600073689A4280F00A81082300220192214647
:10507000009330461022FFF761FE93E7D9F8003025
:105080001A1DC9F80020D3F800B08BEAEB73A3EB2C
:10509000EB73092B4FF0010108DD8AFB0302DB17DC
:1050A000C3EBA203092B01F10101F6DCB94238BFC1
:1050B000394634B1BBF1000F02DB18F0040F00D009
:1050C000013C18F0020F40F0D58018F0010F18D104
:1050D000002C00F006818C4213D94FF0200CB268EE
:1050E0003368501CB06003F802C0B26873689A421B
:1050F00004F1FF3480F0F780002C00F0F2808C4245
:10510000EDD8BBF1000FC0F20D8118F0040F40F094
:10511000F48008F00303022B00F0BF808DE810013B
:1051200059463B4630460A22FFF708FE3AE7B36885
:105130003268581C2521B060D154B26873689A4215
:10514000FFF430AF3046FFF7DDFD2BE7D9F8002044
:10515000131DC9F80030B36831681278581CB0606C
:10516000CA54B26873689A42FFF41CAF3046FFF726
:10517000C9FD17E7D9F800301A1DC9F800201968D1
:1051800000943B46CDF8048030461022FFF7D6FD50
:1051900008E70D4611F8013B2D2B48F004087FF479
:1051A0006DAE48F0010863E648F0020860E6B268B8
:1051B0003168501CB0608B54B26873689A42FFF437
:1051C000F2AE3046FFF79EFDEDE60024D9F8003040
:1051D0001A1DC9F800206A781B682E2A1C4405F1A4
:1051E00001057FF470AE6A78A2F13003092B05F156
:1051F00001054FF000073FF66AAE07EB870702EBA9
:10520000470715F8012FA2F13003092BA7F130074A
:10521000F3D95CE61A46002452E6B846C7EB080B01
:1052200018F8012B8AB1B1683368481CB0605A5431
:10523000B26873689A42F1D33046FFF763FDC7EB5B
:10524000080B18F8012B002AEDD15C457FF6AAAEB9
:105250002027B3683268591CB160D754B2687368AC
:105260009A4204F1FF3402D33046FFF74BFD5C4510
:10527000EFD897E6002F3FF444AF26E73046FFF71C
:1052800041FDF1E63046FFF73DFDB368E2E630460A
:1052900005B0BDE8F04FFFF735BD002F7FF43EAFFE
:1052A000002C3BD08C427FF639AF4FF0300CB26807
:1052B0003368501CB06003F802C0B26873689A4249
:1052C00004F1FF3403D24CB38C42F0D826E73046C9
:1052D000CDF80CC00291FFF715FDDDF80CC0029966
:1052E000F1E700240DE73046CDF80CC00291FFF73E
:1052F00009FDDDF80CC00299FEE6B268531CB360EC
:1053000033682B209854B26873689A42FFF401AF57
:1053100030460291FFF7F6FC0299FAE60024FDE61A
:10532000B8465CE6B268531CB36033682D209854CD
:10533000B26873689A42CBF1000BFFF4EAAEE7E77C
:1053400067666666FFF77EBC2DE9F041B0F8108015
:10535000A8F104084144CF1C0646FFF78FFCB7FBB9
:10536000F8F7044678B3FFB200250123013FA0F807
:10537000068006600571437128D0804609E0637994
:10538000AF4203F101036371C8F800000660804674
:105390001CD03046FFF772FC01350028EFD166794A
:1053A000721E234603D0013082421B68FBD81F685F
:1053B0004EB1002523682146013538461C46FFF7CB
:1053C00085FCAE42F6D10020BDE8F0812046BDE864
:1053D000F08100BF10B40430012350E8002F02EB2D
:1053E000030140E8001494F0000FF6D15DF8044B7F
:1053F000704700BF0146021DF8B5012052E8004F7A
:10540000A4EB000342E8003595F0000FF6D113F04D
:10541000FF0300D0F8BD4E79701E0A4603D0013359
:1054200098421268FBD81768002EF3D000240D684C
:1054300001343846FFF74AFCA6422946F7D1F8BDA9
:105440002DE9F0410446181DE688B0FBF6F30F463F
:10545000154606FB130013B1013B2468FCD1321A38
:10546000AA4228BF2A468DB14FF000082044AD1A49
:1054700007EB08010430904403F0B4FDB5422A461E
:10548000246828BF32460020002DEFD1BDE8F0810E
:105490002DE9F041C688043304460F46B3FBF6F00D
:1054A000154606FB103110B101382468FCD1721A80
:1054B000AA4228BF2A468DB14FF000082144AD1AF8
:1054C000043107EB0800904403F08CFDB5422A46F6
:1054D000246828BF32460021002DEFD1BDE8F081BD
:1054E00001600B6843604A68934204BF0023436035
:1054F000704700BF426842B101688B681344436043
:105500004A68934204BF002343607047184A30B48E
:1055100002F1F005AB1ADB1003EBD3735B1002EB67
:10552000C30152F83330984228BF0C4605D311E02E
:1055300052F8333098420CD221468B1ADB1003EB21
:10554000D3735B10914202EBC304F1D8094830BC1D
:1055500070470D46984204D904F10802AA42D9D3F3
:10556000F4E76068034B002808BF1846EFE700BF68
:105570001C9602000C97020010B40023012401E0E5
:10558000202B0AD004FA03F2024299B203F101037C
:10559000F6D008465DF8044B70474FF6FF705DF893
:1055A000044B704790B189B130B40238002402E056
:1055B0000134202C09D030F8025F9542F8D133B184
:1055C0000A680123A34013430B6030BC70470B688B
:1055D0000122A24023EA02030B6030BCF6E700BFC1
:1055E00070B49DF80C60B8B1B1B1AAB10238002412
:1055F00002E00134202C0FD030F8025F9D42F8D138
:105600000120A04001EB820246B9C0430B68034071
:1056100041F8043B9142F9D170BC70470B680343D9
:1056200041F8043B9142F7D00B68034341F8043B37
:105630009142F3D1F0E700BFF0B491B100252B46C1
:10564000012606FA03F4144205D000EB450431F8B4
:105650001370A78001350133202BF2D10560F0BC17
:1056600070470D460560F0BC704700BF044B195CE5
:105670004FF0A04201238B40C2F80C35704700BFA9
:1056800020970200044B195C4FF0A04201238B408D
:10569000C2F80835704700BF20970200074B4FF053
:1056A000A041185CD1F804350122824022EA0300AF
:1056B0001340C1F80805C1F80C3570472097020067
:1056C00030B44FF0A04303224FF400354FF4802450
:1056D0004FF400204FF48011C3F84427C3F8482743
:1056E000C3F84C27C3F85027C3F80855C3F808453A
:1056F000C3F80805C3F8081530BC704700B17047FF
:1057000010B5064CA3683BB11A68A2605B68002024
:105710009847A368002BF7D110BD00BF4029002097
:1057200010B5012882B02AD023D303281FD100202E
:10573000072100F097F802A80023264C00F8013D4D
:10574000FFF740FAE368013BE360E3685BB9224B93
:1057500001221A604FF08042D2F81834C3F300439C
:10576000002BF9D1A3709DF80700FFF753FA02B0A0
:1057700010BD1A4B0122C3F8802002B010BD02A850
:105780000023144C00F8013DFFF71CFA237893B96D
:10579000124A6360A3602361E360106810F00100A7
:1057A00014D003F06DFA20B94FF080430122C3F802
:1057B000182501232370E3689DF8070001330122B7
:1057C000E360A270FFF726FA02B010BD072100F0D7
:1057D00049F8E6E7402900200C00004000E100E025
:1057E00010B51D4B1A6882B0F2B91C4B1A680AB981
:1057F00002B010BD00221A601B6801934FF0804375
:105800000222174C0199C3F8082323690122A270D0
:10581000002BEDD01A6822615B680120984723694C
:10582000002BF7D102B010BD00221A601B68009354
:105830004FF0804301220A4C0099C3F80823A36863
:105840006270002BD1D01A68A2605B680020984774
:10585000A368002BF7D1C8E7000100400401004015
:1058600040290020002810B418DB00F1604303F544
:1058700061434901C9B283F80013C3B240098000F3
:1058800000F1604000F5614003F01F0201239340E6
:10589000C0F8803103605DF8044B7047C3B2044A1E
:1058A00003F00F0449012244C9B21176E6E700BFB4
:1058B000FCEC00E030B51D4C94F8545083B015B1A9
:1058C000082003B030BD4FF0FF33FF220620072130
:1058D00023636363A363E36323646364A364E36494
:1058E00023606360A360E36023616361A361E3619C
:1058F000236284F850306362A36284F85230E3621A
:1059000084F8533084F85120FFF7ACFF084B094A64
:105910001D601B68019301984FF000430121284648
:1059200084F85410C2F8043303B030BD5429002069
:105930007C61004000600040034B93F8540000304D
:1059400018BF0120704700BF54290020F0B5634CF8
:10595000251895F93030002B01DB0820F0BD91F8B7
:1059600003E09446BEF1000F56D02368013300F0E7
:10597000AD80082600256B1C584F54F823200132B7
:1059800051D0AB1C9E4245D957F8232001324AD052
:10599000EB1C9E423ED957F82320013243D02B1DE9
:1059A0009E4237D957F8232001323CD06B1D9E42CE
:1059B00030D957F82370013735D0AB1D9E4229D915
:1059C00054F82320454F01322DD0EB1D9E4221D9A2
:1059D00057F82320013226D005F108039E4219D939
:1059E00057F8232001321ED005F109039E4211D938
:1059F00057F82320013216D005F10A039E4209D937
:105A000057F8237001370ED00B35AE4202D9E36A46
:105A1000013307D00420F0BD236A01334ED00C2699
:105A20000825A8E70B232618DDB244F823C086F822
:105A30003050BEF1000F02D1234483F848008B7828
:105A4000ABB94A784FF0A04600F5E073920046F8F3
:105A50002320CB78ABB96AB2083A1444097894F899
:105A6000502042EA811284F850201846F0BD83008D
:105A700003F1A043D3F8002722F00202C3F8002765
:105A8000E7E76BB29B0003F1804303F5C0430A785C
:105A9000D3F8101521F4473121F44071C3F81015E3
:105AA0001204000202F44031D3F8104500F4F85219
:105AB0000A432243C3F810250020F0BD082685F8CC
:105AC00030603346C4F820C03546B5E7002385F87A
:105AD0003030C4F800C01D46B1E700BF5429002093
:105AE000F0B42E4D2E1882B096F8302053B2072B0A
:105AF0001CDD2B4493F848309B09032B40D0012B2D
:105B00000CBF4FF400314FF44031800000F1A04051
:105B1000D0F8002722F44032C0F80027D0F8003730
:105B20000B43C0F8003702B0F0BC7047072AFAD820
:105B3000980000F1804000F5C04003F1400292005F
:105B4000D0F8104592B202F18042002744F00104DF
:105B500002F5C042C0F8104501970198176000296E
:105B6000E1D096F9302055F82220002ADBD001221E
:105B70000B4902FA03F3C1F8043302B0F0BC7047DA
:105B80004FF0A043D3F81035C34013F0010F14BFFA
:105B90004FF440314FF40031B7E700BF54290020E3
:105BA00000600040154B034493F8302053B2072B9C
:105BB00016DC072A13D810B49A0002F1804202F5CD
:105BC000C0420F4CD2F81005012120F0010001FA6B
:105BD00003F3C2F81005C4F808335DF8044B7047AE
:105BE000800000F1A040D0F8003723F44033C0F823
:105BF0000037D0F80037C0F800377047542900202C
:105C0000006000404FF0A043D3F8103523FA00F0B5
:105C100000F00100704700BF2DE9F04786B0002674
:105C2000A24B01961A68012A00F03281A04B1A6833
:105C3000012A00F01F819F4B1A68012A00F00C8195
:105C40009D4B1A68012A00F0F9809C4B1A68012AC2
:105C500000F0E6809A4B1A68012A00F0D380994B35
:105C60001A68012A00F0C080974B1A68012A00F0D8
:105C7000AD80964B1A68012A00F09B8016F0FF0F4A
:105C80001AD0934F01250024A30003F1804335422D
:105C900003F5C0434FEA45050BD0D3F8100557F87C
:105CA0002420D3F81015C0F30420C1F3014102B140
:105CB00090470134082CE7D1002E02DB06B0BDE886
:105CC000F087844D00224FF0FF33A5F15307029275
:105CD0000393814C4FF00008012614F8011FFF299F
:105CE0002BD0C9B221F0C00006AB4FEAD00E03EBB7
:105CF0000E0201F0070312F80CCC06FA03F31CEABB
:105D0000030F1AD007EB000C89099CF930C057F833
:105D10002CC0BCF1000F3CD003293CD04FEA800ED0
:105D20000EF1A04E12F8149CDEF8002719EA030FBA
:105D3000C2F3014211D1032A36D0AC42CDD1B8F121
:105D4000000FBBD04FF0A043019AD3F81035934217
:105D5000B4D0029A01930392BBE7022AEDD1032942
:105D600004D0BCF1000FE8D0E047E6E74FF440393B
:105D7000DEF8002722F44032CEF80027DEF80037A4
:105D800008F1010849EA03035FFA88F8CEF8003702
:105D9000E7E70329D1D10DF1080A1AF80E9049EA74
:105DA00003090AF80E90B9E70329DAD14FF4003954
:105DB000DEE700221A601B6805934FF0A043059AA6
:105DC000D3F81035019346F0004657E7434AD2F81E
:105DD000042312067FF54DAF00221A601B6804935E
:105DE000049B46F0800644E73C4AD2F8042351065F
:105DF0007FF53AAF00221A601B680493049B46F0BB
:105E0000400631E7354AD2F8042390067FF527AFE4
:105E100000221A601B680493049B46F020061EE7CC
:105E20002E4AD2F80423D4067FF514AF00221A605C
:105E30001B680493049B46F010060BE7274AD2F830
:105E4000042315077FF501AF00221A601B68049335
:105E5000049B46F00806F8E6204AD2F804235707C8
:105E60007FF5EEAE00221A601B680493049B46F097
:105E70000406E5E6194AD2F8042392077FF5DBAE63
:105E800000221A601B680493049B46F00206D2E6C7
:105E90001249D1F8041311F0010105D01E601B68EE
:105EA0000493049B1646C1E60E46BFE6006100401F
:105EB00004610040086100400C6100401061004036
:105EC00014610040186100401C6100407C6100408A
:105ED00054290020A7290020A329002000600040A9
:105EE0002DE9F0414479524EE7003D19AD0006EB33
:105EF000050E9EF81CC0BCF1000F02D00820BDE8C2
:105F0000F0817251CEF804300B7B91F800E0012B48
:105F10004FF0A0454FF0010303FA0EF394BFC5F80C
:105F20000C35C5F808350D784FF0A04E05F5E07535
:105F300001234EF825304D78FF2D6FD005F5E07C1C
:105F4000AB404FF00308CEF80C354EF82C8091F89A
:105F500002E0BEF1FF0F5ED00EF5E07C4FF0A043F3
:105F60004FF0040843F82C80CB78FF2B51D04FF032
:105F7000010C4FF0A0480CFA03F3C8F80835CB78B1
:105F800003F5E0734FF0030C48F823C091F803C009
:105F9000437903EBC30306EB830383F81EC0036856
:105FA00091F800C0C3F808C5C3F80C55C3F810E554
:105FB0008D68C3F824554D7B91F80CE0003518BF6F
:105FC0000125BEF1020F2CD0BEF1030F1ED0BEF191
:105FD000010F01D145F00205C3F854554D79C3F8BE
:105FE000C0550AB340250722C3F80453C3F800255F
:105FF00090F904000979FFF735FC3C4406EB840670
:106000000123002033777077BDE8F08145F0060565
:10601000E2E79C46BCE74FF0FF3EA5E74FF0FF35B7
:1060200095E745F00405D7E70722C3F80025E4E724
:10603000AC2900202DE9F0434479424F4FEAC40EC9
:106040000EEB0405AD007E1983B096F81D809DF817
:1060500028C01836B8F1000F03D0112003B0BDE8F6
:10606000F0837D590DB1012575710EEB0405AD006E
:1060700005F108063E443D4471603272F36086F8D3
:1060800010C095F8216095F81E8005F1200906F0F2
:10609000FC056FF38205B8F1FF0F89F8015006D0B7
:1060A00001254FF0A04605FA08F5C6F80C5505681D
:1060B00069B101F06040B0F1005F08D0744407EBB3
:1060C0008407002310207B7703B0BDE8F08323B161
:1060D00003F06040B0F1005FF0D10020C5F8441536
:1060E000C5F84825C5F83435C5F838C5C5F81801D0
:1060F000D5F81831019301220EEB04030199C5F87C
:106100005005C5F840052A6157F823301BB14023DC
:10611000C5F80433A2E7D5F81831002BFBD00EEBFD
:10612000040307EB83039B7FFF2B08D001224FF072
:10613000A04102FA03F3C1F8083500208EE70020E1
:106140008CE700BFAC290020104BD3F8182102B90E
:10615000704700B500210E4AC3F8181183B0917F33
:10616000D3F818310193FF29019B05D001234FF08B
:10617000A0408B40C0F80835002353771372516854
:1061800013680448984703B05DF804FB00300040F2
:10619000AC290020B42900204FF04023D3F8182167
:1061A00002B9704700B500210E4AC3F8181183B038
:1061B00092F84210D3F818310193FF29019B05D0C2
:1061C00001234FF0A0408B40C0F80835002382F82F
:1061D000413082F82C30916A536A0348984703B0E3
:1061E0005DF804FBAC290020D8290020F0B5047923
:1061F000724E6401331987B0DD7E183315B1082063
:1062000007B0F0BD4D7F1D710D686B1C0BD04FF0BA
:10621000A0470123AB40C7F808350B6803F5E073CE
:10622000032547F823504B685F1C06D003F5E07345
:106230004FF0A045002745F82370037906EB431380
:106240001B7F002B4DD003688D69C3F824550F7D4B
:106250004B7D05683B43C5F86C3503680F684D6896
:10626000C3F80C75C3F814550B7D012B00F09B800F
:10627000331905465A600B6950483351EAB12B79FE
:10628000097F2A6800EB4310037F002B65D1C2F819
:106290001C31D2F81C712A680197019FC2F8443161
:1062A000D2F844212B6846480092009AC3F80403B0
:1062B000286840F30730FFF7D5FA2B792A6806EBF8
:1062C00043131B7F002B44D00823C2F8003534440D
:1062D00000200121E075A0752076A076E17607B058
:1062E000F0BD05688F69C5F8247591F814E04D7DFF
:1062F00007684EEA0505C7F86C550568D1F800E057
:106300004F68C5F81475C5F80CE50D7D012DAFD1AA
:106310008D686F1C05D005F5E0754FF0A04747F874
:106320002530CB685D1C0DD001254FF0A04705FA44
:1063300003F3C7F80835CB6803F5E073032547F886
:106340002350CB6805688F68C5F80835C5F8107507
:106350008EE70423C2F80035B9E70023C2F81031F4
:10636000D2F810712A680597059FC2F82031D2F83B
:1063700020712A680497049FC2F82431D2F824714E
:106380002A680397039FC2F84431D2F844212B684E
:1063900002920C48029AC3F80403286840F30730BD
:1063A000FFF760FA89E78B685D1CBAD003F5E073EC
:1063B0004FF0A045002745F82370B2E7F4290020EC
:1063C0008000020010030200F0B503793D4A046822
:1063D0005B01D118097F00296DD00021C4F8001598
:1063E000D118384C4968B1B1017904EB4114217FCF
:1063F000002963D10168344CC1F808430168334E69
:10640000090B4CB26409203401F01F01012505FA83
:1064100001F146F824100179076802EB4111D7F821
:106420000C65097FD7F814554FF0FF3EA9B3D7F894
:106430000815D7F81045C7F80CE5C7F814E500684B
:10644000C0F808E5C0F810E5771C06D006F5E07640
:106450004FF0A040022740F826706E1C06D005F5CC
:10646000E0754FF0A040022640F82560651C06D07C
:1064700004F5E0744FF0A040022540F82450481C79
:1064800006D001F5E0714FF0A040022440F8214011
:1064900013440022DA765A60F0BDD7F80815D7F811
:1064A0001045C7F814E5C7F80CE50068C0F808E522
:1064B000C0F810E5C8E7C4F8001591E70168044C7E
:1064C0009AE700BFF42900208402020000E100E006
:1064D000100302002DE9F04103795A4D5B01EC18DD
:1064E00086B0247F44B101F06044B4F1005F03D072
:1064F000102006B0BDE8F0812B44DFF848E19F7D15
:106500001FB1112006B0BDE8F08199609A759F8295
:10651000067976010EEB06010B7F2BBB0268C2F8F1
:106520001C31D2F81C41026805940124059F946037
:106530000468D1F808C0C4F81C31D4F81C310493A5
:10654000049B8F8A8B8AD1F804E0BFB201331CF818
:1065500007709BB28B82C4F81C75BEF1000F33D05C
:10656000002006B0BDE8F08103688A68C3F8207196
:10657000D3F8204103680294029CC3F85871D3F801
:106580005841036801948C7D019FC3F84425C3F8EA
:106590004845036801229A604B68002BE0D10268ED
:1065A00001E0002B4CD1D2F82011D2F85831003341
:1065B00018BF01230029F4D0002B0CBF00200F20AE
:1065C000AB1900229A7594E78F7D8B8A01F1100236
:1065D0009BB2BB4226D2046804E093889BB2B3F519
:1065E000807F05D0D4F81C3101F11002002BF4D0CB
:1065F00001F1100293889BB2B3F5807FE5D0C4F817
:106600001CE1D4F81C310393039BB2F804809388F7
:106610001FFA88F801331CF808809BB29380C4F8F5
:106620001C85D2E793889BB2B3F5807F08D00268BF
:10663000D2F81C31002BFBD00123D3600020BFE730
:106640000F20BDE7F4290020F0B59B4C237F8FB0CD
:10665000002B75D1994AD2F80413890548D4974B79
:10666000D3F80423520704D5D3F80821002A40F0B8
:10667000CA80924BD3F81C21C2B1A28AA07D8E4958
:1066800092B282424FF00002C3F81C2180F0A98030
:10669000D3F81C210692069A888A8A8A8D6880B26D
:1066A0000132285C92B28A82C3F81C05834BD3F86E
:1066B0004421DAB10022C3F84421D3F84411A27E68
:1066C00004910499002A40F08980E27D7A4B6AB1F6
:1066D0000022587ED968DA7501228DF830000B91BE
:1066E0008DF828200AA893E8060090470FB0F0BD67
:1066F000D2F824110029B2D0C2F82431D2F82411E2
:10670000A37E07914FF401710798C2F808130BB9E3
:1067100001235360694A02238DF82830D2F880346F
:10672000C2F88034E07DE2680D9300238DF83000DC
:10673000E375237621680B9263680AA8984798E767
:106740005E4BD3F82421002A40F09380D3F8101137
:1067500061B1C3F81021D3F8101103910399D3F854
:106760003C15E07DC9B2884200F0AA80534BD3F8B3
:106770004421B2B10022C3F84421D3F84411E07D92
:10678000019101994C4960B1D3F83C35C8688DF846
:1067900030300123CA750B908DF828300AA80AC939
:1067A0009847464BD3F82021002A9FD00022C3F8F7
:1067B0002021D3F82011A07D009100993E490028A6
:1067C00094D0D3F84C058B688DF830008A750B9304
:1067D0008DF828200AC90AA8984787E701221A607D
:1067E00073E7D3F81C310593059B00283FF45EAF97
:1067F0008B688DF830008A750B938DF828200AC9B4
:106800000AA8984752E7E17D2B4A002970D0002161
:10681000C3F80811D3F8081108910899D068517E7F
:10682000D3F818354354537ED17D0133DBB2537610
:10683000627E214B8A427FF41CAF1A7E002A6DD102
:106840009B7E13B91D4B01225A601C4AE0686368A5
:106850004FF40171C2F80813627E8DF830200025D4
:1068600001220B902168E5758DF828200AA8984729
:10687000FFE60022C3F82421D3F82411029102215B
:106880008DF828100299D3F88014C3F880140D9164
:10689000D3F83C15E368E27522768DF830100B933F
:1068A000216863680AA89847044BD3F84421002A5A
:1068B0003FF477AF5EE700BFF429002000200040DE
:1068C000217EF1B1D3F80072E17527F02001E6686E
:1068D0002569C3F8001201238DF830008DF82830A7
:1068E000227621680B96E56063680AA898473DE721
:1068F000C3F80811D3F808210992099AD3F818357A
:1069000096E7E268E17501238DF830008DF82830B4
:106910000B9294E80A000AA8984727E7DE685D7E94
:106920001869DA7501210022D8601A765A768DF836
:1069300028100B968DF8305093E806000AA890476F
:1069400097E600BF80B500F053FD00F083F90A2000
:1069500030212822402300F0DDFB052050211422A5
:106960007D2300F0D7FB00200A2201461346494E42
:10697000494D4A4C00F0CEFBB146A84627460020C0
:10698000FEF78CFE3268234600BF00BF00BF00BF89
:1069900000BF00BF00BF00BFAA422FD000BF00BF92
:1069A00000BF00BF00BF00BF00BF00BF00BF00BFEF
:1069B00000BF00BF00BF00BF00BF00BF00BF00BFDF
:1069C00000BF00BF00BF00BF00BF00BF00BF00BFCF
:1069D00000BF00BF00BF00BF00BF00BF00BF00BFBF
:1069E00000BF00BF00BF00BF00BF00BF00BF00BFAF
:1069F00000BF00BF00BF00BF00BF00BF013BC3D14D
:106A0000FCF7F6FD0028BAD10320FEF747FED9F8BF
:106A100000203B4600BF00BF00BF00BF00BF00BF5B
:106A200000BF00BF42452FD000BF00BF00BF00BF66
:106A300000BF00BF00BF00BF00BF00BF00BF00BF5E
:106A400000BF00BF00BF00BF00BF00BF00BF00BF4E
:106A500000BF00BF00BF00BF00BF00BF00BF00BF3E
:106A600000BF00BF00BF00BF00BF00BF00BF00BF2E
:106A700000BF00BF00BF00BF00BF00BF00BF00BF1E
:106A800000BF00BF00BF00BF013BC3D100F0A6FCA8
:106A900075E700BFA02100200024F40020A107001A
:106AA000014B01221A707047182A002010B584B0DB
:106AB0004FF0A04304A94FF080522C4C01F8010D77
:106AC000C3F808250022009222702948294B012290
:106AD000FFF7B0FA08B145E020BF2378002BFBD0C8
:106AE000254B26491A680A2300BF00BF00BF00BF1C
:106AF00000BF00BF00BF00BF8A422FD000BF00BF51
:106B000000BF00BF00BF00BF00BF00BF00BF00BF8D
:106B100000BF00BF00BF00BF00BF00BF00BF00BF7D
:106B200000BF00BF00BF00BF00BF00BF00BF00BF6D
:106B300000BF00BF00BF00BF00BF00BF00BF00BF5D
:106B400000BF00BF00BF00BF00BF00BF00BF00BF4D
:106B500000BF00BF00BF00BF00BF00BF013BC3D1EB
:106B600004B010BDFDF720FBB7E700BF182A0020D6
:106B700050970200192A0020A02100200024F400D0
:106B800010B584B04FF0A04304A94FF080522C4CB4
:106B900001F8010DC3F80C2500220092227029484B
:106BA000294B0122FFF746FA08B145E020BF2378C0
:106BB000002BFBD0254B26491A680A2300BF00BFD3
:106BC00000BF00BF00BF00BF00BF00BF8A422FD080
:106BD00000BF00BF00BF00BF00BF00BF00BF00BFBD
:106BE00000BF00BF00BF00BF00BF00BF00BF00BFAD
:106BF00000BF00BF00BF00BF00BF00BF00BF00BF9D
:106C000000BF00BF00BF00BF00BF00BF00BF00BF8C
:106C100000BF00BF00BF00BF00BF00BF00BF00BF7C
:106C200000BF00BF00BF00BF00BF00BF00BF00BF6C
:106C3000013BC3D104B010BDFDF7B6FAB7E700BF02
:106C4000182A002050970200192A0020A0210020B5
:106C50000024F400804BF0B50FCB85B08DE80F0019
:106C60001F234FF0FF0E1D2704264FF080550324ED
:106C70008DF8033069467948794A8DF802E000239F
:106C80008DF801708DF8006002958DF80C40FFF7CB
:106C900027F9002840F036824FF0A04303224FF03E
:106CA00080414FF080506F4FC3F808054CF25035CB
:106CB000C3F87027C3F80C15C3F87827C3F80C1570
:106CC0003A68694C284600BF00BF00BF00BF00BF44
:106CD00000BF00BF00BFA2422FD000BF00BF00BF57
:106CE00000BF00BF00BF00BF00BF00BF00BF00BFAC
:106CF00000BF00BF00BF00BF00BF00BF00BF00BF9C
:106D000000BF00BF00BF00BF00BF00BF00BF00BF8B
:106D100000BF00BF00BF00BF00BF00BF00BF00BF7B
:106D200000BF00BF00BF00BF00BF00BF00BF00BF6B
:106D300000BF00BF00BF00BF00BF0138C3D142F297
:106D40001076C3F80815334600BF00BF00BF00BF70
:106D500000BF00BF00BF00BFA2422FD000BF00BFD6
:106D600000BF00BF00BF00BF00BF00BF00BF00BF2B
:106D700000BF00BF00BF00BF00BF00BF00BF00BF1B
:106D800000BF00BF00BF00BF00BF00BF00BF00BF0B
:106D900000BF00BF00BF00BF00BF00BF00BF00BFFB
:106DA00000BF00BF00BF00BF00BF00BF00BF00BFEB
:106DB00000BF00BF00BF00BF00BF00BF013BC3D189
:106DC0002A4B00BF00BF00BF00BF00BF00BF00BF15
:106DD00000BFA2422FD000BF00BF00BF00BF00BF56
:106DE00000BF00BF00BF00BF00BF00BF00BF00BFAB
:106DF00000BF00BF00BF00BF00BF00BF00BF00BF9B
:106E000000BF00BF00BF00BF00BF00BF00BF00BF8A
:106E100000BF00BF00BF00BF00BF00BF00BF00BF7A
:106E200000BF00BF00BF00BF00BF00BF00BF00BF6A
:106E300000BF00BF00BF013BC3D1D720FFF7A0FEBA
:106E40009F20FFF733FEE020FFF79AFE0020FFF7B8
:106E50002DFE3B680CE000BF4097020050970200F7
:106E6000A16A0200A02100200024F400C0D4010087
:106E700000BF00BF00BF00BF00BF00BF00BF00BF1A
:106E8000A3422FD000BF00BF00BF00BF00BF00BFA4
:106E900000BF00BF00BF00BF00BF00BF00BF00BFFA
:106EA00000BF00BF00BF00BF00BF00BF00BF00BFEA
:106EB00000BF00BF00BF00BF00BF00BF00BF00BFDA
:106EC00000BF00BF00BF00BF00BF00BF00BF00BFCA
:106ED00000BF00BF00BF00BF00BF00BF00BF00BFBA
:106EE00000BF00BF013EC3D1E320FFF749FE44F6D7
:106EF00020633A6800BF00BF00BF00BF00BF00BFF3
:106F000000BF00BFA2422FD000BF00BF00BF00BF24
:106F100000BF00BF00BF00BF00BF00BF00BF00BF79
:106F200000BF00BF00BF00BF00BF00BF00BF00BF69
:106F300000BF00BF00BF00BF00BF00BF00BF00BF59
:106F400000BF00BF00BF00BF00BF00BF00BF00BF49
:106F500000BF00BF00BF00BF00BF00BF00BF00BF39
:106F600000BF00BF00BF00BF013BC3D1E120FFF75E
:106F700007FE1120FFF704FE2820FFF701FE3B6803
:106F800000BF00BF00BF00BF00BF00BF00BF00BF09
:106F9000A3422FD000BF00BF00BF00BF00BF00BF93
:106FA00000BF00BF00BF00BF00BF00BF00BF00BFE9
:106FB00000BF00BF00BF00BF00BF00BF00BF00BFD9
:106FC00000BF00BF00BF00BF00BF00BF00BF00BFC9
:106FD00000BF00BF00BF00BF00BF00BF00BF00BFB9
:106FE00000BF00BF00BF00BF00BF00BF00BF00BFA9
:106FF00000BF00BF013DC3D1C020FFF7C1FD53203A
:10700000FFF754FD0120FFF751FDC320FFF7B8FD46
:107010000220FFF74BFDC420FFF7B2FD0620FFF76B
:1070200045FDD020FFF7ACFD1D20FFF73FFDB5204B
:10703000FFF7A6FD0020FFF739FD3920FFF7A0FD7F
:107040003A20FFF79DFD0220FFF730FD3620FFF7C5
:1070500097FD0020FFF72AFDB020FFF791FD9F204C
:10706000FFF724FDB420FFF78BFDA020FFF71EFDE6
:107070003020FFF785FD0020FFF718FD0020FFF707
:1070800015FD0020FFF712FD7720FFF70FFD2020F0
:10709000FFF776FD2A20FFF773FD0020FFF706FDBE
:1070A0000020FFF703FD0020FFF700FD2A20FFF777
:1070B000FDFC2B20FFF764FD0020FFF7F7FC00200C
:1070C000FFF7F4FC0020FFF7F1FC104D104C9F205F
:1070D000FFF7ECFC00262C20FFF752FD2E60266007
:1070E0000020FFF7E3FC236801332A2B2360F7DD40
:1070F0002B6801339F2B2B60F1DD2920FFF740FD2A
:1071000005B0F0BDFDF750F8C6E500BF1C2A002011
:10711000142A0020F8B507462A200D4616461C46BC
:10712000FFF72EFD0020FFF7C1FC3846FFF7BEFC3D
:107130000020FFF7BBFC3046FFF7B8FC2B20FFF721
:107140001FFD0020FFF7B2FC2846FFF7AFFC002030
:10715000FFF7ACFC0C4D2046FFF7A8FC00262C20C6
:107160000A4CFFF70DFD2E602660FF20FFF79EFC06
:10717000236801337F2B2360F7DD2B6801339F2BBE
:107180002B60F1DDF8BD00BF1C2A0020142A00206E
:107190003EDF704773DF704776DF70477ADF7047F6
:1071A0007CDF70477FDF70478FDF7047A8DF704755
:1071B000A9DF704766DF7047FCF7F6BF02200AB907
:1071C000FEF760BAFEF752BA10B50388013B84B0EF
:1071D0000446552B5AD8DFE803F0935959595959A9
:1071E0005959595959595959599A2B59B0595959A5
:1071F00059595959595959595959655959595959F3
:1072000059595959595959595959595959595959EE
:10721000595959595B5959595959595959595959DC
:107220005959595959595959595971895959595B84
:10723000474B48491888000440F00300FCF7EEFA79
:107240000120FEF71FFA444B4FF6FF721A80FCF73D
:1072500091FF08B1FCF7A8FF00211022684601F059
:10726000CCFE00234022684601218DF800300193B6
:107270008DF80830ADF80C30ADF80A20FFF78AFF22
:1072800008B1FCF791FF0020FEF7F0F904B010BD43
:1072900080881321FFF780FF0028F7D0FCF784FFD8
:1072A00004B010BD002380888DF8003069468DF849
:1072B0000130FFF779FF0028E8D0EFE78279837B80
:1072C000002AE3D0043B022BE0D8022A0CBF0222A2
:1072D00001224FF4C17380888DF800206946ADF813
:1072E0000430FFF763FF0028D0D0D7E71A4B002106
:1072F00018880A460B46FFF75BFF0028C6D0CDE78B
:1073000080880021FFF756FF0028BFD0C6E7104B4A
:1073100012491888000440F00300FCF77FFA0120AE
:10732000FEF7A4F90020FEF7ADF90B4BA2881A80F6
:10733000FCF70AFF0028A9D0B0E7074B0022188805
:1073400085211346FFF72EFF00289FD0A6E700BF38
:1073500014220020649702009C210020589702000C
:1073600008B5037803B108BD054B3B211888FFF72A
:1073700013FF0028F7D0BDE80840FCF715BF00BF99
:107380009C2100200D281ED110B5104B1888000438
:107390000C4640F003000E49FCF740FA0D4B0E4935
:1073A0001888224601F0CCFB30F008020DD043F2E1
:1073B0000202904209D043F20142904205D0BDE85A
:1073C0001040FCF7F1BEFCF7EFBE10BD1422002008
:1073D000749702009C210020202A002008B5FFF7A6
:1073E000D7FE00B908BDBDE80840FCF7DDBE00BF10
:1073F000F0B5A1B0FEF764F9FDF772FA08B1FCF739
:10740000D3FE0020FCF786F808B1FCF7CDFEFCF7B0
:1074100073F86248012140F26662FCF73DFE08B154
:10742000FCF7C2FE01F0AEFB002840F0B48020ACB7
:10743000002344F83C3D0120214601F069FC00286E
:1074400040F0A680204601F017FD08B1FCF7ACFE25
:107450009DF808305248012262F3030320AD62F325
:10746000071305F8783D01F0D0FD4D4982B228465A
:10747000FFF796FE002840F0888000210822204671
:1074800001F0BBFD5026A02100224FF4C873204616
:10749000ADF84460ADF84610ADF84820ADF84A307C
:1074A000FFF77CFE08B1FCF77FFE3E48002100F0AC
:1074B0003DFF08B1FCF778FE3B4B3C481193214659
:1074C00001F054FA08B1FCF76FFE384A927C8DF84F
:1074D000062041F2235300213C222846ADF8043017
:1074E000012601F08AFD02270623002120463C22C6
:1074F0008DF80B308DF808708DF80A6001F07DFD75
:1075000001AB28462146ADF85460169300F0C4FA4A
:1075100008B1FCF749FE00211C22204601F06DFD58
:107520004FF4202700234FF4203603252049214A19
:1075300011932046ADF852308DF8543012971396BF
:107540008DF850501691179200F01EFE08B1FCF70E
:107550002BFE00211022204601F04FFD0023402287
:10756000204601218DF8443012938DF84C30ADF84F
:107570005030ADF84E20FFF70DFE08B1FCF714FEB9
:107580000020FEF773F821B0F0BDFCF70DFE74E7A4
:10759000FCF70AFE56E7FCF707FE48E794210020B7
:1075A00090970200382A0020BD710200202A002096
:1075B00061730200B97102006DDF704772DF7047BE
:1075C00079DF70477DDF704764DF7047F0B504886E
:1075D000012C83B007D0148804F1020E9E4505D912
:1075E0000C2003B0F0BD072003B0F0BD0578012DDD
:1075F00004D1457802352544AB42F1D3023B0F4616
:107600001C1B02A9A4B2054621F8024D07EB0E008F
:107610001646FFF7D7FF0028E3D12B78022B17D0AF
:10762000012B11D023460821FE2BD9D83288581CB3
:10763000B8543288013292B23280B9543288013261
:10764000134433800020CCE76B789C42EBD2E9E70F
:10765000BDF806309C42E5D30921E5E72DE9F04F5E
:1076600085B083460E9D00882C880194BDF83C901F
:1076700000284ED000278A46164698463C4604E02D
:10768000BBF800300134A34226DDDBF8043053F8A8
:10769000240003900DF10B0103A80022FFF794FFD3
:1076A00018BB9DF80B30B342EAD10FB32A88931967
:1076B0004B4519DC424403A80DF10B010127FFF7EC
:1076C00083FF90B92B889DF80B2013442B80BBF8C7
:1076D00000300134A342D8DCDFB12B88019A013B92
:1076E0009B1A9BB2FF2B12D90C2005B0BDE8F08F7E
:1076F0002B885A1C334402334B4592B2F4DC2A8067
:1077000008F802A02A88013292B22A80D2E708F84B
:107710000230002005B0BDE8F08F00BF2DE9F04732
:1077200000231788138090F82D3086B01446054644
:107730000E46002B40F0C880AA78002A40F0F08066
:10774000EA78002A2CD1696899B1DA1CBA42097822
:1077500022D80222F254238801339BB20A222380CA
:10776000F254238801339BB22380F15423880133E0
:1077700023802B89002B40F0F7802B8A002B40F0D0
:107780000C812B8B002B40F021812B6A002B5CD0CD
:107790002288911DB94218D90C2006B0BDE8F087A7
:1077A000D91CB942F8D80221F154238801339BB285
:1077B00001212380F15423880B449BB22380F2548F
:1077C00023880B449BB22380BDE71988052940F22A
:1077D000C9806FF4486801EB080080B24FF27D3E2B
:1077E000704540F2BF805888052840F2BB806FF496
:1077F000486C84441FFA8CFCF44540F2B3804FF689
:10780000FF7E714504D0704502D0814200F2AA800B
:107810000521B1542288013292B212212280B15442
:107820002288013292B222801988B1543244090A66
:1078300051702288023292B222805B88B354324463
:107840001B0A53702388023323806B6A002B2BD0D2
:10785000998820880A1D0244BA429DD88A1CFE2AB3
:107860009AD8033131542288013292B2FF2122800A
:10787000B1542288013292B222801988B154324424
:10788000090A51702088023080B220809A885AB14B
:1078900099680393002965D0304401F0A3FB039B52
:1078A00022889B881344238095F82C30002B40F0CD
:1078B000A680287800283FF470AF2846314622463B
:1078C0003B46FFF783FE68E7082F7FF665AF04A805
:1078D000FFF772FE00287FF460AF23880822F2547D
:1078E000238801339BB21B222380F254208801306D
:1078F00080B22080062230440DF1110101F072FBAC
:1079000023889DF8102006339BB212F0FE0218BFA8
:1079100001222380F254238801339BB223800BE79A
:107920000433BB423FF638AF04A8FFF749FE0028F6
:107930007FF433AF2388BDF810200321F15423884E
:1079400001339BB219212380F154238801339BB268
:10795000F1182380100AF2544870238802339BB236
:107960002380EDE6072018E705F1080802218DE8DD
:10797000900040460A463346FFF770FE00287FF429
:107980000CAF8DE890004046062110223346FFF7E9
:1079900065FE00287FF401AFEFE605F110088DE8E1
:1079A00090004046032102223346FFF757FE00288D
:1079B0007FF4F3AE8DE89000404607211022334655
:1079C000FFF74CFE00287FF4E8AEDAE605F1180870
:1079D0008DE890004046142102223346FFF73EFE18
:1079E00000287FF4DAAE8DE8900040461521102281
:1079F0003346FFF733FE00287FF4CFAEC5E6D5F857
:107A00002880B8F1000FADD0B8F804200232FE2A69
:107A10003FF6C2AE23884FF000094FF0160A01323C
:107A2000F254238801339BB2238006F803A02388F5
:107A300001339BB22380B8F80020F2543344120A79
:107A40005A70238802339BB22380B8F80410F018D0
:107A50000A4661B1D8F808301946002B82D001F0EF
:107A6000C1FAB8F80430228813449BB2238009F18C
:107A7000010995F82C205FFA89F94A4509EB490874
:107A80007FF617AFAA6A02EB8808B8F80420023222
:107A9000FE2AC4D980E600BF2DE9F04794B01F2329
:107AA0000D46ADF80E30044600285AD0C278530770
:107AB00053D590F82D300021ADF80C10002B6BD170
:107AC0008378002B40F0AB801846032114AE5F1C76
:107AD0000233304416FA87F716FA83F64FF0020E97
:107AE0008BB2012100F840ECADF80C3007F8401CD7
:107AF00006F8402C6268B2B1D91C1F29167828D824
:107B000014AF581C9A1C17FA80F03B4417FA82F203
:107B10004FF0020E0A2703F840ECADF80C1000F805
:107B2000407C02F8406C2389002B40F08581238A39
:107B3000002B40F09F81238B002B40F0B981236AFA
:107B4000002B00F0D880BDF80C20911D1F2940F2B9
:107B50008F800C2014B0BDE8F087072014B0BDE87A
:107B6000F087ADF80C00002D00F00481EB78002BBD
:107B7000F3D128460CA90DF10E02FFF7CFFD002826
:107B8000ECD19DF80E300CAA20469DF80C10FFF7A2
:107B900015FD14B0BDE8F0870CAF3846FFF70CFDBB
:107BA0000028DBD1BDF80C3014AA03F1010C12FA45
:107BB0008CFC03F1020E13441FFA8EFE04AE4FF04C
:107BC00008094FF01B0803F8409C0DF13101062213
:107BD00006EB0E000CF8408CADF80CE001F002FA58
:107BE000BDF80C209DF83010931D11F0FE019BB2E2
:107BF00040F07C8114A8034403F8401CD31DA278F4
:107C00009BB2ADF80C30002A40F01181E278002AD6
:107C10003FF470AFD91C1F2918469AD856E70CAF0D
:107C20003846FFF7CDFC002898D1BDF80C30BDF8E0
:107C30003070E278991C0DF1500E581C89B204AED8
:107C40000EEB03091EFA80F0043306EB010E4FF031
:107C5000030A4FF019089BB24FEA172C09F840AC01
:107C6000ADF80C3000F8408C77548EF801C0CEE7A8
:107C7000188805287FF671AF6FF4486C00EB0C068E
:107C8000B6B24FF27D37BE427FF667AF5E88052EF3
:107C90007FF663AF6FF4486EB6441FFA8EFEBE45A2
:107CA0007FF65BAF4FF6FF77B84204D0BE4202D0FA
:107CB000B0423FF652AF14A8561C10FA86F600EBFD
:107CC000020E901C80B212274FF0050C0EF840CC2B
:107CD000ADF80C0006F8407C1F88ADF80C1004AE1F
:107CE0003118375404323F0A4F7092B25B88B35454
:107CF00032441B0A5370676A9FB3B888BDF80C30D2
:107D0000811C9A1C56181F2E3FF623AFFE293FF602
:107D100020AF14AE591C06EB030E16FA81F192B295
:107D20000330FF260EF8400CADF80C2001F8406C33
:107D3000398804AEB018B154090A41700433BA88C6
:107D400098B2ADF80C0062B1B96800293FF405AFF4
:107D5000304401F047F9BDF80C30BA881344ADF84F
:107D60000C3094F82C3053B904AE2378002B53D147
:107D70003446F8E62B46ADF80E502A4604E7A76ACB
:107D8000002F3FF4EAAEB9880231FE293FF6E1AE9A
:107D90009E46BDF80C304FF0000804AE4FF01609B7
:107DA00014AA581C02EB030C12FA80F09A1C92B22F
:107DB00001310CF8401CADF80C2000F8409C3988CB
:107DC000B1543244090A51700433B9889BB20A464F
:107DD000F018ADF80C3079B1BB681946002B3FF4B0
:107DE000BCAE01F0FFF8BDF80C30BA8894F82CE076
:107DF00013449BB2ADF80C3008F101085FFA88F823
:107E0000F04508EB4802B0D2A76A07EB8207B988B1
:107E10000231FE29C4D99CE62046314603AA1F231D
:107E2000FFF7D4FB00287FF499AE34469BE6043379
:107E30001F2B3FF68EAEF3E603AA04F1080704AE4B
:107E40004FF01F0802218DE80401384633460A46E8
:107E5000FFF704FC00287FF481AE03AB8DE8080136
:107E60003846334606211022FFF7F8FB00287FF43E
:107E700075AE5CE603AA04F1100704AE4FF01F08CC
:107E80008DE804013846334603210222FFF7E6FB62
:107E900000287FF463AE03AB8DE808013846334613
:107EA00007211022FFF7DAFB00287FF457AE42E6E5
:107EB00003AA04F1180704AE4FF01F088DE804016F
:107EC0003846334614210222FFF7C8FB00287FF40E
:107ED00045AE03AB8DE80801384633461521102224
:107EE000FFF7BCFB00287FF439AE28E614A90B4449
:107EF000012103F8401C81E675DF704776DF70478B
:107F00007ADF70477BDF704770B51D4C238885B2E0
:107F1000AB4282B001D002B070BD1A4E217A327BE2
:107F200091420FD3337C00222272BBB97369002BBC
:107F3000F1D00022ADF806508DF8042001A8984732
:107F400002B070BD184604F10A01FFF7D5FF88B1F1
:107F50001128E0D0B369002BF1D1DCE728463B21A2
:107F6000FFF7CCFF30F00803E0D0B369002BDDD081
:107F70009847DBE7237A0133237202B070BD00BF5C
:107F8000682A00204C2A0020F0B50288112A83B00C
:107F9000034654D040D9122A08D0502A04D1774D34
:107FA000C188EA8991425CD003B0F0BD744C8288EC
:107FB00021889142F8D1E589268A4089618940F279
:107FC000F31C65454FF6FF7E05EB0C0794BF6D1B58
:107FD000CCEB0505764594BFB61BCEEB0606814279
:107FE00056D8A189814253D399898D4250D88F4266
:107FF0004ED3DB899E424BD8604B59690120002348
:10800000607223720029CFD00123ADF806208DF8CD
:10801000043001A88847C7E7102AC5D1C17B8288F0
:108020000129C1D1564C26884FF6FF718E423ED0B1
:10803000524B9B69002BB7D004209847B4E7504CB3
:10804000828823889A42AFD16068FCF77FFD18B11F
:108050004A4B9B6903B198474FF6FF73238003B0E7
:10806000F0BD028A022A9FD1454C87882688BE42ED
:108070009AD1123000F050F9002862D16068FCF704
:1080800065FD002890D0AB69002B8DD098478BE719
:108090003A4D267AAB6869686068002E18BF1946A9
:1080A00000236372FCF7F8FC0028ECD17CE7354D27
:1080B000228003CDC4F80E10C4F80A006589588ADE
:1080C000E189B4F810E00027854227722AD8A589F3
:1080D000854227D340F2F31081429D8A94BF481A0B
:1080E000081AA8421ED801F2F311A9421AD3B645C4
:1080F000DB8A94BFCEEB0E0EC6EB0E0E9E4511D85A
:108100001E4BD8890121617200287FF44DAF5B6955
:10811000002B3FF449AF8DF80410ADF8062001A8FC
:10812000984741E7154D1648EB8900216172002BF5
:108130007FF43AAF40686968FCF7AEFC0028A2D132
:1081400032E7637A63B96968AB68277A6068324658
:10815000002F18BF1946FCF79FFC002893D123E796
:108160006B6900222272002B3FF41EAF0122ADF892
:1081700006708DF8042001A8984715E74C2A0020C6
:10818000682A00209C2A002060B3F8B50546064600
:108190000FCDDFF870E0174F74460FC4844695E8A2
:1081A0000700CEF8007084E80700BCF1000F1BD078
:1081B0006046FFF7A5FEA0B933681868596803C781
:1081C0000D4B0E490E4A18464FF6FF7440F8041F37
:1081D0001C800021FCF74EFC002814BF0320002067
:1081E000F8BDF8BD0E2070473846FFF78BFE00281B
:1081F000E6D0F8BD9C2A0020682A00207C2A0020B6
:10820000097F02004C2A00200388112B024672D0FD
:108210002DE9F0431A2B95B0804651D0102B02D097
:1082200015B0BDE8F083DFF8EC90D9F84820D9F814
:10823000443009F1040123EA020203A8FDF7FCF926
:10824000039E7EB1002427460DF10E05304835F817
:10825000023F0097013400F140011D22FDF7C0F9F3
:10826000B442F3D1D9F84400B8F80460294CC043B3
:10827000FDF782F94FF6FF73984243D004EB4005B7
:1082800004F14801201D32460123AE80FDF78AF932
:108290003246201D04F144010123FDF783F998F8CB
:1082A0000F30B8F80420A3F10203201DB3FA83F3C2
:1082B00004F14C015B0915B0BDE8F043FDF772B95C
:1082C000037A134892881F2B94BF0023012300F1E7
:1082D0004C01FDF767F998F808300D48B8F804200C
:1082E0002F2B94BF0023012300F1500115B0BDE8EE
:1082F000F043FDF757B90648928800F14401002386
:10830000FDF750B9042015B0BDE8F043FBF74CBFB2
:10831000A82A0020A42A0020007800F0010070475D
:1083200090DF70479EDF7047ADDF704788B110B4B3
:1083300017221B240023016102804280C280028137
:108340000471047344738372C3725DF8044B18465E
:1083500070470E20704700BF838883BB70B50288CA
:10836000232A82B00C4600F0A3801AD93A2A00F0E2
:108370008E80552A51D0242A76D0A37AEBB10020E2
:10838000E188FFF7CFFF00286AD0112815D0714B84
:1083900071491B881B04024643F00100FBF7FCFAFD
:1083A0000BE0102A0CD0112AE7D117211B22A3724F
:1083B000E372E18021812273627302B070BD704765
:1083C0000B790B73C27B012A00F09D80022A00F01A
:1083D0009780C98822898A42C0F0A280627B9A4233
:1083E000CBD200259BB228462A466946ADF800301C
:1083F000ADF80230ADF80450ADF80650FFF790FF2D
:108400000028BAD0534B55491E88360403462A46E5
:1084100046F00100FBF786FBAFE7C288C988A3726C
:10842000172A38BF17228A4228BF0A4618462281D7
:10843000FFF77AFF002869D1E37A002B9DD12269EA
:10844000002A9AD02189ADF8023040F67720ADF8A5
:108450000000ADF80410204669469047A37A8DE7E6
:108460000123A072E372A8E70A69017A6173002A06
:1084700083D04DF67A200093ADF80430ADF80000BB
:108480008DF80410204669469047A37A76E7E28883
:10849000418925698A4228BF0A46172A38BF172210
:1084A00022810DB1E17AF9B90023E372A37284E766
:1084B000057A0A7B0193954228BF154618461A464D
:1084C0006946ADF80050ADF80250FFF729FF0028CB
:1084D0003FF453AF1F4B22491B881B04024643F055
:1084E0000100FBF759FA48E740F67721ADF8001094
:1084F000ADF80230ADF8042020466946A847D3E71E
:108500004988E18066E70988E18063E7114B1549F6
:108510001B881B04024643F00100FBF73DFA8BE782
:108520000020FFF7FFFE18B90123E372237B55E714
:10853000112803D10123A372237B4FE7054B064982
:108540001B881B04024643F00100FBF725FA237B3E
:1085500044E700BF2C2200209C970200E097020015
:1085600084980200409802000649074A074B9B1A6C
:1085700003DD043BC858D050FBDC00F013F8FAF7D9
:1085800091FE0000F89C020080210020982200202B
:10859000FEE7FEE7FEE7FEE7FEE7FEE7FEE7FEE7B3
:1085A000FEE7FEE7F0B4AF4B1B78062B1BD0AE4ABC
:1085B000D2F8883043F47003C2F88830BFF34F8F8D
:1085C000BFF36F8F4FF01023D3F80022002AC0F2C0
:1085D0007381D3F80432002BC0F26E81A34BA44AFE
:1085E0001A60F0BC7047A34B1B681907DFD1A24B80
:1085F0001B6803F0F002302A00F08E8003F0E003E5
:10860000402B00F089809C4B1B6803F0F003302B5B
:1086100000F09280984B1B6803F0F002302A6BD078
:1086200003F0E003402B67D0934B1B6803F0F0038B
:10863000302B00F00681904B1B6803F0F002302ACB
:1086400047D003F0E003402B43D08B4B1B6803F073
:10865000F003302B00F0E780874B1B6803F0F0033A
:10866000302B77D0844B1B6803F0F003502B00F0C5
:108670008880814B1B6803F0F002302A18D003F089
:10868000E003402B14D07C4B1B6803F0F002302A2F
:1086900003D003F0E003402B89D14FF08042D2F8A1
:1086A0000034DB0783D56FF00103C2F800347EE7A6
:1086B000724B734A1B6803F04F031360694B1B78BE
:1086C000062B7FF474AF6B4B1B6819077FF46FAFF9
:1086D000D9E74FF080430022C3F80C21C3F81021E2
:1086E000C3F838255F4B1B78062BE7D1614B1B681D
:1086F0001E077FF45CAFA8E7624B5A4A1B681278EA
:108700006149C3F34233062A0B602FD1594B1B68D2
:108710001B077FF44CAF87E75C4B524A1B6812780B
:108720005B49C3F30423062A0B60DBD1514B1B6862
:108730001A073FF468AF3AE74A4B564A1B78564946
:108740001160062B7FF433AF4A4B1B681A077FF486
:108750002EAF5FE7514E524C5249534B052701252E
:1087600000203F223760256008601A603D4B1B786F
:10877000062B7FF41CAF3F4B1B681C077FF417AF21
:1087800070E74FF08052494BD2F80414C3F820151B
:10879000D2F80814C3F82415D2F80C14C3F828151D
:1087A000D2F81014C3F82C15D2F81414C3F83015ED
:1087B000D2F81814C3F83415D2F81C14C3F84015B5
:1087C000D2F82014C3F84415D2F82414C3F848157D
:1087D000D2F82814C3F84C15D2F82C14C3F850154D
:1087E000D2F83014C3F85415D2F83414C3F8601515
:1087F000D2F83814C3F86415D2F83C14C3F86815DD
:10880000D2F84014C3F86C151649D2F84424C3F8C2
:1088100070250B78062B7FF4CAAE164B1B68180721
:108820007FF4C5AE25E70F4B214A1B780321062BA9
:1088300011607FF4BCAE0F4B1B681D077FF4B7AE11
:108840000AE71C49074BCA681B7822F08072062B86
:10885000CA607FF4ACAE074B1B681F077FF4A7AE5E
:10886000E9E600BFE00F00F000ED00E0A0210020ED
:108870000090D003E40F00F0E80F00F05802001061
:10888000E40E0040440200103C05004024030010A8
:108890004035014074C007400DF0ADBA105600409D
:1088A00088560040185600401456004000C0004052
:1088B000A0050040F0ED00E0184B0122C3F80425AC
:1088C000D3F80024002AFBD04FF0102315221349BF
:1088D000C3F80022D1F80034002BFBD04FF0102356
:1088E00015220E49C3F80422D1F800240B4B002AAC
:1088F000FAD00022C3F80425D3F80024002AFBD0C4
:10890000BFF34F8F0649074BCA6802F4E062134376
:10891000CB60BFF34F8F00BFFDE700BF00E0014019
:1089200000ED00E00400FA05A0DF7047A2DF704709
:10893000A6DF704762DF70470288502A034600D0E6
:10894000704710B44A88DC88944202D05DF8044B2A
:1089500070471A8A012AF9D14C69002CF6D0988800
:108960009A7C23465DF8044B184700BFF0B5734C62
:108970000E68A2686168E36895B0054620686E617C
:1089800004AC0FC405F1120104A8FFF7D3FF18B11E
:108990000446204615B0F0BD14A941F2235321F836
:1089A000483D0120AB7C8DF80A302A46FFF7BCFF1A
:1089B00004460028EDD121460322684600F01DFB45
:1089C0009DF800709DF801309DF802E0012666F3E5
:1089D000030766F3030366F3071366F3420E2146AB
:1089E00066F307171C220DA88DF800708DF8013072
:1089F0008DF802E000F001FB9DF8343095F812E0AC
:108A00000E9443F01203214641F22457032201A899
:108A10001094119413948DF834308DF80EE0ADF865
:108A20000C70CDF848D000F0E8FA9DF806309DF8BB
:108A300004E09DF8057066F3420364F3C30364F336
:108A4000041364F3030766F3030E64F3000366F391
:108A5000071E214664F30717142208A88DF8063074
:108A60008DF804E08DF8057000F0C7FA2B4601AAD6
:108A70000992ADF82A400C940DA903AC33F80A0B07
:108A8000089408AAADF82860ADF82C60FFF74EFFF7
:108A9000044600287FF47DAF21461C220DA800F07B
:108AA000ACFA9DF8343095F812E00E9443F00A03C6
:108AB000214641F22557032201A8109411941294E3
:108AC00013948DF834308DF80EE0ADF80C7000F092
:108AD00094FA9DF806309DF804E09DF8057066F361
